{
  "fileName": "AccessControl.sol",
  "contractName": "AccessControl",
  "source": "pragma solidity ^0.5.0;\n\nimport \"@openzeppelin/contracts-ethereum-package/contracts/access/Roles.sol\";\nimport \"./Ownable.sol\";\n\ncontract AccessControl is Ownable {\n\n    using Roles for Roles.Role;\n\n    //Contract admins\n    Roles.Role internal _admins;\n\n    // Events\n    event AddedAdmin(address _address);\n    event DeletedAdmin(address _addess);\n\n    function addAdmin(address newAdmin) public onlyOwner {\n        require(newAdmin != address(0), \"AccessControl: Invalid new admin address\");\n        _admins.add(newAdmin);\n        emit AddedAdmin(newAdmin);\n    }\n\n    function deletedAdmin(address deleteAdmin) public onlyOwner {\n        require(deleteAdmin != address(0), \"AccessControl: Invalid new admin address\");\n        _admins.remove(deleteAdmin);\n        emit DeletedAdmin(deleteAdmin);\n    }\n}\n",
  "sourcePath": "contracts/libs/AccessControl.sol",
  "abi": [
    {
      "anonymous": false,
      "inputs": [
        {
          "indexed": false,
          "internalType": "address",
          "name": "_address",
          "type": "address"
        }
      ],
      "name": "AddedAdmin",
      "type": "event"
    },
    {
      "anonymous": false,
      "inputs": [
        {
          "indexed": false,
          "internalType": "address",
          "name": "_addess",
          "type": "address"
        }
      ],
      "name": "DeletedAdmin",
      "type": "event"
    },
    {
      "anonymous": false,
      "inputs": [
        {
          "indexed": true,
          "internalType": "address",
          "name": "previousOwner",
          "type": "address"
        },
        {
          "indexed": true,
          "internalType": "address",
          "name": "newOwner",
          "type": "address"
        }
      ],
      "name": "OwnershipTransferred",
      "type": "event"
    },
    {
      "constant": false,
      "inputs": [
        {
          "internalType": "address",
          "name": "newAdmin",
          "type": "address"
        }
      ],
      "name": "addAdmin",
      "outputs": [],
      "payable": false,
      "stateMutability": "nonpayable",
      "type": "function"
    },
    {
      "constant": false,
      "inputs": [
        {
          "internalType": "address",
          "name": "deleteAdmin",
          "type": "address"
        }
      ],
      "name": "deletedAdmin",
      "outputs": [],
      "payable": false,
      "stateMutability": "nonpayable",
      "type": "function"
    },
    {
      "constant": true,
      "inputs": [],
      "name": "owner",
      "outputs": [
        {
          "internalType": "address",
          "name": "",
          "type": "address"
        }
      ],
      "payable": false,
      "stateMutability": "view",
      "type": "function"
    }
  ],
  "bytecode": "0x608060405234801561001057600080fd5b506107d7806100206000396000f3fe608060405234801561001057600080fd5b50600436106100415760003560e01c806370480275146100465780638da5cb5b1461008a578063b9aa4965146100d4575b600080fd5b6100886004803603602081101561005c57600080fd5b81019080803573ffffffffffffffffffffffffffffffffffffffff169060200190929190505050610118565b005b6100926102da565b604051808273ffffffffffffffffffffffffffffffffffffffff1673ffffffffffffffffffffffffffffffffffffffff16815260200191505060405180910390f35b610116600480360360208110156100ea57600080fd5b81019080803573ffffffffffffffffffffffffffffffffffffffff1690602001909291905050506102ff565b005b6000809054906101000a900473ffffffffffffffffffffffffffffffffffffffff1673ffffffffffffffffffffffffffffffffffffffff163373ffffffffffffffffffffffffffffffffffffffff16146101da576040517f08c379a000000000000000000000000000000000000000000000000000000000815260040180806020018281038252601c8152602001807f4f776e61626c653a2073656e646572206973206e6f74206f776e65720000000081525060200191505060405180910390fd5b600073ffffffffffffffffffffffffffffffffffffffff168173ffffffffffffffffffffffffffffffffffffffff161415610260576040517f08c379a000000000000000000000000000000000000000000000000000000000815260040180806020018281038252602881526020018061077b6028913960400191505060405180910390fd5b6102748160016104c190919063ffffffff16565b7f7849194239ab1d31b991b5436d81370256505cf25eaafbcccbc66acd1189691681604051808273ffffffffffffffffffffffffffffffffffffffff1673ffffffffffffffffffffffffffffffffffffffff16815260200191505060405180910390a150565b6000809054906101000a900473ffffffffffffffffffffffffffffffffffffffff1681565b6000809054906101000a900473ffffffffffffffffffffffffffffffffffffffff1673ffffffffffffffffffffffffffffffffffffffff163373ffffffffffffffffffffffffffffffffffffffff16146103c1576040517f08c379a000000000000000000000000000000000000000000000000000000000815260040180806020018281038252601c8152602001807f4f776e61626c653a2073656e646572206973206e6f74206f776e65720000000081525060200191505060405180910390fd5b600073ffffffffffffffffffffffffffffffffffffffff168173ffffffffffffffffffffffffffffffffffffffff161415610447576040517f08c379a000000000000000000000000000000000000000000000000000000000815260040180806020018281038252602881526020018061077b6028913960400191505060405180910390fd5b61045b81600161059c90919063ffffffff16565b7fbcfca65a032174af0578081c3d0e82f3d001c16d1a83423c877c479ed8330a1581604051808273ffffffffffffffffffffffffffffffffffffffff1673ffffffffffffffffffffffffffffffffffffffff16815260200191505060405180910390a150565b6104cb8282610659565b1561053e576040517f08c379a000000000000000000000000000000000000000000000000000000000815260040180806020018281038252601f8152602001807f526f6c65733a206163636f756e7420616c72656164792068617320726f6c650081525060200191505060405180910390fd5b60018260000160008373ffffffffffffffffffffffffffffffffffffffff1673ffffffffffffffffffffffffffffffffffffffff16815260200190815260200160002060006101000a81548160ff0219169083151502179055505050565b6105a68282610659565b6105fb576040517f08c379a00000000000000000000000000000000000000000000000000000000081526004018080602001828103825260218152602001806107386021913960400191505060405180910390fd5b60008260000160008373ffffffffffffffffffffffffffffffffffffffff1673ffffffffffffffffffffffffffffffffffffffff16815260200190815260200160002060006101000a81548160ff0219169083151502179055505050565b60008073ffffffffffffffffffffffffffffffffffffffff168273ffffffffffffffffffffffffffffffffffffffff1614156106e0576040517f08c379a00000000000000000000000000000000000000000000000000000000081526004018080602001828103825260228152602001806107596022913960400191505060405180910390fd5b8260000160008373ffffffffffffffffffffffffffffffffffffffff1673ffffffffffffffffffffffffffffffffffffffff16815260200190815260200160002060009054906101000a900460ff1690509291505056fe526f6c65733a206163636f756e7420646f6573206e6f74206861766520726f6c65526f6c65733a206163636f756e7420697320746865207a65726f2061646472657373416363657373436f6e74726f6c3a20496e76616c6964206e65772061646d696e2061646472657373a265627a7a723158200d2bf2e8ee41e8a3e649dd8c10120f7731c12fa90310140581674381442fa74f64736f6c63430005110032",
  "compiler": {
    "name": "solc",
    "version": "0.5.17+commit.d19bba13.Emscripten.clang",
    "optimizer": {
      "enabled": false,
      "runs": 200
    },
    "evmVersion": "petersburg"
  }
}