{
  "fileName": "Esillium.sol",
  "contractName": "Esillium",
  "source": "pragma solidity ^0.5.0;\n\nimport \"./MainContract.sol\";\n\ncontract Esillium is MainContract {\n     constructor () MainContract('Esillium', '8YB', 5, 700000000, 0xa1acfB20b6552F73a0Eb6129159E64093e4A5303) public {}\n}\n",
  "sourcePath": "contracts/Esillium.sol",
  "abi": [
    {
      "inputs": [],
      "payable": false,
      "stateMutability": "nonpayable",
      "type": "constructor"
    },
    {
      "anonymous": false,
      "inputs": [
        {
          "indexed": true,
          "internalType": "address",
          "name": "tokenOwner",
          "type": "address"
        },
        {
          "indexed": true,
          "internalType": "address",
          "name": "spender",
          "type": "address"
        },
        {
          "indexed": false,
          "internalType": "uint256",
          "name": "value",
          "type": "uint256"
        }
      ],
      "name": "Approval",
      "type": "event"
    },
    {
      "anonymous": false,
      "inputs": [
        {
          "indexed": true,
          "internalType": "address",
          "name": "burner",
          "type": "address"
        },
        {
          "indexed": false,
          "internalType": "uint256",
          "name": "value",
          "type": "uint256"
        }
      ],
      "name": "Burn",
      "type": "event"
    },
    {
      "anonymous": false,
      "inputs": [
        {
          "indexed": false,
          "internalType": "address",
          "name": "target",
          "type": "address"
        },
        {
          "indexed": false,
          "internalType": "uint256",
          "name": "eth",
          "type": "uint256"
        },
        {
          "indexed": false,
          "internalType": "uint256",
          "name": "tokens",
          "type": "uint256"
        }
      ],
      "name": "Buy",
      "type": "event"
    },
    {
      "anonymous": false,
      "inputs": [
        {
          "indexed": false,
          "internalType": "address",
          "name": "target",
          "type": "address"
        },
        {
          "indexed": false,
          "internalType": "bool",
          "name": "frozen",
          "type": "bool"
        }
      ],
      "name": "FrozenFunds",
      "type": "event"
    },
    {
      "anonymous": false,
      "inputs": [
        {
          "indexed": true,
          "internalType": "address",
          "name": "to",
          "type": "address"
        },
        {
          "indexed": false,
          "internalType": "uint256",
          "name": "amount",
          "type": "uint256"
        }
      ],
      "name": "Mint",
      "type": "event"
    },
    {
      "anonymous": false,
      "inputs": [],
      "name": "MintFinished",
      "type": "event"
    },
    {
      "anonymous": false,
      "inputs": [],
      "name": "MintStarted",
      "type": "event"
    },
    {
      "anonymous": false,
      "inputs": [
        {
          "indexed": true,
          "internalType": "address",
          "name": "previousOwner",
          "type": "address"
        }
      ],
      "name": "OwnershipRenounced",
      "type": "event"
    },
    {
      "anonymous": false,
      "inputs": [
        {
          "indexed": true,
          "internalType": "address",
          "name": "previousOwner",
          "type": "address"
        },
        {
          "indexed": true,
          "internalType": "address",
          "name": "newOwner",
          "type": "address"
        }
      ],
      "name": "OwnershipTransferred",
      "type": "event"
    },
    {
      "anonymous": false,
      "inputs": [],
      "name": "Pause",
      "type": "event"
    },
    {
      "anonymous": false,
      "inputs": [
        {
          "indexed": true,
          "internalType": "address",
          "name": "from",
          "type": "address"
        },
        {
          "indexed": true,
          "internalType": "address",
          "name": "to",
          "type": "address"
        },
        {
          "indexed": false,
          "internalType": "uint256",
          "name": "value",
          "type": "uint256"
        }
      ],
      "name": "Transfer",
      "type": "event"
    },
    {
      "anonymous": false,
      "inputs": [],
      "name": "Unpause",
      "type": "event"
    },
    {
      "payable": true,
      "stateMutability": "payable",
      "type": "fallback"
    },
    {
      "constant": false,
      "inputs": [
        {
          "internalType": "uint256",
          "name": "_amount",
          "type": "uint256"
        }
      ],
      "name": "addTokens",
      "outputs": [],
      "payable": false,
      "stateMutability": "nonpayable",
      "type": "function"
    },
    {
      "constant": true,
      "inputs": [
        {
          "internalType": "address",
          "name": "owner",
          "type": "address"
        },
        {
          "internalType": "address",
          "name": "spender",
          "type": "address"
        }
      ],
      "name": "allowance",
      "outputs": [
        {
          "internalType": "uint256",
          "name": "",
          "type": "uint256"
        }
      ],
      "payable": false,
      "stateMutability": "view",
      "type": "function"
    },
    {
      "constant": false,
      "inputs": [
        {
          "internalType": "address",
          "name": "spender",
          "type": "address"
        },
        {
          "internalType": "uint256",
          "name": "value",
          "type": "uint256"
        }
      ],
      "name": "approve",
      "outputs": [
        {
          "internalType": "bool",
          "name": "",
          "type": "bool"
        }
      ],
      "payable": false,
      "stateMutability": "nonpayable",
      "type": "function"
    },
    {
      "constant": true,
      "inputs": [
        {
          "internalType": "address",
          "name": "owner",
          "type": "address"
        }
      ],
      "name": "balanceOf",
      "outputs": [
        {
          "internalType": "uint256",
          "name": "",
          "type": "uint256"
        }
      ],
      "payable": false,
      "stateMutability": "view",
      "type": "function"
    },
    {
      "constant": false,
      "inputs": [
        {
          "internalType": "uint256",
          "name": "_value",
          "type": "uint256"
        }
      ],
      "name": "burn",
      "outputs": [],
      "payable": false,
      "stateMutability": "nonpayable",
      "type": "function"
    },
    {
      "constant": false,
      "inputs": [
        {
          "internalType": "address",
          "name": "account",
          "type": "address"
        },
        {
          "internalType": "uint256",
          "name": "_value",
          "type": "uint256"
        }
      ],
      "name": "burnFrom",
      "outputs": [],
      "payable": false,
      "stateMutability": "nonpayable",
      "type": "function"
    },
    {
      "constant": true,
      "inputs": [],
      "name": "decimals",
      "outputs": [
        {
          "internalType": "uint256",
          "name": "",
          "type": "uint256"
        }
      ],
      "payable": false,
      "stateMutability": "view",
      "type": "function"
    },
    {
      "constant": false,
      "inputs": [
        {
          "internalType": "address",
          "name": "spender",
          "type": "address"
        },
        {
          "internalType": "uint256",
          "name": "subtractedValue",
          "type": "uint256"
        }
      ],
      "name": "decreaseAllowance",
      "outputs": [
        {
          "internalType": "bool",
          "name": "",
          "type": "bool"
        }
      ],
      "payable": false,
      "stateMutability": "nonpayable",
      "type": "function"
    },
    {
      "constant": false,
      "inputs": [],
      "name": "finishMinting",
      "outputs": [
        {
          "internalType": "bool",
          "name": "",
          "type": "bool"
        }
      ],
      "payable": false,
      "stateMutability": "nonpayable",
      "type": "function"
    },
    {
      "constant": false,
      "inputs": [
        {
          "internalType": "address",
          "name": "target",
          "type": "address"
        },
        {
          "internalType": "bool",
          "name": "freeze",
          "type": "bool"
        }
      ],
      "name": "freezeAccount",
      "outputs": [],
      "payable": false,
      "stateMutability": "nonpayable",
      "type": "function"
    },
    {
      "constant": true,
      "inputs": [
        {
          "internalType": "address",
          "name": "",
          "type": "address"
        }
      ],
      "name": "frozenAccounts",
      "outputs": [
        {
          "internalType": "bool",
          "name": "",
          "type": "bool"
        }
      ],
      "payable": false,
      "stateMutability": "view",
      "type": "function"
    },
    {
      "constant": true,
      "inputs": [],
      "name": "getBuyPrice",
      "outputs": [
        {
          "internalType": "uint256",
          "name": "",
          "type": "uint256"
        }
      ],
      "payable": false,
      "stateMutability": "view",
      "type": "function"
    },
    {
      "constant": true,
      "inputs": [],
      "name": "getBuyPriceDecimals",
      "outputs": [
        {
          "internalType": "uint256",
          "name": "",
          "type": "uint256"
        }
      ],
      "payable": false,
      "stateMutability": "view",
      "type": "function"
    },
    {
      "constant": true,
      "inputs": [],
      "name": "getMembersCount",
      "outputs": [
        {
          "internalType": "uint256",
          "name": "",
          "type": "uint256"
        }
      ],
      "payable": false,
      "stateMutability": "view",
      "type": "function"
    },
    {
      "constant": false,
      "inputs": [
        {
          "internalType": "address",
          "name": "spender",
          "type": "address"
        },
        {
          "internalType": "uint256",
          "name": "addedValue",
          "type": "uint256"
        }
      ],
      "name": "increaseAllowance",
      "outputs": [
        {
          "internalType": "bool",
          "name": "",
          "type": "bool"
        }
      ],
      "payable": false,
      "stateMutability": "nonpayable",
      "type": "function"
    },
    {
      "constant": false,
      "inputs": [
        {
          "internalType": "string",
          "name": "__name",
          "type": "string"
        },
        {
          "internalType": "string",
          "name": "__symbol",
          "type": "string"
        },
        {
          "internalType": "uint256",
          "name": "__decimals",
          "type": "uint256"
        },
        {
          "internalType": "uint256",
          "name": "__totalSupply",
          "type": "uint256"
        },
        {
          "internalType": "address",
          "name": "__owner",
          "type": "address"
        }
      ],
      "name": "init",
      "outputs": [],
      "payable": false,
      "stateMutability": "nonpayable",
      "type": "function"
    },
    {
      "constant": false,
      "inputs": [
        {
          "internalType": "address",
          "name": "_to",
          "type": "address"
        },
        {
          "internalType": "uint256",
          "name": "_amount",
          "type": "uint256"
        }
      ],
      "name": "mint",
      "outputs": [
        {
          "internalType": "bool",
          "name": "",
          "type": "bool"
        }
      ],
      "payable": false,
      "stateMutability": "nonpayable",
      "type": "function"
    },
    {
      "constant": true,
      "inputs": [],
      "name": "mintingFinished",
      "outputs": [
        {
          "internalType": "bool",
          "name": "",
          "type": "bool"
        }
      ],
      "payable": false,
      "stateMutability": "view",
      "type": "function"
    },
    {
      "constant": true,
      "inputs": [],
      "name": "name",
      "outputs": [
        {
          "internalType": "string",
          "name": "",
          "type": "string"
        }
      ],
      "payable": false,
      "stateMutability": "view",
      "type": "function"
    },
    {
      "constant": true,
      "inputs": [],
      "name": "owner",
      "outputs": [
        {
          "internalType": "address",
          "name": "",
          "type": "address"
        }
      ],
      "payable": false,
      "stateMutability": "view",
      "type": "function"
    },
    {
      "constant": false,
      "inputs": [],
      "name": "pause",
      "outputs": [],
      "payable": false,
      "stateMutability": "nonpayable",
      "type": "function"
    },
    {
      "constant": true,
      "inputs": [],
      "name": "paused",
      "outputs": [
        {
          "internalType": "bool",
          "name": "",
          "type": "bool"
        }
      ],
      "payable": false,
      "stateMutability": "view",
      "type": "function"
    },
    {
      "constant": false,
      "inputs": [],
      "name": "renounceOwnership",
      "outputs": [],
      "payable": false,
      "stateMutability": "nonpayable",
      "type": "function"
    },
    {
      "constant": false,
      "inputs": [
        {
          "internalType": "uint256",
          "name": "newBuyPrice",
          "type": "uint256"
        }
      ],
      "name": "setPrices",
      "outputs": [],
      "payable": false,
      "stateMutability": "nonpayable",
      "type": "function"
    },
    {
      "constant": false,
      "inputs": [
        {
          "internalType": "uint256",
          "name": "newBuyDecimal",
          "type": "uint256"
        }
      ],
      "name": "setPricesDecimals",
      "outputs": [],
      "payable": false,
      "stateMutability": "nonpayable",
      "type": "function"
    },
    {
      "constant": false,
      "inputs": [],
      "name": "startMinting",
      "outputs": [
        {
          "internalType": "bool",
          "name": "",
          "type": "bool"
        }
      ],
      "payable": false,
      "stateMutability": "nonpayable",
      "type": "function"
    },
    {
      "constant": true,
      "inputs": [],
      "name": "symbol",
      "outputs": [
        {
          "internalType": "string",
          "name": "",
          "type": "string"
        }
      ],
      "payable": false,
      "stateMutability": "view",
      "type": "function"
    },
    {
      "constant": true,
      "inputs": [],
      "name": "totalSupply",
      "outputs": [
        {
          "internalType": "uint256",
          "name": "",
          "type": "uint256"
        }
      ],
      "payable": false,
      "stateMutability": "view",
      "type": "function"
    },
    {
      "constant": false,
      "inputs": [
        {
          "internalType": "address",
          "name": "_to",
          "type": "address"
        },
        {
          "internalType": "uint256",
          "name": "value",
          "type": "uint256"
        }
      ],
      "name": "transfer",
      "outputs": [
        {
          "internalType": "bool",
          "name": "_success",
          "type": "bool"
        }
      ],
      "payable": false,
      "stateMutability": "nonpayable",
      "type": "function"
    },
    {
      "constant": false,
      "inputs": [
        {
          "internalType": "address",
          "name": "_from",
          "type": "address"
        },
        {
          "internalType": "address",
          "name": "_to",
          "type": "address"
        },
        {
          "internalType": "uint256",
          "name": "value",
          "type": "uint256"
        }
      ],
      "name": "transferFrom",
      "outputs": [
        {
          "internalType": "bool",
          "name": "_success",
          "type": "bool"
        }
      ],
      "payable": false,
      "stateMutability": "nonpayable",
      "type": "function"
    },
    {
      "constant": false,
      "inputs": [
        {
          "internalType": "address",
          "name": "_newOwner",
          "type": "address"
        }
      ],
      "name": "transferOwnership",
      "outputs": [],
      "payable": false,
      "stateMutability": "nonpayable",
      "type": "function"
    },
    {
      "constant": false,
      "inputs": [],
      "name": "unpause",
      "outputs": [],
      "payable": false,
      "stateMutability": "nonpayable",
      "type": "function"
    }
  ],
  "bytecode": "0x608060405260c860005560056001556000600660006101000a81548160ff0219169083151502179055506000600860006101000a81548160ff0219169083151502179055503480156200005157600080fd5b506040518060400160405280600881526020017f4573696c6c69756d0000000000000000000000000000000000000000000000008152506040518060400160405280600381526020017f385942000000000000000000000000000000000000000000000000000000000081525060056329b9270073a1acfb20b6552f73a0eb6129159e64093e4a530333600260006101000a81548173ffffffffffffffffffffffffffffffffffffffff021916908373ffffffffffffffffffffffffffffffffffffffff1602179055506200013085858585856200013b60201b60201c565b505050505062001199565b600860029054906101000a900460ff1680620001635750620001626200033f60201b60201c565b5b806200017c5750600860019054906101000a900460ff16155b620001d3576040517f08c379a000000000000000000000000000000000000000000000000000000000815260040180806020018281038252602e81526020018062004d4b602e913960400191505060405180910390fd5b6000600860029054906101000a900460ff16159050801562000226576001600860026101000a81548160ff0219169083151502179055506001600860016101000a81548160ff0219169083151502179055505b85603b90805190602001906200023e929190620010ea565b5084603c908051906020019062000257929190620010ea565b5083603d81905550603d54600a0a603e81905550600860009054906101000a900460ff16156200029257620002916200035660201b60201c565b5b620002a5600054620004e760201b60201c565b620002b8600154620005b560201b60201c565b620002ce82603e5485026200068360201b60201c565b50620002f182620002e584620007ff60201b60201c565b6200084860201b60201c565b5062000302620008ed60201b60201c565b50620003148262000a6960201b60201c565b801562000337576000600860026101000a81548160ff0219169083151502179055505b505050505050565b6000803090506000813b9050600081149250505090565b600260009054906101000a900473ffffffffffffffffffffffffffffffffffffffff1673ffffffffffffffffffffffffffffffffffffffff163373ffffffffffffffffffffffffffffffffffffffff16146200041a576040517f08c379a000000000000000000000000000000000000000000000000000000000815260040180806020018281038252601c8152602001807f4f776e61626c653a2073656e646572206973206e6f74206f776e65720000000081525060200191505060405180910390fd5b600860009054906101000a900460ff16156200049e576040517f08c379a00000000000000000000000000000000000000000000000000000000081526004018080602001828103825260198152602001807f5061757361626c653a20636f6e7472616374207061757365640000000000000081525060200191505060405180910390fd5b6001600860006101000a81548160ff0219169083151502179055507f6985a02210a168e66602d3235cb6db0e70f92b3ba4d376a33c0f3d9434bff62560405160405180910390a1565b600260009054906101000a900473ffffffffffffffffffffffffffffffffffffffff1673ffffffffffffffffffffffffffffffffffffffff163373ffffffffffffffffffffffffffffffffffffffff1614620005ab576040517f08c379a000000000000000000000000000000000000000000000000000000000815260040180806020018281038252601c8152602001807f4f776e61626c653a2073656e646572206973206e6f74206f776e65720000000081525060200191505060405180910390fd5b80603f8190555050565b600260009054906101000a900473ffffffffffffffffffffffffffffffffffffffff1673ffffffffffffffffffffffffffffffffffffffff163373ffffffffffffffffffffffffffffffffffffffff161462000679576040517f08c379a000000000000000000000000000000000000000000000000000000000815260040180806020018281038252601c8152602001807f4f776e61626c653a2073656e646572206973206e6f74206f776e65720000000081525060200191505060405180910390fd5b8060408190555050565b6000600260009054906101000a900473ffffffffffffffffffffffffffffffffffffffff1673ffffffffffffffffffffffffffffffffffffffff163373ffffffffffffffffffffffffffffffffffffffff16146200072d576040517f08c379a000000000000000000000000000000000000000000000000000000000815260040180806020018281038252602981526020018062004cdb6029913960400191505060405180910390fd5b600660009054906101000a900460ff161562000795576040517f08c379a000000000000000000000000000000000000000000000000000000000815260040180806020018281038252602281526020018062004d296022913960400191505060405180910390fd5b620007a7838362000b4160201b60201c565b8273ffffffffffffffffffffffffffffffffffffffff167f0f6798a560793a54c3bcfe86a93cde1e73087d944c0ea20544137d4121396885836040518082815260200191505060405180910390a26001905092915050565b6000600360008373ffffffffffffffffffffffffffffffffffffffff1673ffffffffffffffffffffffffffffffffffffffff168152602001908152602001600020549050919050565b6000600860009054906101000a900460ff1615620008ce576040517f08c379a00000000000000000000000000000000000000000000000000000000081526004018080602001828103825260198152602001807f5061757361626c653a20636f6e7472616374207061757365640000000000000081525060200191505060405180910390fd5b620008e5838362000d6860201b620029301760201c565b905092915050565b6000600260009054906101000a900473ffffffffffffffffffffffffffffffffffffffff1673ffffffffffffffffffffffffffffffffffffffff163373ffffffffffffffffffffffffffffffffffffffff1614620009b3576040517f08c379a000000000000000000000000000000000000000000000000000000000815260040180806020018281038252601c8152602001807f4f776e61626c653a2073656e646572206973206e6f74206f776e65720000000081525060200191505060405180910390fd5b600660009054906101000a900460ff161562000a1b576040517f08c379a000000000000000000000000000000000000000000000000000000000815260040180806020018281038252602281526020018062004d296022913960400191505060405180910390fd5b6001600660006101000a81548160ff0219169083151502179055507fae5184fba832cb2b1f702aca6117b8d265eaf03ad33eb133f19dde0f5920fa0860405160405180910390a16001905090565b600260009054906101000a900473ffffffffffffffffffffffffffffffffffffffff1673ffffffffffffffffffffffffffffffffffffffff163373ffffffffffffffffffffffffffffffffffffffff161462000b2d576040517f08c379a000000000000000000000000000000000000000000000000000000000815260040180806020018281038252601c8152602001807f4f776e61626c653a2073656e646572206973206e6f74206f776e65720000000081525060200191505060405180910390fd5b62000b3e8162000d8760201b60201c565b50565b600073ffffffffffffffffffffffffffffffffffffffff168273ffffffffffffffffffffffffffffffffffffffff16141562000be5576040517f08c379a000000000000000000000000000000000000000000000000000000000815260040180806020018281038252601f8152602001807f45524332303a206d696e7420746f20746865207a65726f20616464726573730081525060200191505060405180910390fd5b6000811162000c40576040517f08c379a000000000000000000000000000000000000000000000000000000000815260040180806020018281038252602581526020018062004d046025913960400191505060405180910390fd5b62000c5c8160055462000ecf60201b620024401790919060201c565b60058190555062000cbb81600360008573ffffffffffffffffffffffffffffffffffffffff1673ffffffffffffffffffffffffffffffffffffffff1681526020019081526020016000205462000ecf60201b620024401790919060201c565b600360008473ffffffffffffffffffffffffffffffffffffffff1673ffffffffffffffffffffffffffffffffffffffff168152602001908152602001600020819055508173ffffffffffffffffffffffffffffffffffffffff16600073ffffffffffffffffffffffffffffffffffffffff167fddf252ad1be2c89b69c2b068fc378daa952ba7f163c4a11628f55a4df523b3ef836040518082815260200191505060405180910390a35050565b600062000d7d33848462000eef60201b60201c565b6001905092915050565b600073ffffffffffffffffffffffffffffffffffffffff168173ffffffffffffffffffffffffffffffffffffffff16141562000e0f576040517f08c379a000000000000000000000000000000000000000000000000000000000815260040180806020018281038252602181526020018062004c986021913960400191505060405180910390fd5b80600260006101000a81548173ffffffffffffffffffffffffffffffffffffffff021916908373ffffffffffffffffffffffffffffffffffffffff1602179055508073ffffffffffffffffffffffffffffffffffffffff16600260009054906101000a900473ffffffffffffffffffffffffffffffffffffffff1673ffffffffffffffffffffffffffffffffffffffff167f8be0079c531659141344cd1fd0a4f28419497f9722a3daafe3b4186f6b6457e060405160405180910390a350565b60008082840190508381101562000ee557600080fd5b8091505092915050565b600073ffffffffffffffffffffffffffffffffffffffff168373ffffffffffffffffffffffffffffffffffffffff16141562000f77576040517f08c379a000000000000000000000000000000000000000000000000000000000815260040180806020018281038252602481526020018062004d796024913960400191505060405180910390fd5b600073ffffffffffffffffffffffffffffffffffffffff168273ffffffffffffffffffffffffffffffffffffffff16141562000fff576040517f08c379a000000000000000000000000000000000000000000000000000000000815260040180806020018281038252602281526020018062004cb96022913960400191505060405180910390fd5b80600460008573ffffffffffffffffffffffffffffffffffffffff1673ffffffffffffffffffffffffffffffffffffffff16815260200190815260200160002060008473ffffffffffffffffffffffffffffffffffffffff1673ffffffffffffffffffffffffffffffffffffffff168152602001908152602001600020819055508173ffffffffffffffffffffffffffffffffffffffff168373ffffffffffffffffffffffffffffffffffffffff167f8c5be1e5ebec7d5bd14f71427d1e84f3dd0314c0f7b2291e5b200ac8c7c3b925836040518082815260200191505060405180910390a3505050565b828054600181600116156101000203166002900490600052602060002090601f016020900481019282601f106200112d57805160ff19168380011785556200115e565b828001600101855582156200115e579182015b828111156200115d57825182559160200191906001019062001140565b5b5090506200116d919062001171565b5090565b6200119691905b808211156200119257600081600090555060010162001178565b5090565b90565b613aef80620011a96000396000f3fe6080604052600436106101e35760003560e01c8063715018a611610102578063a3201daa11610095578063dd62ed3e11610064578063dd62ed3e14610a25578063e724529c14610aaa578063eb7dd8c814610b07578063f2fde38b14610c9a576101e3565b8063a3201daa146108c9578063a457c2d714610904578063a9059cbb14610977578063c6ed8990146109ea576101e3565b8063860838a5116100d1578063860838a51461074a5780638da5cb5b146107b357806395d89b411461080a5780639a65ea261461089a576101e3565b8063715018a61461069257806379cc6790146106a95780637d64bcb4146107045780638456cb5914610733576101e3565b806334a6dda61161017a57806340c10f191161014957806340c10f191461055057806342966c68146105c35780635c975abb146105fe57806370a082311461062d576101e3565b806334a6dda614610460578063395093511461049b5780633be258bb1461050e5780633f4ba83a14610539576101e3565b806309772f8f116101b657806309772f8f1461034c57806318160ddd1461037757806323b872dd146103a2578063313ce56714610435576101e3565b8063018a25e8146101ef57806305d2035b1461021a57806306fdde0314610249578063095ea7b3146102d9575b6101ed3334610ceb565b005b3480156101fb57600080fd5b50610204610de5565b6040518082815260200191505060405180910390f35b34801561022657600080fd5b5061022f610def565b604051808215151515815260200191505060405180910390f35b34801561025557600080fd5b5061025e610e02565b6040518080602001828103825283818151815260200191508051906020019080838360005b8381101561029e578082015181840152602081019050610283565b50505050905090810190601f1680156102cb5780820380516001836020036101000a031916815260200191505b509250505060405180910390f35b3480156102e557600080fd5b50610332600480360360408110156102fc57600080fd5b81019080803573ffffffffffffffffffffffffffffffffffffffff16906020019092919080359060200190929190505050610ea4565b604051808215151515815260200191505060405180910390f35b34801561035857600080fd5b50610361610f3b565b6040518082815260200191505060405180910390f35b34801561038357600080fd5b5061038c610f45565b6040518082815260200191505060405180910390f35b3480156103ae57600080fd5b5061041b600480360360608110156103c557600080fd5b81019080803573ffffffffffffffffffffffffffffffffffffffff169060200190929190803573ffffffffffffffffffffffffffffffffffffffff16906020019092919080359060200190929190505050610f4f565b604051808215151515815260200191505060405180910390f35b34801561044157600080fd5b5061044a610fe8565b6040518082815260200191505060405180910390f35b34801561046c57600080fd5b506104996004803603602081101561048357600080fd5b8101908080359060200190929190505050610ff2565b005b3480156104a757600080fd5b506104f4600480360360408110156104be57600080fd5b81019080803573ffffffffffffffffffffffffffffffffffffffff169060200190929190803590602001909291905050506110bf565b604051808215151515815260200191505060405180910390f35b34801561051a57600080fd5b50610523611156565b6040518082815260200191505060405180910390f35b34801561054557600080fd5b5061054e611160565b005b34801561055c57600080fd5b506105a96004803603604081101561057357600080fd5b81019080803573ffffffffffffffffffffffffffffffffffffffff169060200190929190803590602001909291905050506112ee565b604051808215151515815260200191505060405180910390f35b3480156105cf57600080fd5b506105fc600480360360208110156105e657600080fd5b810190808035906020019092919050505061145e565b005b34801561060a57600080fd5b506106136114ee565b604051808215151515815260200191505060405180910390f35b34801561063957600080fd5b5061067c6004803603602081101561065057600080fd5b81019080803573ffffffffffffffffffffffffffffffffffffffff169060200190929190505050611501565b6040518082815260200191505060405180910390f35b34801561069e57600080fd5b506106a761154a565b005b3480156106b557600080fd5b50610702600480360360408110156106cc57600080fd5b81019080803573ffffffffffffffffffffffffffffffffffffffff169060200190929190803590602001909291905050506116b6565b005b34801561071057600080fd5b50610719611747565b604051808215151515815260200191505060405180910390f35b34801561073f57600080fd5b506107486118c0565b005b34801561075657600080fd5b506107996004803603602081101561076d57600080fd5b81019080803573ffffffffffffffffffffffffffffffffffffffff169060200190929190505050611a4f565b604051808215151515815260200191505060405180910390f35b3480156107bf57600080fd5b506107c8611a6f565b604051808273ffffffffffffffffffffffffffffffffffffffff1673ffffffffffffffffffffffffffffffffffffffff16815260200191505060405180910390f35b34801561081657600080fd5b5061081f611a95565b6040518080602001828103825283818151815260200191508051906020019080838360005b8381101561085f578082015181840152602081019050610844565b50505050905090810190601f16801561088c5780820380516001836020036101000a031916815260200191505b509250505060405180910390f35b3480156108a657600080fd5b506108af611b37565b604051808215151515815260200191505060405180910390f35b3480156108d557600080fd5b50610902600480360360208110156108ec57600080fd5b8101908080359060200190929190505050611c4a565b005b34801561091057600080fd5b5061095d6004803603604081101561092757600080fd5b81019080803573ffffffffffffffffffffffffffffffffffffffff16906020019092919080359060200190929190505050611d17565b604051808215151515815260200191505060405180910390f35b34801561098357600080fd5b506109d06004803603604081101561099a57600080fd5b81019080803573ffffffffffffffffffffffffffffffffffffffff16906020019092919080359060200190929190505050611dae565b604051808215151515815260200191505060405180910390f35b3480156109f657600080fd5b50610a2360048036036020811015610a0d57600080fd5b8101908080359060200190929190505050611e45565b005b348015610a3157600080fd5b50610a9460048036036040811015610a4857600080fd5b81019080803573ffffffffffffffffffffffffffffffffffffffff169060200190929190803573ffffffffffffffffffffffffffffffffffffffff169060200190929190505050611fac565b6040518082815260200191505060405180910390f35b348015610ab657600080fd5b50610b0560048036036040811015610acd57600080fd5b81019080803573ffffffffffffffffffffffffffffffffffffffff169060200190929190803515159060200190929190505050612033565b005b348015610b1357600080fd5b50610c98600480360360a0811015610b2a57600080fd5b8101908080359060200190640100000000811115610b4757600080fd5b820183602082011115610b5957600080fd5b80359060200191846001830284011164010000000083111715610b7b57600080fd5b91908080601f016020809104026020016040519081016040528093929190818152602001838380828437600081840152601f19601f82011690508083019250505050505050919291929080359060200190640100000000811115610bde57600080fd5b820183602082011115610bf057600080fd5b80359060200191846001830284011164010000000083111715610c1257600080fd5b91908080601f016020809104026020016040519081016040528093929190818152602001838380828437600081840152601f19601f8201169050808301925050505050505091929192908035906020019092919080359060200190929190803573ffffffffffffffffffffffffffffffffffffffff1690602001909291905050506121c0565b005b348015610ca657600080fd5b50610ce960048036036020811015610cbd57600080fd5b81019080803573ffffffffffffffffffffffffffffffffffffffff169060200190929190505050612371565b005b60008111610cf857600080fd5b6000603f5411610d0757600080fd5b6000604054600a0a9050600081603f548481610d1f57fe5b04029050610d39600160415461244090919063ffffffff16565b604181905550610d6c600260009054906101000a900473ffffffffffffffffffffffffffffffffffffffff16858361245f565b7f1cbc5ab135991bd2b6a4b034a04aa2aa086dac1371cb9b16b8b5e2ed6b036bed848483604051808473ffffffffffffffffffffffffffffffffffffffff1673ffffffffffffffffffffffffffffffffffffffff168152602001838152602001828152602001935050505060405180910390a150505050565b6000603f54905090565b600660009054906101000a900460ff1681565b6060603b8054600181600116156101000203166002900480601f016020809104026020016040519081016040528092919081815260200182805460018160011615610100020316600290048015610e9a5780601f10610e6f57610100808354040283529160200191610e9a565b820191906000526020600020905b815481529060010190602001808311610e7d57829003601f168201915b5050505050905090565b6000600860009054906101000a900460ff1615610f29576040517f08c379a00000000000000000000000000000000000000000000000000000000081526004018080602001828103825260198152602001807f5061757361626c653a20636f6e7472616374207061757365640000000000000081525060200191505060405180910390fd5b610f338383612930565b905092915050565b6000604154905090565b6000600554905090565b6000600860009054906101000a900460ff1615610fd4576040517f08c379a00000000000000000000000000000000000000000000000000000000081526004018080602001828103825260198152602001807f5061757361626c653a20636f6e7472616374207061757365640000000000000081525060200191505060405180910390fd5b610fdf848484612947565b90509392505050565b6000603d54905090565b600260009054906101000a900473ffffffffffffffffffffffffffffffffffffffff1673ffffffffffffffffffffffffffffffffffffffff163373ffffffffffffffffffffffffffffffffffffffff16146110b5576040517f08c379a000000000000000000000000000000000000000000000000000000000815260040180806020018281038252601c8152602001807f4f776e61626c653a2073656e646572206973206e6f74206f776e65720000000081525060200191505060405180910390fd5b8060408190555050565b6000600860009054906101000a900460ff1615611144576040517f08c379a00000000000000000000000000000000000000000000000000000000081526004018080602001828103825260198152602001807f5061757361626c653a20636f6e7472616374207061757365640000000000000081525060200191505060405180910390fd5b61114e8383612acd565b905092915050565b6000604054905090565b600260009054906101000a900473ffffffffffffffffffffffffffffffffffffffff1673ffffffffffffffffffffffffffffffffffffffff163373ffffffffffffffffffffffffffffffffffffffff1614611223576040517f08c379a000000000000000000000000000000000000000000000000000000000815260040180806020018281038252601c8152602001807f4f776e61626c653a2073656e646572206973206e6f74206f776e65720000000081525060200191505060405180910390fd5b600860009054906101000a900460ff166112a5576040517f08c379a000000000000000000000000000000000000000000000000000000000815260040180806020018281038252601d8152602001807f5061757361626c653a20636f6e7472616374206e6f742070617573656400000081525060200191505060405180910390fd5b6000600860006101000a81548160ff0219169083151502179055507f7805862f689e2f13df9f062ff482ad3ad112aca9e0847911ed832e158c525b3360405160405180910390a1565b6000600260009054906101000a900473ffffffffffffffffffffffffffffffffffffffff1673ffffffffffffffffffffffffffffffffffffffff163373ffffffffffffffffffffffffffffffffffffffff1614611396576040517f08c379a00000000000000000000000000000000000000000000000000000000081526004018080602001828103825260298152602001806139386029913960400191505060405180910390fd5b600660009054906101000a900460ff16156113fc576040517f08c379a0000000000000000000000000000000000000000000000000000000008152600401808060200182810382526022815260200180613a106022913960400191505060405180910390fd5b6114068383612bca565b8273ffffffffffffffffffffffffffffffffffffffff167f0f6798a560793a54c3bcfe86a93cde1e73087d944c0ea20544137d4121396885836040518082815260200191505060405180910390a26001905092915050565b600860009054906101000a900460ff16156114e1576040517f08c379a00000000000000000000000000000000000000000000000000000000081526004018080602001828103825260198152602001807f5061757361626c653a20636f6e7472616374207061757365640000000000000081525060200191505060405180910390fd5b6114eb3382612de0565b50565b600860009054906101000a900460ff1681565b6000600360008373ffffffffffffffffffffffffffffffffffffffff1673ffffffffffffffffffffffffffffffffffffffff168152602001908152602001600020549050919050565b600260009054906101000a900473ffffffffffffffffffffffffffffffffffffffff1673ffffffffffffffffffffffffffffffffffffffff163373ffffffffffffffffffffffffffffffffffffffff161461160d576040517f08c379a000000000000000000000000000000000000000000000000000000000815260040180806020018281038252601c8152602001807f4f776e61626c653a2073656e646572206973206e6f74206f776e65720000000081525060200191505060405180910390fd5b6000600260006101000a81548173ffffffffffffffffffffffffffffffffffffffff021916908373ffffffffffffffffffffffffffffffffffffffff160217905550600260009054906101000a900473ffffffffffffffffffffffffffffffffffffffff1673ffffffffffffffffffffffffffffffffffffffff167ff8df31144d9c2f0f6b59d69b8b98abd5459d07f2742c4df920b25aae33c6482060405160405180910390a2565b600860009054906101000a900460ff1615611739576040517f08c379a00000000000000000000000000000000000000000000000000000000081526004018080602001828103825260198152602001807f5061757361626c653a20636f6e7472616374207061757365640000000000000081525060200191505060405180910390fd5b61174382826130bf565b5050565b6000600260009054906101000a900473ffffffffffffffffffffffffffffffffffffffff1673ffffffffffffffffffffffffffffffffffffffff163373ffffffffffffffffffffffffffffffffffffffff161461180c576040517f08c379a000000000000000000000000000000000000000000000000000000000815260040180806020018281038252601c8152602001807f4f776e61626c653a2073656e646572206973206e6f74206f776e65720000000081525060200191505060405180910390fd5b600660009054906101000a900460ff1615611872576040517f08c379a0000000000000000000000000000000000000000000000000000000008152600401808060200182810382526022815260200180613a106022913960400191505060405180910390fd5b6001600660006101000a81548160ff0219169083151502179055507fae5184fba832cb2b1f702aca6117b8d265eaf03ad33eb133f19dde0f5920fa0860405160405180910390a16001905090565b600260009054906101000a900473ffffffffffffffffffffffffffffffffffffffff1673ffffffffffffffffffffffffffffffffffffffff163373ffffffffffffffffffffffffffffffffffffffff1614611983576040517f08c379a000000000000000000000000000000000000000000000000000000000815260040180806020018281038252601c8152602001807f4f776e61626c653a2073656e646572206973206e6f74206f776e65720000000081525060200191505060405180910390fd5b600860009054906101000a900460ff1615611a06576040517f08c379a00000000000000000000000000000000000000000000000000000000081526004018080602001828103825260198152602001807f5061757361626c653a20636f6e7472616374207061757365640000000000000081525060200191505060405180910390fd5b6001600860006101000a81548160ff0219169083151502179055507f6985a02210a168e66602d3235cb6db0e70f92b3ba4d376a33c0f3d9434bff62560405160405180910390a1565b60076020528060005260406000206000915054906101000a900460ff1681565b600260009054906101000a900473ffffffffffffffffffffffffffffffffffffffff1681565b6060603c8054600181600116156101000203166002900480601f016020809104026020016040519081016040528092919081815260200182805460018160011615610100020316600290048015611b2d5780601f10611b0257610100808354040283529160200191611b2d565b820191906000526020600020905b815481529060010190602001808311611b1057829003601f168201915b5050505050905090565b6000600260009054906101000a900473ffffffffffffffffffffffffffffffffffffffff1673ffffffffffffffffffffffffffffffffffffffff163373ffffffffffffffffffffffffffffffffffffffff1614611bfc576040517f08c379a000000000000000000000000000000000000000000000000000000000815260040180806020018281038252601c8152602001807f4f776e61626c653a2073656e646572206973206e6f74206f776e65720000000081525060200191505060405180910390fd5b6000600660006101000a81548160ff0219169083151502179055507f452a344f03203071e1daf66e007976c85cb2380deabf1c91f3c4fb1fca41204960405160405180910390a16001905090565b600260009054906101000a900473ffffffffffffffffffffffffffffffffffffffff1673ffffffffffffffffffffffffffffffffffffffff163373ffffffffffffffffffffffffffffffffffffffff1614611d0d576040517f08c379a000000000000000000000000000000000000000000000000000000000815260040180806020018281038252601c8152602001807f4f776e61626c653a2073656e646572206973206e6f74206f776e65720000000081525060200191505060405180910390fd5b80603f8190555050565b6000600860009054906101000a900460ff1615611d9c576040517f08c379a00000000000000000000000000000000000000000000000000000000081526004018080602001828103825260198152602001807f5061757361626c653a20636f6e7472616374207061757365640000000000000081525060200191505060405180910390fd5b611da6838361331a565b905092915050565b6000600860009054906101000a900460ff1615611e33576040517f08c379a00000000000000000000000000000000000000000000000000000000081526004018080602001828103825260198152602001807f5061757361626c653a20636f6e7472616374207061757365640000000000000081525060200191505060405180910390fd5b611e3d8383613417565b905092915050565b600260009054906101000a900473ffffffffffffffffffffffffffffffffffffffff1673ffffffffffffffffffffffffffffffffffffffff163373ffffffffffffffffffffffffffffffffffffffff1614611eeb576040517f08c379a00000000000000000000000000000000000000000000000000000000081526004018080602001828103825260298152602001806139386029913960400191505060405180910390fd5b600660009054906101000a900460ff1615611f51576040517f08c379a0000000000000000000000000000000000000000000000000000000008152600401808060200182810382526022815260200180613a106022913960400191505060405180910390fd5b611f5b3382612bca565b3373ffffffffffffffffffffffffffffffffffffffff167f0f6798a560793a54c3bcfe86a93cde1e73087d944c0ea20544137d4121396885826040518082815260200191505060405180910390a250565b6000600460008473ffffffffffffffffffffffffffffffffffffffff1673ffffffffffffffffffffffffffffffffffffffff16815260200190815260200160002060008373ffffffffffffffffffffffffffffffffffffffff1673ffffffffffffffffffffffffffffffffffffffff16815260200190815260200160002054905092915050565b600260009054906101000a900473ffffffffffffffffffffffffffffffffffffffff1673ffffffffffffffffffffffffffffffffffffffff163373ffffffffffffffffffffffffffffffffffffffff16146120f6576040517f08c379a000000000000000000000000000000000000000000000000000000000815260040180806020018281038252601c8152602001807f4f776e61626c653a2073656e646572206973206e6f74206f776e65720000000081525060200191505060405180910390fd5b80600760008473ffffffffffffffffffffffffffffffffffffffff1673ffffffffffffffffffffffffffffffffffffffff16815260200190815260200160002060006101000a81548160ff0219169083151502179055507f48335238b4855f35377ed80f164e8c6f3c366e54ac00b96a6402d4a9814a03a58282604051808373ffffffffffffffffffffffffffffffffffffffff1673ffffffffffffffffffffffffffffffffffffffff168152602001821515151581526020019250505060405180910390a15050565b600860029054906101000a900460ff16806121df57506121de61342e565b5b806121f75750600860019054906101000a900460ff16155b61224c576040517f08c379a000000000000000000000000000000000000000000000000000000000815260040180806020018281038252602e815260200180613a32602e913960400191505060405180910390fd5b6000600860029054906101000a900460ff16159050801561229e576001600860026101000a81548160ff0219169083151502179055506001600860016101000a81548160ff0219169083151502179055505b85603b90805190602001906122b49291906137a2565b5084603c90805190602001906122cb9291906137a2565b5083603d81905550603d54600a0a603e81905550600860009054906101000a900460ff16156122fd576122fc6118c0565b5b612308600054611c4a565b612313600154610ff2565b61232182603e5485026112ee565b506123348261232f84611501565b610ea4565b5061233d611747565b5061234782612371565b8015612369576000600860026101000a81548160ff0219169083151502179055505b505050505050565b600260009054906101000a900473ffffffffffffffffffffffffffffffffffffffff1673ffffffffffffffffffffffffffffffffffffffff163373ffffffffffffffffffffffffffffffffffffffff1614612434576040517f08c379a000000000000000000000000000000000000000000000000000000000815260040180806020018281038252601c8152602001807f4f776e61626c653a2073656e646572206973206e6f74206f776e65720000000081525060200191505060405180910390fd5b61243d81613445565b50565b60008082840190508381101561245557600080fd5b8091505092915050565b600073ffffffffffffffffffffffffffffffffffffffff168273ffffffffffffffffffffffffffffffffffffffff1614156124e5576040517f08c379a000000000000000000000000000000000000000000000000000000000815260040180806020018281038252602c815260200180613994602c913960400191505060405180910390fd5b80600360008573ffffffffffffffffffffffffffffffffffffffff1673ffffffffffffffffffffffffffffffffffffffff16815260200190815260200160002054101561257d576040517f08c379a0000000000000000000000000000000000000000000000000000000008152600401808060200182810382526037815260200180613a606037913960400191505060405180910390fd5b600360008373ffffffffffffffffffffffffffffffffffffffff1673ffffffffffffffffffffffffffffffffffffffff1681526020019081526020016000205481600360008573ffffffffffffffffffffffffffffffffffffffff1673ffffffffffffffffffffffffffffffffffffffff16815260200190815260200160002054011015612656576040517f08c379a000000000000000000000000000000000000000000000000000000000815260040180806020018281038252603e8152602001806138fa603e913960400191505060405180910390fd5b600760008473ffffffffffffffffffffffffffffffffffffffff1673ffffffffffffffffffffffffffffffffffffffff16815260200190815260200160002060009054906101000a900460ff16156126f9576040517f08c379a00000000000000000000000000000000000000000000000000000000081526004018080602001828103825260278152602001806138486027913960400191505060405180910390fd5b600760008373ffffffffffffffffffffffffffffffffffffffff1673ffffffffffffffffffffffffffffffffffffffff16815260200190815260200160002060009054906101000a900460ff161561279c576040517f08c379a00000000000000000000000000000000000000000000000000000000081526004018080602001828103825260258152602001806138926025913960400191505060405180910390fd5b6127ee81600360008673ffffffffffffffffffffffffffffffffffffffff1673ffffffffffffffffffffffffffffffffffffffff1681526020019081526020016000205461358b90919063ffffffff16565b600360008573ffffffffffffffffffffffffffffffffffffffff1673ffffffffffffffffffffffffffffffffffffffff1681526020019081526020016000208190555061288381600360008573ffffffffffffffffffffffffffffffffffffffff1673ffffffffffffffffffffffffffffffffffffffff1681526020019081526020016000205461244090919063ffffffff16565b600360008473ffffffffffffffffffffffffffffffffffffffff1673ffffffffffffffffffffffffffffffffffffffff168152602001908152602001600020819055508173ffffffffffffffffffffffffffffffffffffffff168373ffffffffffffffffffffffffffffffffffffffff167fddf252ad1be2c89b69c2b068fc378daa952ba7f163c4a11628f55a4df523b3ef836040518082815260200191505060405180910390a3505050565b600061293d3384846135ab565b6001905092915050565b6000600460008573ffffffffffffffffffffffffffffffffffffffff1673ffffffffffffffffffffffffffffffffffffffff16815260200190815260200160002060003373ffffffffffffffffffffffffffffffffffffffff1673ffffffffffffffffffffffffffffffffffffffff16815260200190815260200160002054821115612a1e576040517f08c379a000000000000000000000000000000000000000000000000000000000815260040180806020018281038252602b8152602001806139e5602b913960400191505060405180910390fd5b612a2984848461245f565b612ac28433612abd85600460008a73ffffffffffffffffffffffffffffffffffffffff1673ffffffffffffffffffffffffffffffffffffffff16815260200190815260200160002060003373ffffffffffffffffffffffffffffffffffffffff1673ffffffffffffffffffffffffffffffffffffffff1681526020019081526020016000205461358b90919063ffffffff16565b6135ab565b600190509392505050565b6000808211612b27576040517f08c379a00000000000000000000000000000000000000000000000000000000081526004018080602001828103825260258152602001806139c06025913960400191505060405180910390fd5b612bc03384612bbb85600460003373ffffffffffffffffffffffffffffffffffffffff1673ffffffffffffffffffffffffffffffffffffffff16815260200190815260200160002060008973ffffffffffffffffffffffffffffffffffffffff1673ffffffffffffffffffffffffffffffffffffffff1681526020019081526020016000205461244090919063ffffffff16565b6135ab565b6001905092915050565b600073ffffffffffffffffffffffffffffffffffffffff168273ffffffffffffffffffffffffffffffffffffffff161415612c6d576040517f08c379a000000000000000000000000000000000000000000000000000000000815260040180806020018281038252601f8152602001807f45524332303a206d696e7420746f20746865207a65726f20616464726573730081525060200191505060405180910390fd5b60008111612cc6576040517f08c379a00000000000000000000000000000000000000000000000000000000081526004018080602001828103825260258152602001806139c06025913960400191505060405180910390fd5b612cdb8160055461244090919063ffffffff16565b600581905550612d3381600360008573ffffffffffffffffffffffffffffffffffffffff1673ffffffffffffffffffffffffffffffffffffffff1681526020019081526020016000205461244090919063ffffffff16565b600360008473ffffffffffffffffffffffffffffffffffffffff1673ffffffffffffffffffffffffffffffffffffffff168152602001908152602001600020819055508173ffffffffffffffffffffffffffffffffffffffff16600073ffffffffffffffffffffffffffffffffffffffff167fddf252ad1be2c89b69c2b068fc378daa952ba7f163c4a11628f55a4df523b3ef836040518082815260200191505060405180910390a35050565b600073ffffffffffffffffffffffffffffffffffffffff168273ffffffffffffffffffffffffffffffffffffffff161415612e66576040517f08c379a000000000000000000000000000000000000000000000000000000000815260040180806020018281038252602381526020018061386f6023913960400191505060405180910390fd5b60008111612ebf576040517f08c379a00000000000000000000000000000000000000000000000000000000081526004018080602001828103825260258152602001806139c06025913960400191505060405180910390fd5b600360008373ffffffffffffffffffffffffffffffffffffffff1673ffffffffffffffffffffffffffffffffffffffff16815260200190815260200160002054811115612f57576040517f08c379a000000000000000000000000000000000000000000000000000000000815260040180806020018281038252602b8152602001806139e5602b913960400191505060405180910390fd5b612f6c8160055461358b90919063ffffffff16565b600581905550612fc481600360008573ffffffffffffffffffffffffffffffffffffffff1673ffffffffffffffffffffffffffffffffffffffff1681526020019081526020016000205461358b90919063ffffffff16565b600360008473ffffffffffffffffffffffffffffffffffffffff1673ffffffffffffffffffffffffffffffffffffffff16815260200190815260200160002081905550600073ffffffffffffffffffffffffffffffffffffffff168273ffffffffffffffffffffffffffffffffffffffff167fddf252ad1be2c89b69c2b068fc378daa952ba7f163c4a11628f55a4df523b3ef836040518082815260200191505060405180910390a38173ffffffffffffffffffffffffffffffffffffffff167fcc16f5dbb4873280815c1ee09dbd06736cffcc184412cf7a71a0fdb75d397ca5826040518082815260200191505060405180910390a25050565b600073ffffffffffffffffffffffffffffffffffffffff168273ffffffffffffffffffffffffffffffffffffffff161415613145576040517f08c379a000000000000000000000000000000000000000000000000000000000815260040180806020018281038252602381526020018061386f6023913960400191505060405180910390fd5b6000811161319e576040517f08c379a00000000000000000000000000000000000000000000000000000000081526004018080602001828103825260258152602001806139c06025913960400191505060405180910390fd5b600460008373ffffffffffffffffffffffffffffffffffffffff1673ffffffffffffffffffffffffffffffffffffffff16815260200190815260200160002060003373ffffffffffffffffffffffffffffffffffffffff1673ffffffffffffffffffffffffffffffffffffffff16815260200190815260200160002054811115613273576040517f08c379a00000000000000000000000000000000000000000000000000000000081526004018080602001828103825260338152602001806139616033913960400191505060405180910390fd5b61327d8282612de0565b613316823361331184600460008873ffffffffffffffffffffffffffffffffffffffff1673ffffffffffffffffffffffffffffffffffffffff16815260200190815260200160002060003373ffffffffffffffffffffffffffffffffffffffff1673ffffffffffffffffffffffffffffffffffffffff1681526020019081526020016000205461358b90919063ffffffff16565b6135ab565b5050565b6000808211613374576040517f08c379a00000000000000000000000000000000000000000000000000000000081526004018080602001828103825260258152602001806139c06025913960400191505060405180910390fd5b61340d338461340885600460003373ffffffffffffffffffffffffffffffffffffffff1673ffffffffffffffffffffffffffffffffffffffff16815260200190815260200160002060008973ffffffffffffffffffffffffffffffffffffffff1673ffffffffffffffffffffffffffffffffffffffff1681526020019081526020016000205461358b90919063ffffffff16565b6135ab565b6001905092915050565b600061342433848461245f565b6001905092915050565b6000803090506000813b9050600081149250505090565b600073ffffffffffffffffffffffffffffffffffffffff168173ffffffffffffffffffffffffffffffffffffffff1614156134cb576040517f08c379a00000000000000000000000000000000000000000000000000000000081526004018080602001828103825260218152602001806138b76021913960400191505060405180910390fd5b80600260006101000a81548173ffffffffffffffffffffffffffffffffffffffff021916908373ffffffffffffffffffffffffffffffffffffffff1602179055508073ffffffffffffffffffffffffffffffffffffffff16600260009054906101000a900473ffffffffffffffffffffffffffffffffffffffff1673ffffffffffffffffffffffffffffffffffffffff167f8be0079c531659141344cd1fd0a4f28419497f9722a3daafe3b4186f6b6457e060405160405180910390a350565b60008282111561359a57600080fd5b600082840390508091505092915050565b600073ffffffffffffffffffffffffffffffffffffffff168373ffffffffffffffffffffffffffffffffffffffff161415613631576040517f08c379a0000000000000000000000000000000000000000000000000000000008152600401808060200182810382526024815260200180613a976024913960400191505060405180910390fd5b600073ffffffffffffffffffffffffffffffffffffffff168273ffffffffffffffffffffffffffffffffffffffff1614156136b7576040517f08c379a00000000000000000000000000000000000000000000000000000000081526004018080602001828103825260228152602001806138d86022913960400191505060405180910390fd5b80600460008573ffffffffffffffffffffffffffffffffffffffff1673ffffffffffffffffffffffffffffffffffffffff16815260200190815260200160002060008473ffffffffffffffffffffffffffffffffffffffff1673ffffffffffffffffffffffffffffffffffffffff168152602001908152602001600020819055508173ffffffffffffffffffffffffffffffffffffffff168373ffffffffffffffffffffffffffffffffffffffff167f8c5be1e5ebec7d5bd14f71427d1e84f3dd0314c0f7b2291e5b200ac8c7c3b925836040518082815260200191505060405180910390a3505050565b828054600181600116156101000203166002900490600052602060002090601f016020900481019282601f106137e357805160ff1916838001178555613811565b82800160010185558215613811579182015b828111156138105782518255916020019190600101906137f5565b5b50905061381e9190613822565b5090565b61384491905b80821115613840576000816000905550600101613828565b5090565b9056fe467265657a61626c65546f6b656e3a206163636f756e74205f66726f6d2069732066726f7a656e45524332303a207472616e7366657220746f20746865207a65726f2061646472657373467265657a61626c65546f6b656e3a206163636f756e74205f746f2069732066726f7a656e4f776e61626c653a207472616e7366657220746f207a65726f206164647265737345524332303a20617070726f766520746f20746865207a65726f2061646472657373467265657a61626c65546f6b656e3a2062616c616e636520746f206d75737420627220626967676572207468616e2063757272656e742062616c616e63654d696e7461626c65546f6b656e3a2073656e64657220686173206e6f74207065726d697373696f6e7345524332303a206163636f756e7420616c6c6f7765642062616c616e6365206973206c6f776572207468616e20616d6f756e74467265657a61626c65546f6b656e3a207472616e7366657220746f20746865207a65726f206164647265737345524332303a2076616c7565206d75737420626520626967676572207468616e207a65726f45524332303a206163636f756e742062616c616e6365206973206c6f776572207468616e20616d6f756e744d696e7461626c65546f6b656e3a206d696e74696e672069732066696e6973686564436f6e747261637420696e7374616e63652068617320616c7265616479206265656e20696e697469616c697a6564467265657a61626c65546f6b656e3a2062616c616e6365205f66726f6d206d75737420627220626967676572207468616e2076616c756545524332303a20617070726f76652066726f6d20746865207a65726f2061646472657373a265627a7a723158208a0ec8633f67d8f9ed0d2ccd23bbe190dfeaeea8b0eabffe213d00ed38742d7664736f6c634300051100324f776e61626c653a207472616e7366657220746f207a65726f206164647265737345524332303a20617070726f766520746f20746865207a65726f20616464726573734d696e7461626c65546f6b656e3a2073656e64657220686173206e6f74207065726d697373696f6e7345524332303a2076616c7565206d75737420626520626967676572207468616e207a65726f4d696e7461626c65546f6b656e3a206d696e74696e672069732066696e6973686564436f6e747261637420696e7374616e63652068617320616c7265616479206265656e20696e697469616c697a656445524332303a20617070726f76652066726f6d20746865207a65726f2061646472657373",
  "compiler": {
    "name": "solc",
    "version": "0.5.17+commit.d19bba13.Emscripten.clang",
    "optimizer": {
      "enabled": false,
      "runs": 200
    },
    "evmVersion": "petersburg"
  }
}