{
  "fileName": "Esillium.sol",
  "contractName": "Esillium",
  "source": "pragma solidity >0.5.8 <0.6.0;\n\nimport \"./MainContract.sol\";\n\ncontract Esillium is MainContract {\n    function initialize() initializer public {\n        MainContract.initialize('Esillium', '8YB', 5, 700000000, 0x158ad714bc7BEeaD490960eCB382717FA36Ef926);\n      }\n}\n",
  "sourcePath": "contracts/Esillium.sol",
  "abi": [
    {
      "anonymous": false,
      "inputs": [
        {
          "indexed": true,
          "internalType": "address",
          "name": "tokenOwner",
          "type": "address"
        },
        {
          "indexed": true,
          "internalType": "address",
          "name": "spender",
          "type": "address"
        },
        {
          "indexed": false,
          "internalType": "uint256",
          "name": "value",
          "type": "uint256"
        }
      ],
      "name": "Approval",
      "type": "event"
    },
    {
      "anonymous": false,
      "inputs": [
        {
          "indexed": true,
          "internalType": "address",
          "name": "burner",
          "type": "address"
        },
        {
          "indexed": false,
          "internalType": "uint256",
          "name": "value",
          "type": "uint256"
        }
      ],
      "name": "Burn",
      "type": "event"
    },
    {
      "anonymous": false,
      "inputs": [
        {
          "indexed": false,
          "internalType": "address",
          "name": "target",
          "type": "address"
        },
        {
          "indexed": false,
          "internalType": "bool",
          "name": "frozen",
          "type": "bool"
        }
      ],
      "name": "FrozenFunds",
      "type": "event"
    },
    {
      "anonymous": false,
      "inputs": [
        {
          "indexed": true,
          "internalType": "address",
          "name": "to",
          "type": "address"
        },
        {
          "indexed": false,
          "internalType": "uint256",
          "name": "amount",
          "type": "uint256"
        }
      ],
      "name": "Mint",
      "type": "event"
    },
    {
      "anonymous": false,
      "inputs": [],
      "name": "MintFinished",
      "type": "event"
    },
    {
      "anonymous": false,
      "inputs": [],
      "name": "MintStarted",
      "type": "event"
    },
    {
      "anonymous": false,
      "inputs": [
        {
          "indexed": true,
          "internalType": "address",
          "name": "previousOwner",
          "type": "address"
        }
      ],
      "name": "OwnershipRenounced",
      "type": "event"
    },
    {
      "anonymous": false,
      "inputs": [
        {
          "indexed": true,
          "internalType": "address",
          "name": "previousOwner",
          "type": "address"
        },
        {
          "indexed": true,
          "internalType": "address",
          "name": "newOwner",
          "type": "address"
        }
      ],
      "name": "OwnershipTransferred",
      "type": "event"
    },
    {
      "anonymous": false,
      "inputs": [],
      "name": "Pause",
      "type": "event"
    },
    {
      "anonymous": false,
      "inputs": [
        {
          "indexed": true,
          "internalType": "address",
          "name": "from",
          "type": "address"
        },
        {
          "indexed": true,
          "internalType": "address",
          "name": "to",
          "type": "address"
        },
        {
          "indexed": false,
          "internalType": "uint256",
          "name": "value",
          "type": "uint256"
        }
      ],
      "name": "Transfer",
      "type": "event"
    },
    {
      "anonymous": false,
      "inputs": [],
      "name": "Unpause",
      "type": "event"
    },
    {
      "payable": true,
      "stateMutability": "payable",
      "type": "fallback"
    },
    {
      "constant": false,
      "inputs": [
        {
          "internalType": "uint256",
          "name": "_amount",
          "type": "uint256"
        }
      ],
      "name": "addTokens",
      "outputs": [],
      "payable": false,
      "stateMutability": "nonpayable",
      "type": "function"
    },
    {
      "constant": true,
      "inputs": [
        {
          "internalType": "address",
          "name": "owner",
          "type": "address"
        },
        {
          "internalType": "address",
          "name": "spender",
          "type": "address"
        }
      ],
      "name": "allowance",
      "outputs": [
        {
          "internalType": "uint256",
          "name": "",
          "type": "uint256"
        }
      ],
      "payable": false,
      "stateMutability": "view",
      "type": "function"
    },
    {
      "constant": false,
      "inputs": [
        {
          "internalType": "address",
          "name": "spender",
          "type": "address"
        },
        {
          "internalType": "uint256",
          "name": "value",
          "type": "uint256"
        }
      ],
      "name": "approve",
      "outputs": [
        {
          "internalType": "bool",
          "name": "",
          "type": "bool"
        }
      ],
      "payable": false,
      "stateMutability": "nonpayable",
      "type": "function"
    },
    {
      "constant": true,
      "inputs": [
        {
          "internalType": "address",
          "name": "owner",
          "type": "address"
        }
      ],
      "name": "balanceOf",
      "outputs": [
        {
          "internalType": "uint256",
          "name": "",
          "type": "uint256"
        }
      ],
      "payable": false,
      "stateMutability": "view",
      "type": "function"
    },
    {
      "constant": false,
      "inputs": [
        {
          "internalType": "uint256",
          "name": "_value",
          "type": "uint256"
        }
      ],
      "name": "burn",
      "outputs": [],
      "payable": false,
      "stateMutability": "nonpayable",
      "type": "function"
    },
    {
      "constant": false,
      "inputs": [
        {
          "internalType": "address",
          "name": "account",
          "type": "address"
        },
        {
          "internalType": "uint256",
          "name": "_value",
          "type": "uint256"
        }
      ],
      "name": "burnFrom",
      "outputs": [],
      "payable": false,
      "stateMutability": "nonpayable",
      "type": "function"
    },
    {
      "constant": true,
      "inputs": [],
      "name": "decimals",
      "outputs": [
        {
          "internalType": "uint256",
          "name": "",
          "type": "uint256"
        }
      ],
      "payable": false,
      "stateMutability": "view",
      "type": "function"
    },
    {
      "constant": false,
      "inputs": [
        {
          "internalType": "address",
          "name": "spender",
          "type": "address"
        },
        {
          "internalType": "uint256",
          "name": "subtractedValue",
          "type": "uint256"
        }
      ],
      "name": "decreaseAllowance",
      "outputs": [
        {
          "internalType": "bool",
          "name": "",
          "type": "bool"
        }
      ],
      "payable": false,
      "stateMutability": "nonpayable",
      "type": "function"
    },
    {
      "constant": false,
      "inputs": [],
      "name": "finishMinting",
      "outputs": [
        {
          "internalType": "bool",
          "name": "",
          "type": "bool"
        }
      ],
      "payable": false,
      "stateMutability": "nonpayable",
      "type": "function"
    },
    {
      "constant": false,
      "inputs": [
        {
          "internalType": "address",
          "name": "target",
          "type": "address"
        },
        {
          "internalType": "bool",
          "name": "freeze",
          "type": "bool"
        }
      ],
      "name": "freezeAccount",
      "outputs": [],
      "payable": false,
      "stateMutability": "nonpayable",
      "type": "function"
    },
    {
      "constant": true,
      "inputs": [
        {
          "internalType": "address",
          "name": "",
          "type": "address"
        }
      ],
      "name": "frozenAccounts",
      "outputs": [
        {
          "internalType": "bool",
          "name": "",
          "type": "bool"
        }
      ],
      "payable": false,
      "stateMutability": "view",
      "type": "function"
    },
    {
      "constant": false,
      "inputs": [
        {
          "internalType": "address",
          "name": "spender",
          "type": "address"
        },
        {
          "internalType": "uint256",
          "name": "addedValue",
          "type": "uint256"
        }
      ],
      "name": "increaseAllowance",
      "outputs": [
        {
          "internalType": "bool",
          "name": "",
          "type": "bool"
        }
      ],
      "payable": false,
      "stateMutability": "nonpayable",
      "type": "function"
    },
    {
      "constant": false,
      "inputs": [
        {
          "internalType": "string",
          "name": "name",
          "type": "string"
        },
        {
          "internalType": "string",
          "name": "symbol",
          "type": "string"
        },
        {
          "internalType": "uint256",
          "name": "decimals",
          "type": "uint256"
        },
        {
          "internalType": "uint256",
          "name": "totalSupply",
          "type": "uint256"
        },
        {
          "internalType": "address",
          "name": "owner",
          "type": "address"
        }
      ],
      "name": "initialize",
      "outputs": [],
      "payable": false,
      "stateMutability": "nonpayable",
      "type": "function"
    },
    {
      "constant": false,
      "inputs": [],
      "name": "initialize",
      "outputs": [],
      "payable": false,
      "stateMutability": "nonpayable",
      "type": "function"
    },
    {
      "constant": false,
      "inputs": [
        {
          "internalType": "address",
          "name": "_to",
          "type": "address"
        },
        {
          "internalType": "uint256",
          "name": "_amount",
          "type": "uint256"
        }
      ],
      "name": "mint",
      "outputs": [
        {
          "internalType": "bool",
          "name": "",
          "type": "bool"
        }
      ],
      "payable": false,
      "stateMutability": "nonpayable",
      "type": "function"
    },
    {
      "constant": true,
      "inputs": [],
      "name": "mintingFinished",
      "outputs": [
        {
          "internalType": "bool",
          "name": "",
          "type": "bool"
        }
      ],
      "payable": false,
      "stateMutability": "view",
      "type": "function"
    },
    {
      "constant": true,
      "inputs": [],
      "name": "name",
      "outputs": [
        {
          "internalType": "string",
          "name": "",
          "type": "string"
        }
      ],
      "payable": false,
      "stateMutability": "view",
      "type": "function"
    },
    {
      "constant": true,
      "inputs": [],
      "name": "owner",
      "outputs": [
        {
          "internalType": "address",
          "name": "",
          "type": "address"
        }
      ],
      "payable": false,
      "stateMutability": "view",
      "type": "function"
    },
    {
      "constant": false,
      "inputs": [],
      "name": "pause",
      "outputs": [],
      "payable": false,
      "stateMutability": "nonpayable",
      "type": "function"
    },
    {
      "constant": true,
      "inputs": [],
      "name": "paused",
      "outputs": [
        {
          "internalType": "bool",
          "name": "",
          "type": "bool"
        }
      ],
      "payable": false,
      "stateMutability": "view",
      "type": "function"
    },
    {
      "constant": false,
      "inputs": [],
      "name": "renounceOwnership",
      "outputs": [],
      "payable": false,
      "stateMutability": "nonpayable",
      "type": "function"
    },
    {
      "constant": false,
      "inputs": [],
      "name": "startMinting",
      "outputs": [
        {
          "internalType": "bool",
          "name": "",
          "type": "bool"
        }
      ],
      "payable": false,
      "stateMutability": "nonpayable",
      "type": "function"
    },
    {
      "constant": true,
      "inputs": [],
      "name": "symbol",
      "outputs": [
        {
          "internalType": "string",
          "name": "",
          "type": "string"
        }
      ],
      "payable": false,
      "stateMutability": "view",
      "type": "function"
    },
    {
      "constant": true,
      "inputs": [],
      "name": "totalSupply",
      "outputs": [
        {
          "internalType": "uint256",
          "name": "",
          "type": "uint256"
        }
      ],
      "payable": false,
      "stateMutability": "view",
      "type": "function"
    },
    {
      "constant": false,
      "inputs": [
        {
          "internalType": "address",
          "name": "_to",
          "type": "address"
        },
        {
          "internalType": "uint256",
          "name": "value",
          "type": "uint256"
        }
      ],
      "name": "transfer",
      "outputs": [
        {
          "internalType": "bool",
          "name": "_success",
          "type": "bool"
        }
      ],
      "payable": false,
      "stateMutability": "nonpayable",
      "type": "function"
    },
    {
      "constant": false,
      "inputs": [
        {
          "internalType": "address",
          "name": "_from",
          "type": "address"
        },
        {
          "internalType": "address",
          "name": "_to",
          "type": "address"
        },
        {
          "internalType": "uint256",
          "name": "value",
          "type": "uint256"
        }
      ],
      "name": "transferFrom",
      "outputs": [
        {
          "internalType": "bool",
          "name": "_success",
          "type": "bool"
        }
      ],
      "payable": false,
      "stateMutability": "nonpayable",
      "type": "function"
    },
    {
      "constant": false,
      "inputs": [
        {
          "internalType": "address",
          "name": "_newOwner",
          "type": "address"
        }
      ],
      "name": "transferOwnership",
      "outputs": [],
      "payable": false,
      "stateMutability": "nonpayable",
      "type": "function"
    },
    {
      "constant": false,
      "inputs": [],
      "name": "unpause",
      "outputs": [],
      "payable": false,
      "stateMutability": "nonpayable",
      "type": "function"
    }
  ],
  "bytecode": "0x60806040526000600460006101000a81548160ff0219169083151502179055506000600660006101000a81548160ff02191690831515021790555034801561004657600080fd5b5061378f806100566000396000f3fe6080604052600436106101b75760003560e01c806379cc6790116100ec5780639a65ea261161008a578063c6ed899011610064578063c6ed899014610a6a578063dd62ed3e14610aa5578063e724529c14610b2a578063f2fde38b14610b87576101b7565b80639a65ea2614610955578063a457c2d714610984578063a9059cbb146109f7576101b7565b80638456cb59116100c65780638456cb59146107ee578063860838a5146108055780638da5cb5b1461086e57806395d89b41146108c5576101b7565b806379cc67901461074d5780637d64bcb4146107a85780638129fc1c146107d7576101b7565b8063395093511161015957806342966c681161013357806342966c68146106675780635c975abb146106a257806370a08231146106d1578063715018a614610736576101b7565b8063395093511461056a5780633f4ba83a146105dd57806340c10f19146105f4576101b7565b806318160ddd1161019557806318160ddd146102ee57806323b872dd14610319578063313ce567146103ac57806333eea181146103d7576101b7565b806305d2035b146101bc57806306fdde03146101eb578063095ea7b31461027b575b600080fd5b3480156101c857600080fd5b506101d1610bd8565b604051808215151515815260200191505060405180910390f35b3480156101f757600080fd5b50610200610beb565b6040518080602001828103825283818151815260200191508051906020019080838360005b83811015610240578082015181840152602081019050610225565b50505050905090810190601f16801561026d5780820380516001836020036101000a031916815260200191505b509250505060405180910390f35b34801561028757600080fd5b506102d46004803603604081101561029e57600080fd5b81019080803573ffffffffffffffffffffffffffffffffffffffff16906020019092919080359060200190929190505050610c8d565b604051808215151515815260200191505060405180910390f35b3480156102fa57600080fd5b50610303610d24565b6040518082815260200191505060405180910390f35b34801561032557600080fd5b506103926004803603606081101561033c57600080fd5b81019080803573ffffffffffffffffffffffffffffffffffffffff169060200190929190803573ffffffffffffffffffffffffffffffffffffffff16906020019092919080359060200190929190505050610d2e565b604051808215151515815260200191505060405180910390f35b3480156103b857600080fd5b506103c1610dc7565b6040518082815260200191505060405180910390f35b3480156103e357600080fd5b50610568600480360360a08110156103fa57600080fd5b810190808035906020019064010000000081111561041757600080fd5b82018360208201111561042957600080fd5b8035906020019184600183028401116401000000008311171561044b57600080fd5b91908080601f016020809104026020016040519081016040528093929190818152602001838380828437600081840152601f19601f820116905080830192505050505050509192919290803590602001906401000000008111156104ae57600080fd5b8201836020820111156104c057600080fd5b803590602001918460018302840111640100000000831117156104e257600080fd5b91908080601f016020809104026020016040519081016040528093929190818152602001838380828437600081840152601f19601f8201169050808301925050505050505091929192908035906020019092919080359060200190929190803573ffffffffffffffffffffffffffffffffffffffff169060200190929190505050610dd1565b005b34801561057657600080fd5b506105c36004803603604081101561058d57600080fd5b81019080803573ffffffffffffffffffffffffffffffffffffffff16906020019092919080359060200190929190505050610e62565b604051808215151515815260200191505060405180910390f35b3480156105e957600080fd5b506105f2610ef9565b005b34801561060057600080fd5b5061064d6004803603604081101561061757600080fd5b81019080803573ffffffffffffffffffffffffffffffffffffffff16906020019092919080359060200190929190505050611086565b604051808215151515815260200191505060405180910390f35b34801561067357600080fd5b506106a06004803603602081101561068a57600080fd5b81019080803590602001909291905050506111f5565b005b3480156106ae57600080fd5b506106b7611285565b604051808215151515815260200191505060405180910390f35b3480156106dd57600080fd5b50610720600480360360208110156106f457600080fd5b81019080803573ffffffffffffffffffffffffffffffffffffffff169060200190929190505050611298565b6040518082815260200191505060405180910390f35b34801561074257600080fd5b5061074b6112e1565b005b34801561075957600080fd5b506107a66004803603604081101561077057600080fd5b81019080803573ffffffffffffffffffffffffffffffffffffffff1690602001909291908035906020019092919050505061144a565b005b3480156107b457600080fd5b506107bd6114db565b604051808215151515815260200191505060405180910390f35b3480156107e357600080fd5b506107ec611653565b005b3480156107fa57600080fd5b506108036117e6565b005b34801561081157600080fd5b506108546004803603602081101561082857600080fd5b81019080803573ffffffffffffffffffffffffffffffffffffffff169060200190929190505050611974565b604051808215151515815260200191505060405180910390f35b34801561087a57600080fd5b50610883611994565b604051808273ffffffffffffffffffffffffffffffffffffffff1673ffffffffffffffffffffffffffffffffffffffff16815260200191505060405180910390f35b3480156108d157600080fd5b506108da6119b9565b6040518080602001828103825283818151815260200191508051906020019080838360005b8381101561091a5780820151818401526020810190506108ff565b50505050905090810190601f1680156109475780820380516001836020036101000a031916815260200191505b509250505060405180910390f35b34801561096157600080fd5b5061096a611a5b565b604051808215151515815260200191505060405180910390f35b34801561099057600080fd5b506109dd600480360360408110156109a757600080fd5b81019080803573ffffffffffffffffffffffffffffffffffffffff16906020019092919080359060200190929190505050611b6d565b604051808215151515815260200191505060405180910390f35b348015610a0357600080fd5b50610a5060048036036040811015610a1a57600080fd5b81019080803573ffffffffffffffffffffffffffffffffffffffff16906020019092919080359060200190929190505050611c04565b604051808215151515815260200191505060405180910390f35b348015610a7657600080fd5b50610aa360048036036020811015610a8d57600080fd5b8101908080359060200190929190505050611c9b565b005b348015610ab157600080fd5b50610b1460048036036040811015610ac857600080fd5b81019080803573ffffffffffffffffffffffffffffffffffffffff169060200190929190803573ffffffffffffffffffffffffffffffffffffffff169060200190929190505050611e01565b6040518082815260200191505060405180910390f35b348015610b3657600080fd5b50610b8560048036036040811015610b4d57600080fd5b81019080803573ffffffffffffffffffffffffffffffffffffffff169060200190929190803515159060200190929190505050611e88565b005b348015610b9357600080fd5b50610bd660048036036020811015610baa57600080fd5b81019080803573ffffffffffffffffffffffffffffffffffffffff169060200190929190505050612014565b005b600460009054906101000a900460ff1681565b606060398054600181600116156101000203166002900480601f016020809104026020016040519081016040528092919081815260200182805460018160011615610100020316600290048015610c835780601f10610c5857610100808354040283529160200191610c83565b820191906000526020600020905b815481529060010190602001808311610c6657829003601f168201915b5050505050905090565b6000600660009054906101000a900460ff1615610d12576040517f08c379a00000000000000000000000000000000000000000000000000000000081526004018080602001828103825260198152602001807f5061757361626c653a20636f6e7472616374207061757365640000000000000081525060200191505060405180910390fd5b610d1c83836120e2565b905092915050565b6000600354905090565b6000600660009054906101000a900460ff1615610db3576040517f08c379a00000000000000000000000000000000000000000000000000000000081526004018080602001828103825260198152602001807f5061757361626c653a20636f6e7472616374207061757365640000000000000081525060200191505060405180910390fd5b610dbe8484846120f9565b90509392505050565b6000603b54905090565b8460399080519060200190610de7929190613442565b5083603a9080519060200190610dfe929190613442565b5082603b81905550603b54600a0a603c81905550600660009054906101000a900460ff1615610e3057610e2f6117e6565b5b610e3e81603c548402611086565b50610e528182610e4d84611298565b61227f565b610e5b81612014565b5050505050565b6000600660009054906101000a900460ff1615610ee7576040517f08c379a00000000000000000000000000000000000000000000000000000000081526004018080602001828103825260198152602001807f5061757361626c653a20636f6e7472616374207061757365640000000000000081525060200191505060405180910390fd5b610ef18383612476565b905092915050565b6000809054906101000a900473ffffffffffffffffffffffffffffffffffffffff1673ffffffffffffffffffffffffffffffffffffffff163373ffffffffffffffffffffffffffffffffffffffff1614610fbb576040517f08c379a000000000000000000000000000000000000000000000000000000000815260040180806020018281038252601c8152602001807f4f776e61626c653a2073656e646572206973206e6f74206f776e65720000000081525060200191505060405180910390fd5b600660009054906101000a900460ff1661103d576040517f08c379a000000000000000000000000000000000000000000000000000000000815260040180806020018281038252601d8152602001807f5061757361626c653a20636f6e7472616374206e6f742070617573656400000081525060200191505060405180910390fd5b6000600660006101000a81548160ff0219169083151502179055507f7805862f689e2f13df9f062ff482ad3ad112aca9e0847911ed832e158c525b3360405160405180910390a1565b60008060009054906101000a900473ffffffffffffffffffffffffffffffffffffffff1673ffffffffffffffffffffffffffffffffffffffff163373ffffffffffffffffffffffffffffffffffffffff161461112d576040517f08c379a00000000000000000000000000000000000000000000000000000000081526004018080602001828103825260298152602001806135d86029913960400191505060405180910390fd5b600460009054906101000a900460ff1615611193576040517f08c379a00000000000000000000000000000000000000000000000000000000081526004018080602001828103825260228152602001806136b06022913960400191505060405180910390fd5b61119d8383612573565b8273ffffffffffffffffffffffffffffffffffffffff167f0f6798a560793a54c3bcfe86a93cde1e73087d944c0ea20544137d4121396885836040518082815260200191505060405180910390a26001905092915050565b600660009054906101000a900460ff1615611278576040517f08c379a00000000000000000000000000000000000000000000000000000000081526004018080602001828103825260198152602001807f5061757361626c653a20636f6e7472616374207061757365640000000000000081525060200191505060405180910390fd5b6112823382612789565b50565b600660009054906101000a900460ff1681565b6000600160008373ffffffffffffffffffffffffffffffffffffffff1673ffffffffffffffffffffffffffffffffffffffff168152602001908152602001600020549050919050565b6000809054906101000a900473ffffffffffffffffffffffffffffffffffffffff1673ffffffffffffffffffffffffffffffffffffffff163373ffffffffffffffffffffffffffffffffffffffff16146113a3576040517f08c379a000000000000000000000000000000000000000000000000000000000815260040180806020018281038252601c8152602001807f4f776e61626c653a2073656e646572206973206e6f74206f776e65720000000081525060200191505060405180910390fd5b60008060006101000a81548173ffffffffffffffffffffffffffffffffffffffff021916908373ffffffffffffffffffffffffffffffffffffffff1602179055506000809054906101000a900473ffffffffffffffffffffffffffffffffffffffff1673ffffffffffffffffffffffffffffffffffffffff167ff8df31144d9c2f0f6b59d69b8b98abd5459d07f2742c4df920b25aae33c6482060405160405180910390a2565b600660009054906101000a900460ff16156114cd576040517f08c379a00000000000000000000000000000000000000000000000000000000081526004018080602001828103825260198152602001807f5061757361626c653a20636f6e7472616374207061757365640000000000000081525060200191505060405180910390fd5b6114d78282612a68565b5050565b60008060009054906101000a900473ffffffffffffffffffffffffffffffffffffffff1673ffffffffffffffffffffffffffffffffffffffff163373ffffffffffffffffffffffffffffffffffffffff161461159f576040517f08c379a000000000000000000000000000000000000000000000000000000000815260040180806020018281038252601c8152602001807f4f776e61626c653a2073656e646572206973206e6f74206f776e65720000000081525060200191505060405180910390fd5b600460009054906101000a900460ff1615611605576040517f08c379a00000000000000000000000000000000000000000000000000000000081526004018080602001828103825260228152602001806136b06022913960400191505060405180910390fd5b6001600460006101000a81548160ff0219169083151502179055507fae5184fba832cb2b1f702aca6117b8d265eaf03ad33eb133f19dde0f5920fa0860405160405180910390a16001905090565b600660029054906101000a900460ff16806116725750611671612cc3565b5b8061168a5750600660019054906101000a900460ff16155b6116df576040517f08c379a000000000000000000000000000000000000000000000000000000000815260040180806020018281038252602e8152602001806136d2602e913960400191505060405180910390fd5b6000600660029054906101000a900460ff161590508015611731576001600660026101000a81548160ff0219169083151502179055506001600660016101000a81548160ff0219169083151502179055505b6117c16040518060400160405280600881526020017f4573696c6c69756d0000000000000000000000000000000000000000000000008152506040518060400160405280600381526020017f385942000000000000000000000000000000000000000000000000000000000081525060056329b9270073158ad714bc7beead490960ecb382717fa36ef926610dd1565b80156117e3576000600660026101000a81548160ff0219169083151502179055505b50565b6000809054906101000a900473ffffffffffffffffffffffffffffffffffffffff1673ffffffffffffffffffffffffffffffffffffffff163373ffffffffffffffffffffffffffffffffffffffff16146118a8576040517f08c379a000000000000000000000000000000000000000000000000000000000815260040180806020018281038252601c8152602001807f4f776e61626c653a2073656e646572206973206e6f74206f776e65720000000081525060200191505060405180910390fd5b600660009054906101000a900460ff161561192b576040517f08c379a00000000000000000000000000000000000000000000000000000000081526004018080602001828103825260198152602001807f5061757361626c653a20636f6e7472616374207061757365640000000000000081525060200191505060405180910390fd5b6001600660006101000a81548160ff0219169083151502179055507f6985a02210a168e66602d3235cb6db0e70f92b3ba4d376a33c0f3d9434bff62560405160405180910390a1565b60056020528060005260406000206000915054906101000a900460ff1681565b6000809054906101000a900473ffffffffffffffffffffffffffffffffffffffff1681565b6060603a8054600181600116156101000203166002900480601f016020809104026020016040519081016040528092919081815260200182805460018160011615610100020316600290048015611a515780601f10611a2657610100808354040283529160200191611a51565b820191906000526020600020905b815481529060010190602001808311611a3457829003601f168201915b5050505050905090565b60008060009054906101000a900473ffffffffffffffffffffffffffffffffffffffff1673ffffffffffffffffffffffffffffffffffffffff163373ffffffffffffffffffffffffffffffffffffffff1614611b1f576040517f08c379a000000000000000000000000000000000000000000000000000000000815260040180806020018281038252601c8152602001807f4f776e61626c653a2073656e646572206973206e6f74206f776e65720000000081525060200191505060405180910390fd5b6000600460006101000a81548160ff0219169083151502179055507f452a344f03203071e1daf66e007976c85cb2380deabf1c91f3c4fb1fca41204960405160405180910390a16001905090565b6000600660009054906101000a900460ff1615611bf2576040517f08c379a00000000000000000000000000000000000000000000000000000000081526004018080602001828103825260198152602001807f5061757361626c653a20636f6e7472616374207061757365640000000000000081525060200191505060405180910390fd5b611bfc8383612cda565b905092915050565b6000600660009054906101000a900460ff1615611c89576040517f08c379a00000000000000000000000000000000000000000000000000000000081526004018080602001828103825260198152602001807f5061757361626c653a20636f6e7472616374207061757365640000000000000081525060200191505060405180910390fd5b611c938383612dd7565b905092915050565b6000809054906101000a900473ffffffffffffffffffffffffffffffffffffffff1673ffffffffffffffffffffffffffffffffffffffff163373ffffffffffffffffffffffffffffffffffffffff1614611d40576040517f08c379a00000000000000000000000000000000000000000000000000000000081526004018080602001828103825260298152602001806135d86029913960400191505060405180910390fd5b600460009054906101000a900460ff1615611da6576040517f08c379a00000000000000000000000000000000000000000000000000000000081526004018080602001828103825260228152602001806136b06022913960400191505060405180910390fd5b611db03382612573565b3373ffffffffffffffffffffffffffffffffffffffff167f0f6798a560793a54c3bcfe86a93cde1e73087d944c0ea20544137d4121396885826040518082815260200191505060405180910390a250565b6000600260008473ffffffffffffffffffffffffffffffffffffffff1673ffffffffffffffffffffffffffffffffffffffff16815260200190815260200160002060008373ffffffffffffffffffffffffffffffffffffffff1673ffffffffffffffffffffffffffffffffffffffff16815260200190815260200160002054905092915050565b6000809054906101000a900473ffffffffffffffffffffffffffffffffffffffff1673ffffffffffffffffffffffffffffffffffffffff163373ffffffffffffffffffffffffffffffffffffffff1614611f4a576040517f08c379a000000000000000000000000000000000000000000000000000000000815260040180806020018281038252601c8152602001807f4f776e61626c653a2073656e646572206973206e6f74206f776e65720000000081525060200191505060405180910390fd5b80600560008473ffffffffffffffffffffffffffffffffffffffff1673ffffffffffffffffffffffffffffffffffffffff16815260200190815260200160002060006101000a81548160ff0219169083151502179055507f48335238b4855f35377ed80f164e8c6f3c366e54ac00b96a6402d4a9814a03a58282604051808373ffffffffffffffffffffffffffffffffffffffff1673ffffffffffffffffffffffffffffffffffffffff168152602001821515151581526020019250505060405180910390a15050565b6000809054906101000a900473ffffffffffffffffffffffffffffffffffffffff1673ffffffffffffffffffffffffffffffffffffffff163373ffffffffffffffffffffffffffffffffffffffff16146120d6576040517f08c379a000000000000000000000000000000000000000000000000000000000815260040180806020018281038252601c8152602001807f4f776e61626c653a2073656e646572206973206e6f74206f776e65720000000081525060200191505060405180910390fd5b6120df81612dee565b50565b60006120ef33848461227f565b6001905092915050565b6000600260008573ffffffffffffffffffffffffffffffffffffffff1673ffffffffffffffffffffffffffffffffffffffff16815260200190815260200160002060003373ffffffffffffffffffffffffffffffffffffffff1673ffffffffffffffffffffffffffffffffffffffff168152602001908152602001600020548211156121d0576040517f08c379a000000000000000000000000000000000000000000000000000000000815260040180806020018281038252602b815260200180613685602b913960400191505060405180910390fd5b6121db848484612f32565b612274843361226f85600260008a73ffffffffffffffffffffffffffffffffffffffff1673ffffffffffffffffffffffffffffffffffffffff16815260200190815260200160002060003373ffffffffffffffffffffffffffffffffffffffff1673ffffffffffffffffffffffffffffffffffffffff1681526020019081526020016000205461340390919063ffffffff16565b61227f565b600190509392505050565b600073ffffffffffffffffffffffffffffffffffffffff168373ffffffffffffffffffffffffffffffffffffffff161415612305576040517f08c379a00000000000000000000000000000000000000000000000000000000081526004018080602001828103825260248152602001806137376024913960400191505060405180910390fd5b600073ffffffffffffffffffffffffffffffffffffffff168273ffffffffffffffffffffffffffffffffffffffff16141561238b576040517f08c379a00000000000000000000000000000000000000000000000000000000081526004018080602001828103825260228152602001806135786022913960400191505060405180910390fd5b80600260008573ffffffffffffffffffffffffffffffffffffffff1673ffffffffffffffffffffffffffffffffffffffff16815260200190815260200160002060008473ffffffffffffffffffffffffffffffffffffffff1673ffffffffffffffffffffffffffffffffffffffff168152602001908152602001600020819055508173ffffffffffffffffffffffffffffffffffffffff168373ffffffffffffffffffffffffffffffffffffffff167f8c5be1e5ebec7d5bd14f71427d1e84f3dd0314c0f7b2291e5b200ac8c7c3b925836040518082815260200191505060405180910390a3505050565b60008082116124d0576040517f08c379a00000000000000000000000000000000000000000000000000000000081526004018080602001828103825260258152602001806136606025913960400191505060405180910390fd5b612569338461256485600260003373ffffffffffffffffffffffffffffffffffffffff1673ffffffffffffffffffffffffffffffffffffffff16815260200190815260200160002060008973ffffffffffffffffffffffffffffffffffffffff1673ffffffffffffffffffffffffffffffffffffffff1681526020019081526020016000205461342390919063ffffffff16565b61227f565b6001905092915050565b600073ffffffffffffffffffffffffffffffffffffffff168273ffffffffffffffffffffffffffffffffffffffff161415612616576040517f08c379a000000000000000000000000000000000000000000000000000000000815260040180806020018281038252601f8152602001807f45524332303a206d696e7420746f20746865207a65726f20616464726573730081525060200191505060405180910390fd5b6000811161266f576040517f08c379a00000000000000000000000000000000000000000000000000000000081526004018080602001828103825260258152602001806136606025913960400191505060405180910390fd5b6126848160035461342390919063ffffffff16565b6003819055506126dc81600160008573ffffffffffffffffffffffffffffffffffffffff1673ffffffffffffffffffffffffffffffffffffffff1681526020019081526020016000205461342390919063ffffffff16565b600160008473ffffffffffffffffffffffffffffffffffffffff1673ffffffffffffffffffffffffffffffffffffffff168152602001908152602001600020819055508173ffffffffffffffffffffffffffffffffffffffff16600073ffffffffffffffffffffffffffffffffffffffff167fddf252ad1be2c89b69c2b068fc378daa952ba7f163c4a11628f55a4df523b3ef836040518082815260200191505060405180910390a35050565b600073ffffffffffffffffffffffffffffffffffffffff168273ffffffffffffffffffffffffffffffffffffffff16141561280f576040517f08c379a000000000000000000000000000000000000000000000000000000000815260040180806020018281038252602381526020018061350f6023913960400191505060405180910390fd5b60008111612868576040517f08c379a00000000000000000000000000000000000000000000000000000000081526004018080602001828103825260258152602001806136606025913960400191505060405180910390fd5b600160008373ffffffffffffffffffffffffffffffffffffffff1673ffffffffffffffffffffffffffffffffffffffff16815260200190815260200160002054811115612900576040517f08c379a000000000000000000000000000000000000000000000000000000000815260040180806020018281038252602b815260200180613685602b913960400191505060405180910390fd5b6129158160035461340390919063ffffffff16565b60038190555061296d81600160008573ffffffffffffffffffffffffffffffffffffffff1673ffffffffffffffffffffffffffffffffffffffff1681526020019081526020016000205461340390919063ffffffff16565b600160008473ffffffffffffffffffffffffffffffffffffffff1673ffffffffffffffffffffffffffffffffffffffff16815260200190815260200160002081905550600073ffffffffffffffffffffffffffffffffffffffff168273ffffffffffffffffffffffffffffffffffffffff167fddf252ad1be2c89b69c2b068fc378daa952ba7f163c4a11628f55a4df523b3ef836040518082815260200191505060405180910390a38173ffffffffffffffffffffffffffffffffffffffff167fcc16f5dbb4873280815c1ee09dbd06736cffcc184412cf7a71a0fdb75d397ca5826040518082815260200191505060405180910390a25050565b600073ffffffffffffffffffffffffffffffffffffffff168273ffffffffffffffffffffffffffffffffffffffff161415612aee576040517f08c379a000000000000000000000000000000000000000000000000000000000815260040180806020018281038252602381526020018061350f6023913960400191505060405180910390fd5b60008111612b47576040517f08c379a00000000000000000000000000000000000000000000000000000000081526004018080602001828103825260258152602001806136606025913960400191505060405180910390fd5b600260008373ffffffffffffffffffffffffffffffffffffffff1673ffffffffffffffffffffffffffffffffffffffff16815260200190815260200160002060003373ffffffffffffffffffffffffffffffffffffffff1673ffffffffffffffffffffffffffffffffffffffff16815260200190815260200160002054811115612c1c576040517f08c379a00000000000000000000000000000000000000000000000000000000081526004018080602001828103825260338152602001806136016033913960400191505060405180910390fd5b612c268282612789565b612cbf8233612cba84600260008873ffffffffffffffffffffffffffffffffffffffff1673ffffffffffffffffffffffffffffffffffffffff16815260200190815260200160002060003373ffffffffffffffffffffffffffffffffffffffff1673ffffffffffffffffffffffffffffffffffffffff1681526020019081526020016000205461340390919063ffffffff16565b61227f565b5050565b6000803090506000813b9050600081149250505090565b6000808211612d34576040517f08c379a00000000000000000000000000000000000000000000000000000000081526004018080602001828103825260258152602001806136606025913960400191505060405180910390fd5b612dcd3384612dc885600260003373ffffffffffffffffffffffffffffffffffffffff1673ffffffffffffffffffffffffffffffffffffffff16815260200190815260200160002060008973ffffffffffffffffffffffffffffffffffffffff1673ffffffffffffffffffffffffffffffffffffffff1681526020019081526020016000205461340390919063ffffffff16565b61227f565b6001905092915050565b6000612de4338484612f32565b6001905092915050565b600073ffffffffffffffffffffffffffffffffffffffff168173ffffffffffffffffffffffffffffffffffffffff161415612e74576040517f08c379a00000000000000000000000000000000000000000000000000000000081526004018080602001828103825260218152602001806135576021913960400191505060405180910390fd5b806000806101000a81548173ffffffffffffffffffffffffffffffffffffffff021916908373ffffffffffffffffffffffffffffffffffffffff1602179055508073ffffffffffffffffffffffffffffffffffffffff166000809054906101000a900473ffffffffffffffffffffffffffffffffffffffff1673ffffffffffffffffffffffffffffffffffffffff167f8be0079c531659141344cd1fd0a4f28419497f9722a3daafe3b4186f6b6457e060405160405180910390a350565b600073ffffffffffffffffffffffffffffffffffffffff168273ffffffffffffffffffffffffffffffffffffffff161415612fb8576040517f08c379a000000000000000000000000000000000000000000000000000000000815260040180806020018281038252602c815260200180613634602c913960400191505060405180910390fd5b80600160008573ffffffffffffffffffffffffffffffffffffffff1673ffffffffffffffffffffffffffffffffffffffff168152602001908152602001600020541015613050576040517f08c379a00000000000000000000000000000000000000000000000000000000081526004018080602001828103825260378152602001806137006037913960400191505060405180910390fd5b600160008373ffffffffffffffffffffffffffffffffffffffff1673ffffffffffffffffffffffffffffffffffffffff1681526020019081526020016000205481600160008573ffffffffffffffffffffffffffffffffffffffff1673ffffffffffffffffffffffffffffffffffffffff16815260200190815260200160002054011015613129576040517f08c379a000000000000000000000000000000000000000000000000000000000815260040180806020018281038252603e81526020018061359a603e913960400191505060405180910390fd5b600560008473ffffffffffffffffffffffffffffffffffffffff1673ffffffffffffffffffffffffffffffffffffffff16815260200190815260200160002060009054906101000a900460ff16156131cc576040517f08c379a00000000000000000000000000000000000000000000000000000000081526004018080602001828103825260278152602001806134e86027913960400191505060405180910390fd5b600560008373ffffffffffffffffffffffffffffffffffffffff1673ffffffffffffffffffffffffffffffffffffffff16815260200190815260200160002060009054906101000a900460ff161561326f576040517f08c379a00000000000000000000000000000000000000000000000000000000081526004018080602001828103825260258152602001806135326025913960400191505060405180910390fd5b6132c181600160008673ffffffffffffffffffffffffffffffffffffffff1673ffffffffffffffffffffffffffffffffffffffff1681526020019081526020016000205461340390919063ffffffff16565b600160008573ffffffffffffffffffffffffffffffffffffffff1673ffffffffffffffffffffffffffffffffffffffff1681526020019081526020016000208190555061335681600160008573ffffffffffffffffffffffffffffffffffffffff1673ffffffffffffffffffffffffffffffffffffffff1681526020019081526020016000205461342390919063ffffffff16565b600160008473ffffffffffffffffffffffffffffffffffffffff1673ffffffffffffffffffffffffffffffffffffffff168152602001908152602001600020819055508173ffffffffffffffffffffffffffffffffffffffff168373ffffffffffffffffffffffffffffffffffffffff167fddf252ad1be2c89b69c2b068fc378daa952ba7f163c4a11628f55a4df523b3ef836040518082815260200191505060405180910390a3505050565b60008282111561341257600080fd5b600082840390508091505092915050565b60008082840190508381101561343857600080fd5b8091505092915050565b828054600181600116156101000203166002900490600052602060002090601f016020900481019282601f1061348357805160ff19168380011785556134b1565b828001600101855582156134b1579182015b828111156134b0578251825591602001919060010190613495565b5b5090506134be91906134c2565b5090565b6134e491905b808211156134e05760008160009055506001016134c8565b5090565b9056fe467265657a61626c65546f6b656e3a206163636f756e74205f66726f6d2069732066726f7a656e45524332303a207472616e7366657220746f20746865207a65726f2061646472657373467265657a61626c65546f6b656e3a206163636f756e74205f746f2069732066726f7a656e4f776e61626c653a207472616e7366657220746f207a65726f206164647265737345524332303a20617070726f766520746f20746865207a65726f2061646472657373467265657a61626c65546f6b656e3a2062616c616e636520746f206d75737420627220626967676572207468616e2063757272656e742062616c616e63654d696e7461626c65546f6b656e3a2073656e64657220686173206e6f74207065726d697373696f6e7345524332303a206163636f756e7420616c6c6f7765642062616c616e6365206973206c6f776572207468616e20616d6f756e74467265657a61626c65546f6b656e3a207472616e7366657220746f20746865207a65726f206164647265737345524332303a2076616c7565206d75737420626520626967676572207468616e207a65726f45524332303a206163636f756e742062616c616e6365206973206c6f776572207468616e20616d6f756e744d696e7461626c65546f6b656e3a206d696e74696e672069732066696e6973686564436f6e747261637420696e7374616e63652068617320616c7265616479206265656e20696e697469616c697a6564467265657a61626c65546f6b656e3a2062616c616e6365205f66726f6d206d75737420627220626967676572207468616e2076616c756545524332303a20617070726f76652066726f6d20746865207a65726f2061646472657373a265627a7a72315820e7fa2c0a33811ffbcaac4195b72f2fd9288a330c1f6f4b7b72530f5cd7e30a1564736f6c63430005110032",
  "compiler": {
    "name": "solc",
    "version": "0.5.17+commit.d19bba13.Emscripten.clang",
    "optimizer": {
      "enabled": false,
      "runs": 200
    },
    "evmVersion": "petersburg"
  }
}