{
  "fileName": "FreezableToken.sol",
  "contractName": "FreezableToken",
  "source": "pragma solidity ^0.5.0;\n\nimport \"./MintableToken.sol\";\n\n/**\n * @title Freezable token\n * @dev Add ability froze accounts\n */\ncontract FreezableToken is MintableToken {\n\n    mapping(address => bool) public frozenAccounts;\n\n    event FrozenFunds(address target, bool frozen);\n\n    /**\n     * @dev Freze account\n     */\n    function freezeAccount(address target, bool freeze) public onlyOwner {\n        frozenAccounts[target] = freeze;\n        emit FrozenFunds(target, freeze);\n    }\n\n    /**\n     * @dev Ovveride base method _transfer from base ERC20 contract\n     */\n    function _transfer(address _from, address _to, uint256 value) internal {\n        require(_to != address(0x0), \"FreezableToken: transfer to the zero address\");\n        require(_balances[_from] >= value, \"FreezableToken: balance _from must br bigger than value\");\n        require(_balances[_to] + value >= _balances[_to], \"FreezableToken: balance to must br bigger than current balance\");\n        require(!frozenAccounts[_from], \"FreezableToken: account _from is frozen\");\n        require(!frozenAccounts[_to], \"FreezableToken: account _to is frozen\");\n        _balances[_from] = _balances[_from].sub(value);\n        _balances[_to] = _balances[_to].add(value);\n        emit Transfer(_from, _to, value);\n    }\n}\n",
  "sourcePath": "contracts/libs/FreezableToken.sol",
  "abi": [
    {
      "anonymous": false,
      "inputs": [
        {
          "indexed": true,
          "internalType": "address",
          "name": "tokenOwner",
          "type": "address"
        },
        {
          "indexed": true,
          "internalType": "address",
          "name": "spender",
          "type": "address"
        },
        {
          "indexed": false,
          "internalType": "uint256",
          "name": "value",
          "type": "uint256"
        }
      ],
      "name": "Approval",
      "type": "event"
    },
    {
      "anonymous": false,
      "inputs": [
        {
          "indexed": false,
          "internalType": "address",
          "name": "target",
          "type": "address"
        },
        {
          "indexed": false,
          "internalType": "bool",
          "name": "frozen",
          "type": "bool"
        }
      ],
      "name": "FrozenFunds",
      "type": "event"
    },
    {
      "anonymous": false,
      "inputs": [
        {
          "indexed": true,
          "internalType": "address",
          "name": "to",
          "type": "address"
        },
        {
          "indexed": false,
          "internalType": "uint256",
          "name": "amount",
          "type": "uint256"
        }
      ],
      "name": "Mint",
      "type": "event"
    },
    {
      "anonymous": false,
      "inputs": [],
      "name": "MintFinished",
      "type": "event"
    },
    {
      "anonymous": false,
      "inputs": [],
      "name": "MintStarted",
      "type": "event"
    },
    {
      "anonymous": false,
      "inputs": [
        {
          "indexed": true,
          "internalType": "address",
          "name": "previousOwner",
          "type": "address"
        },
        {
          "indexed": true,
          "internalType": "address",
          "name": "newOwner",
          "type": "address"
        }
      ],
      "name": "OwnershipTransferred",
      "type": "event"
    },
    {
      "anonymous": false,
      "inputs": [
        {
          "indexed": true,
          "internalType": "address",
          "name": "from",
          "type": "address"
        },
        {
          "indexed": true,
          "internalType": "address",
          "name": "to",
          "type": "address"
        },
        {
          "indexed": false,
          "internalType": "uint256",
          "name": "value",
          "type": "uint256"
        }
      ],
      "name": "Transfer",
      "type": "event"
    },
    {
      "constant": true,
      "inputs": [
        {
          "internalType": "address",
          "name": "owner",
          "type": "address"
        },
        {
          "internalType": "address",
          "name": "spender",
          "type": "address"
        }
      ],
      "name": "allowance",
      "outputs": [
        {
          "internalType": "uint256",
          "name": "",
          "type": "uint256"
        }
      ],
      "payable": false,
      "stateMutability": "view",
      "type": "function"
    },
    {
      "constant": false,
      "inputs": [
        {
          "internalType": "address",
          "name": "spender",
          "type": "address"
        },
        {
          "internalType": "uint256",
          "name": "value",
          "type": "uint256"
        }
      ],
      "name": "approve",
      "outputs": [
        {
          "internalType": "bool",
          "name": "",
          "type": "bool"
        }
      ],
      "payable": false,
      "stateMutability": "nonpayable",
      "type": "function"
    },
    {
      "constant": true,
      "inputs": [
        {
          "internalType": "address",
          "name": "owner",
          "type": "address"
        }
      ],
      "name": "balanceOf",
      "outputs": [
        {
          "internalType": "uint256",
          "name": "",
          "type": "uint256"
        }
      ],
      "payable": false,
      "stateMutability": "view",
      "type": "function"
    },
    {
      "constant": false,
      "inputs": [
        {
          "internalType": "address",
          "name": "spender",
          "type": "address"
        },
        {
          "internalType": "uint256",
          "name": "subtractedValue",
          "type": "uint256"
        }
      ],
      "name": "decreaseAllowance",
      "outputs": [
        {
          "internalType": "bool",
          "name": "",
          "type": "bool"
        }
      ],
      "payable": false,
      "stateMutability": "nonpayable",
      "type": "function"
    },
    {
      "constant": false,
      "inputs": [],
      "name": "finishMinting",
      "outputs": [
        {
          "internalType": "bool",
          "name": "",
          "type": "bool"
        }
      ],
      "payable": false,
      "stateMutability": "nonpayable",
      "type": "function"
    },
    {
      "constant": false,
      "inputs": [
        {
          "internalType": "address",
          "name": "target",
          "type": "address"
        },
        {
          "internalType": "bool",
          "name": "freeze",
          "type": "bool"
        }
      ],
      "name": "freezeAccount",
      "outputs": [],
      "payable": false,
      "stateMutability": "nonpayable",
      "type": "function"
    },
    {
      "constant": true,
      "inputs": [
        {
          "internalType": "address",
          "name": "",
          "type": "address"
        }
      ],
      "name": "frozenAccounts",
      "outputs": [
        {
          "internalType": "bool",
          "name": "",
          "type": "bool"
        }
      ],
      "payable": false,
      "stateMutability": "view",
      "type": "function"
    },
    {
      "constant": false,
      "inputs": [
        {
          "internalType": "address",
          "name": "spender",
          "type": "address"
        },
        {
          "internalType": "uint256",
          "name": "addedValue",
          "type": "uint256"
        }
      ],
      "name": "increaseAllowance",
      "outputs": [
        {
          "internalType": "bool",
          "name": "",
          "type": "bool"
        }
      ],
      "payable": false,
      "stateMutability": "nonpayable",
      "type": "function"
    },
    {
      "constant": false,
      "inputs": [
        {
          "internalType": "address",
          "name": "_to",
          "type": "address"
        },
        {
          "internalType": "uint256",
          "name": "_amount",
          "type": "uint256"
        }
      ],
      "name": "mint",
      "outputs": [
        {
          "internalType": "bool",
          "name": "",
          "type": "bool"
        }
      ],
      "payable": false,
      "stateMutability": "nonpayable",
      "type": "function"
    },
    {
      "constant": true,
      "inputs": [],
      "name": "mintingFinished",
      "outputs": [
        {
          "internalType": "bool",
          "name": "",
          "type": "bool"
        }
      ],
      "payable": false,
      "stateMutability": "view",
      "type": "function"
    },
    {
      "constant": true,
      "inputs": [],
      "name": "owner",
      "outputs": [
        {
          "internalType": "address",
          "name": "",
          "type": "address"
        }
      ],
      "payable": false,
      "stateMutability": "view",
      "type": "function"
    },
    {
      "constant": false,
      "inputs": [],
      "name": "startMinting",
      "outputs": [
        {
          "internalType": "bool",
          "name": "",
          "type": "bool"
        }
      ],
      "payable": false,
      "stateMutability": "nonpayable",
      "type": "function"
    },
    {
      "constant": true,
      "inputs": [],
      "name": "totalSupply",
      "outputs": [
        {
          "internalType": "uint256",
          "name": "",
          "type": "uint256"
        }
      ],
      "payable": false,
      "stateMutability": "view",
      "type": "function"
    },
    {
      "constant": false,
      "inputs": [
        {
          "internalType": "address",
          "name": "to",
          "type": "address"
        },
        {
          "internalType": "uint256",
          "name": "value",
          "type": "uint256"
        }
      ],
      "name": "transfer",
      "outputs": [
        {
          "internalType": "bool",
          "name": "",
          "type": "bool"
        }
      ],
      "payable": false,
      "stateMutability": "nonpayable",
      "type": "function"
    },
    {
      "constant": false,
      "inputs": [
        {
          "internalType": "address",
          "name": "from",
          "type": "address"
        },
        {
          "internalType": "address",
          "name": "to",
          "type": "address"
        },
        {
          "internalType": "uint256",
          "name": "value",
          "type": "uint256"
        }
      ],
      "name": "transferFrom",
      "outputs": [
        {
          "internalType": "bool",
          "name": "",
          "type": "bool"
        }
      ],
      "payable": false,
      "stateMutability": "nonpayable",
      "type": "function"
    }
  ],
  "bytecode": "0x60806040526000600460006101000a81548160ff02191690831515021790555034801561002b57600080fd5b50611a888061003b6000396000f3fe608060405234801561001057600080fd5b50600436106100f55760003560e01c80637d64bcb411610097578063a457c2d711610066578063a457c2d714610434578063a9059cbb1461049a578063dd62ed3e14610500578063e724529c14610578576100f5565b80637d64bcb41461034a578063860838a51461036c5780638da5cb5b146103c85780639a65ea2614610412576100f5565b806323b872dd116100d357806323b872dd146101a0578063395093511461022657806340c10f191461028c57806370a08231146102f2576100f5565b806305d2035b146100fa578063095ea7b31461011c57806318160ddd14610182575b600080fd5b6101026105c8565b604051808215151515815260200191505060405180910390f35b6101686004803603604081101561013257600080fd5b81019080803573ffffffffffffffffffffffffffffffffffffffff169060200190929190803590602001909291905050506105db565b604051808215151515815260200191505060405180910390f35b61018a6105f2565b6040518082815260200191505060405180910390f35b61020c600480360360608110156101b657600080fd5b81019080803573ffffffffffffffffffffffffffffffffffffffff169060200190929190803573ffffffffffffffffffffffffffffffffffffffff169060200190929190803590602001909291905050506105fc565b604051808215151515815260200191505060405180910390f35b6102726004803603604081101561023c57600080fd5b81019080803573ffffffffffffffffffffffffffffffffffffffff16906020019092919080359060200190929190505050610782565b604051808215151515815260200191505060405180910390f35b6102d8600480360360408110156102a257600080fd5b81019080803573ffffffffffffffffffffffffffffffffffffffff1690602001909291908035906020019092919050505061087f565b604051808215151515815260200191505060405180910390f35b6103346004803603602081101561030857600080fd5b81019080803573ffffffffffffffffffffffffffffffffffffffff1690602001909291905050506109ee565b6040518082815260200191505060405180910390f35b610352610a37565b604051808215151515815260200191505060405180910390f35b6103ae6004803603602081101561038257600080fd5b81019080803573ffffffffffffffffffffffffffffffffffffffff169060200190929190505050610aed565b604051808215151515815260200191505060405180910390f35b6103d0610b0d565b604051808273ffffffffffffffffffffffffffffffffffffffff1673ffffffffffffffffffffffffffffffffffffffff16815260200191505060405180910390f35b61041a610b32565b604051808215151515815260200191505060405180910390f35b6104806004803603604081101561044a57600080fd5b81019080803573ffffffffffffffffffffffffffffffffffffffff16906020019092919080359060200190929190505050610b81565b604051808215151515815260200191505060405180910390f35b6104e6600480360360408110156104b057600080fd5b81019080803573ffffffffffffffffffffffffffffffffffffffff16906020019092919080359060200190929190505050610c7e565b604051808215151515815260200191505060405180910390f35b6105626004803603604081101561051657600080fd5b81019080803573ffffffffffffffffffffffffffffffffffffffff169060200190929190803573ffffffffffffffffffffffffffffffffffffffff169060200190929190505050610c95565b6040518082815260200191505060405180910390f35b6105c66004803603604081101561058e57600080fd5b81019080803573ffffffffffffffffffffffffffffffffffffffff169060200190929190803515159060200190929190505050610d1c565b005b600460009054906101000a900460ff1681565b60006105e8338484610ea8565b6001905092915050565b6000600354905090565b6000600260008573ffffffffffffffffffffffffffffffffffffffff1673ffffffffffffffffffffffffffffffffffffffff16815260200190815260200160002060003373ffffffffffffffffffffffffffffffffffffffff1673ffffffffffffffffffffffffffffffffffffffff168152602001908152602001600020548211156106d3576040517f08c379a000000000000000000000000000000000000000000000000000000000815260040180806020018281038252602b8152602001806119ac602b913960400191505060405180910390fd5b6106de84848461109f565b610777843361077285600260008a73ffffffffffffffffffffffffffffffffffffffff1673ffffffffffffffffffffffffffffffffffffffff16815260200190815260200160002060003373ffffffffffffffffffffffffffffffffffffffff1673ffffffffffffffffffffffffffffffffffffffff1681526020019081526020016000205461157090919063ffffffff16565b610ea8565b600190509392505050565b60008082116107dc576040517f08c379a00000000000000000000000000000000000000000000000000000000081526004018080602001828103825260258152602001806119876025913960400191505060405180910390fd5b610875338461087085600260003373ffffffffffffffffffffffffffffffffffffffff1673ffffffffffffffffffffffffffffffffffffffff16815260200190815260200160002060008973ffffffffffffffffffffffffffffffffffffffff1673ffffffffffffffffffffffffffffffffffffffff1681526020019081526020016000205461159090919063ffffffff16565b610ea8565b6001905092915050565b60008060009054906101000a900473ffffffffffffffffffffffffffffffffffffffff1673ffffffffffffffffffffffffffffffffffffffff163373ffffffffffffffffffffffffffffffffffffffff1614610926576040517f08c379a00000000000000000000000000000000000000000000000000000000081526004018080602001828103825260298152602001806119326029913960400191505060405180910390fd5b600460009054906101000a900460ff161561098c576040517f08c379a00000000000000000000000000000000000000000000000000000000081526004018080602001828103825260228152602001806119d76022913960400191505060405180910390fd5b61099683836115af565b8273ffffffffffffffffffffffffffffffffffffffff167f0f6798a560793a54c3bcfe86a93cde1e73087d944c0ea20544137d4121396885836040518082815260200191505060405180910390a26001905092915050565b6000600160008373ffffffffffffffffffffffffffffffffffffffff1673ffffffffffffffffffffffffffffffffffffffff168152602001908152602001600020549050919050565b6000600460009054906101000a900460ff1615610a9f576040517f08c379a00000000000000000000000000000000000000000000000000000000081526004018080602001828103825260228152602001806119d76022913960400191505060405180910390fd5b6001600460006101000a81548160ff0219169083151502179055507fae5184fba832cb2b1f702aca6117b8d265eaf03ad33eb133f19dde0f5920fa0860405160405180910390a16001905090565b60056020528060005260406000206000915054906101000a900460ff1681565b6000809054906101000a900473ffffffffffffffffffffffffffffffffffffffff1681565b600080600460006101000a81548160ff0219169083151502179055507f452a344f03203071e1daf66e007976c85cb2380deabf1c91f3c4fb1fca41204960405160405180910390a16001905090565b6000808211610bdb576040517f08c379a00000000000000000000000000000000000000000000000000000000081526004018080602001828103825260258152602001806119876025913960400191505060405180910390fd5b610c743384610c6f85600260003373ffffffffffffffffffffffffffffffffffffffff1673ffffffffffffffffffffffffffffffffffffffff16815260200190815260200160002060008973ffffffffffffffffffffffffffffffffffffffff1673ffffffffffffffffffffffffffffffffffffffff1681526020019081526020016000205461157090919063ffffffff16565b610ea8565b6001905092915050565b6000610c8b33848461109f565b6001905092915050565b6000600260008473ffffffffffffffffffffffffffffffffffffffff1673ffffffffffffffffffffffffffffffffffffffff16815260200190815260200160002060008373ffffffffffffffffffffffffffffffffffffffff1673ffffffffffffffffffffffffffffffffffffffff16815260200190815260200160002054905092915050565b6000809054906101000a900473ffffffffffffffffffffffffffffffffffffffff1673ffffffffffffffffffffffffffffffffffffffff163373ffffffffffffffffffffffffffffffffffffffff1614610dde576040517f08c379a000000000000000000000000000000000000000000000000000000000815260040180806020018281038252601c8152602001807f4f776e61626c653a2073656e646572206973206e6f74206f776e65720000000081525060200191505060405180910390fd5b80600560008473ffffffffffffffffffffffffffffffffffffffff1673ffffffffffffffffffffffffffffffffffffffff16815260200190815260200160002060006101000a81548160ff0219169083151502179055507f48335238b4855f35377ed80f164e8c6f3c366e54ac00b96a6402d4a9814a03a58282604051808373ffffffffffffffffffffffffffffffffffffffff1673ffffffffffffffffffffffffffffffffffffffff168152602001821515151581526020019250505060405180910390a15050565b600073ffffffffffffffffffffffffffffffffffffffff168373ffffffffffffffffffffffffffffffffffffffff161415610f2e576040517f08c379a0000000000000000000000000000000000000000000000000000000008152600401808060200182810382526024815260200180611a306024913960400191505060405180910390fd5b600073ffffffffffffffffffffffffffffffffffffffff168273ffffffffffffffffffffffffffffffffffffffff161415610fb4576040517f08c379a00000000000000000000000000000000000000000000000000000000081526004018080602001828103825260228152602001806118d26022913960400191505060405180910390fd5b80600260008573ffffffffffffffffffffffffffffffffffffffff1673ffffffffffffffffffffffffffffffffffffffff16815260200190815260200160002060008473ffffffffffffffffffffffffffffffffffffffff1673ffffffffffffffffffffffffffffffffffffffff168152602001908152602001600020819055508173ffffffffffffffffffffffffffffffffffffffff168373ffffffffffffffffffffffffffffffffffffffff167f8c5be1e5ebec7d5bd14f71427d1e84f3dd0314c0f7b2291e5b200ac8c7c3b925836040518082815260200191505060405180910390a3505050565b600073ffffffffffffffffffffffffffffffffffffffff168273ffffffffffffffffffffffffffffffffffffffff161415611125576040517f08c379a000000000000000000000000000000000000000000000000000000000815260040180806020018281038252602c81526020018061195b602c913960400191505060405180910390fd5b80600160008573ffffffffffffffffffffffffffffffffffffffff1673ffffffffffffffffffffffffffffffffffffffff1681526020019081526020016000205410156111bd576040517f08c379a00000000000000000000000000000000000000000000000000000000081526004018080602001828103825260378152602001806119f96037913960400191505060405180910390fd5b600160008373ffffffffffffffffffffffffffffffffffffffff1673ffffffffffffffffffffffffffffffffffffffff1681526020019081526020016000205481600160008573ffffffffffffffffffffffffffffffffffffffff1673ffffffffffffffffffffffffffffffffffffffff16815260200190815260200160002054011015611296576040517f08c379a000000000000000000000000000000000000000000000000000000000815260040180806020018281038252603e8152602001806118f4603e913960400191505060405180910390fd5b600560008473ffffffffffffffffffffffffffffffffffffffff1673ffffffffffffffffffffffffffffffffffffffff16815260200190815260200160002060009054906101000a900460ff1615611339576040517f08c379a00000000000000000000000000000000000000000000000000000000081526004018080602001828103825260278152602001806118866027913960400191505060405180910390fd5b600560008373ffffffffffffffffffffffffffffffffffffffff1673ffffffffffffffffffffffffffffffffffffffff16815260200190815260200160002060009054906101000a900460ff16156113dc576040517f08c379a00000000000000000000000000000000000000000000000000000000081526004018080602001828103825260258152602001806118ad6025913960400191505060405180910390fd5b61142e81600160008673ffffffffffffffffffffffffffffffffffffffff1673ffffffffffffffffffffffffffffffffffffffff1681526020019081526020016000205461157090919063ffffffff16565b600160008573ffffffffffffffffffffffffffffffffffffffff1673ffffffffffffffffffffffffffffffffffffffff168152602001908152602001600020819055506114c381600160008573ffffffffffffffffffffffffffffffffffffffff1673ffffffffffffffffffffffffffffffffffffffff1681526020019081526020016000205461159090919063ffffffff16565b600160008473ffffffffffffffffffffffffffffffffffffffff1673ffffffffffffffffffffffffffffffffffffffff168152602001908152602001600020819055508173ffffffffffffffffffffffffffffffffffffffff168373ffffffffffffffffffffffffffffffffffffffff167fddf252ad1be2c89b69c2b068fc378daa952ba7f163c4a11628f55a4df523b3ef836040518082815260200191505060405180910390a3505050565b60008282111561157f57600080fd5b600082840390508091505092915050565b6000808284019050838110156115a557600080fd5b8091505092915050565b600073ffffffffffffffffffffffffffffffffffffffff168273ffffffffffffffffffffffffffffffffffffffff161415611652576040517f08c379a000000000000000000000000000000000000000000000000000000000815260040180806020018281038252601f8152602001807f45524332303a206d696e7420746f20746865207a65726f20616464726573730081525060200191505060405180910390fd5b600081116116ab576040517f08c379a00000000000000000000000000000000000000000000000000000000081526004018080602001828103825260258152602001806119876025913960400191505060405180910390fd5b6116c08160035461159090919063ffffffff16565b60038190555061171881600160008573ffffffffffffffffffffffffffffffffffffffff1673ffffffffffffffffffffffffffffffffffffffff1681526020019081526020016000205461159090919063ffffffff16565b600160008473ffffffffffffffffffffffffffffffffffffffff1673ffffffffffffffffffffffffffffffffffffffff16815260200190815260200160002081905550600160008373ffffffffffffffffffffffffffffffffffffffff1673ffffffffffffffffffffffffffffffffffffffff16815260200190815260200160002054600260008473ffffffffffffffffffffffffffffffffffffffff1673ffffffffffffffffffffffffffffffffffffffff16815260200190815260200160002060008473ffffffffffffffffffffffffffffffffffffffff1673ffffffffffffffffffffffffffffffffffffffff168152602001908152602001600020819055508173ffffffffffffffffffffffffffffffffffffffff16600073ffffffffffffffffffffffffffffffffffffffff167fddf252ad1be2c89b69c2b068fc378daa952ba7f163c4a11628f55a4df523b3ef836040518082815260200191505060405180910390a3505056fe467265657a61626c65546f6b656e3a206163636f756e74205f66726f6d2069732066726f7a656e467265657a61626c65546f6b656e3a206163636f756e74205f746f2069732066726f7a656e45524332303a20617070726f766520746f20746865207a65726f2061646472657373467265657a61626c65546f6b656e3a2062616c616e636520746f206d75737420627220626967676572207468616e2063757272656e742062616c616e63654d696e7461626c65546f6b656e3a2073656e64657220686173206e6f74207065726d697373696f6e73467265657a61626c65546f6b656e3a207472616e7366657220746f20746865207a65726f206164647265737345524332303a2076616c7565206d75737420626520626967676572207468616e207a65726f45524332303a206163636f756e742062616c616e6365206973206c6f776572207468616e20616d6f756e744d696e7461626c65546f6b656e3a206d696e74696e672069732066696e6973686564467265657a61626c65546f6b656e3a2062616c616e6365205f66726f6d206d75737420627220626967676572207468616e2076616c756545524332303a20617070726f76652066726f6d20746865207a65726f2061646472657373a265627a7a7231582065e548812ba2588db903a62ec588dddf154bd1361c7cbcf12153bfa6f419fa2d64736f6c63430005110032",
  "compiler": {
    "name": "solc",
    "version": "0.5.17+commit.d19bba13.Emscripten.clang",
    "optimizer": {
      "enabled": false,
      "runs": 200
    },
    "evmVersion": "petersburg"
  }
}