{
  "fileName": "FundsManagementContract.sol",
  "contractName": "FundsManagementContract",
  "source": "pragma solidity ^0.5.0;\n\nimport \"./WithdrawInterface.sol\";\nimport \"./DepositInterface.sol\";\nimport \"../libs/Ownable.sol\";\nimport \"../ERC/IERC20.sol\";\n\n\n/// @title Withdraw contract\ncontract FundsManagementContract is WithdrawInterface, DepositInterface, Ownable {\n\n    address payable public depositFunds;\n    uint256 public limit;\n\n    /// @dev ERC20 base contract\n    address public erc20Contract;\n\n    /// @dev ERC20 base contract\n    address public tokensOwner;\n\n    constructor(address _contract) public {\n        erc20Contract = _contract;\n        // 0x184fc447d59a3904c88935615af5A6e550EabfDb\n        owner = msg.sender;\n        tokensOwner = msg.sender;\n        limit = 1000;\n        // limit of 1000 token per withdrawal\n    }\n\n    /// Getters and Setters\n\n    /// @dev Update contract\n    function setNewContract(address newContract) public onlyOwner {\n        erc20Contract = newContract;\n    }\n\n    function setNewLimit(uint256 newLimit) public onlyOwner {\n        limit = newLimit;\n    }\n\n    /// Events\n\n    event Withdraw(address from, address to, uint256 amount, bool success);\n    event BatchWithdraw(address from, address [] to, uint256 amounts, bool success);\n    event ValueReceived(address user, uint amount);\n\n    /// Functions\n\n    function withdraw(address to, uint256 amount) external returns (bool) {\n        require(amount <= limit, 'you cannot withdraw so much money at a time');\n\n        bool success = IERC20(erc20Contract).transferFrom(tokensOwner, to, amount);\n\n        emit Withdraw(msg.sender, to, amount, success);\n        return success;\n    }\n\n    /// @dev Check balance on contract for token address\n    function balance() view external returns (uint256) {\n        return IERC20(erc20Contract).allowance(tokensOwner, address(this));\n    }\n\n    function balanceOf(address user) view external returns (uint256) {\n        return IERC20(erc20Contract).balanceOf(user);\n    }\n\n    /// @dev Batch withdraw to addresses\n    function batchWithdraw(address [] calldata to, uint256 [] calldata amounts) external returns (bool) {\n        require(to.length > 0);\n        require(to.length == amounts.length, 'invalid data');\n\n        uint256 fullAmounts = 0;\n        for (uint32 i = 0; i < amounts.length; i++) {\n            fullAmounts += amounts[i];\n        }\n        require(fullAmounts <= limit, 'you cannot withdraw so much money at a time');\n\n        for (uint32 i = 0; i < to.length; i++) {\n            IERC20(erc20Contract).transferFrom(tokensOwner, to[i], amounts[i]);\n        }\n\n        emit BatchWithdraw(msg.sender, to, fullAmounts, true);\n        return true;\n    }\n\n    /// @dev Disable receiving funds to contract address\n    function() external payable {\n        revert();\n    }\n\n    /// @dev Deposit funds to contract balance\n    function deposit() external payable {\n        uint256 value = msg.value;\n        address receiver = msg.sender;\n\n        require(value > 0);\n        require(receiver != address(0));\n        uint256 currencyEsilliumPrice = 10000000000000;\n        // 0.00001 bnb\n        uint256 tokensCount = value / currencyEsilliumPrice;\n\n        address tokenOwner = Ownable(erc20Contract).owner();\n        IERC20(erc20Contract).transferFrom(tokenOwner, receiver, tokensCount);\n        address(uint160(owner)).transfer(msg.value);\n    }\n\n    /// @dev Deposit funds from address to system\n    function depositFrom(address _from) external payable {\n        uint256 value = msg.value;\n        address receiver = msg.sender;\n\n        require(value > 0);\n        require(receiver != address(0));\n\n        uint256 currencyEsilliumPrice = 10000000000000;\n        // 0.00001 bnb\n        uint256 tokensCount = value / currencyEsilliumPrice;\n\n        IERC20(erc20Contract).transferFrom(_from, receiver, tokensCount);\n        address(uint160(owner)).transfer(msg.value);\n    }\n\n}",
  "sourcePath": "contracts/Withdraw/FundsManagementContract.sol",
  "abi": [
    {
      "inputs": [
        {
          "internalType": "address",
          "name": "_contract",
          "type": "address"
        }
      ],
      "payable": false,
      "stateMutability": "nonpayable",
      "type": "constructor"
    },
    {
      "anonymous": false,
      "inputs": [
        {
          "indexed": false,
          "internalType": "address",
          "name": "from",
          "type": "address"
        },
        {
          "indexed": false,
          "internalType": "address[]",
          "name": "to",
          "type": "address[]"
        },
        {
          "indexed": false,
          "internalType": "uint256",
          "name": "amounts",
          "type": "uint256"
        },
        {
          "indexed": false,
          "internalType": "bool",
          "name": "success",
          "type": "bool"
        }
      ],
      "name": "BatchWithdraw",
      "type": "event"
    },
    {
      "anonymous": false,
      "inputs": [
        {
          "indexed": true,
          "internalType": "address",
          "name": "previousOwner",
          "type": "address"
        },
        {
          "indexed": true,
          "internalType": "address",
          "name": "newOwner",
          "type": "address"
        }
      ],
      "name": "OwnershipTransferred",
      "type": "event"
    },
    {
      "anonymous": false,
      "inputs": [
        {
          "indexed": false,
          "internalType": "address",
          "name": "user",
          "type": "address"
        },
        {
          "indexed": false,
          "internalType": "uint256",
          "name": "amount",
          "type": "uint256"
        }
      ],
      "name": "ValueReceived",
      "type": "event"
    },
    {
      "anonymous": false,
      "inputs": [
        {
          "indexed": false,
          "internalType": "address",
          "name": "from",
          "type": "address"
        },
        {
          "indexed": false,
          "internalType": "address",
          "name": "to",
          "type": "address"
        },
        {
          "indexed": false,
          "internalType": "uint256",
          "name": "amount",
          "type": "uint256"
        },
        {
          "indexed": false,
          "internalType": "bool",
          "name": "success",
          "type": "bool"
        }
      ],
      "name": "Withdraw",
      "type": "event"
    },
    {
      "payable": true,
      "stateMutability": "payable",
      "type": "fallback"
    },
    {
      "constant": true,
      "inputs": [],
      "name": "balance",
      "outputs": [
        {
          "internalType": "uint256",
          "name": "",
          "type": "uint256"
        }
      ],
      "payable": false,
      "stateMutability": "view",
      "type": "function"
    },
    {
      "constant": true,
      "inputs": [
        {
          "internalType": "address",
          "name": "user",
          "type": "address"
        }
      ],
      "name": "balanceOf",
      "outputs": [
        {
          "internalType": "uint256",
          "name": "",
          "type": "uint256"
        }
      ],
      "payable": false,
      "stateMutability": "view",
      "type": "function"
    },
    {
      "constant": false,
      "inputs": [
        {
          "internalType": "address[]",
          "name": "to",
          "type": "address[]"
        },
        {
          "internalType": "uint256[]",
          "name": "amounts",
          "type": "uint256[]"
        }
      ],
      "name": "batchWithdraw",
      "outputs": [
        {
          "internalType": "bool",
          "name": "",
          "type": "bool"
        }
      ],
      "payable": false,
      "stateMutability": "nonpayable",
      "type": "function"
    },
    {
      "constant": false,
      "inputs": [],
      "name": "deposit",
      "outputs": [],
      "payable": true,
      "stateMutability": "payable",
      "type": "function"
    },
    {
      "constant": false,
      "inputs": [
        {
          "internalType": "address",
          "name": "_from",
          "type": "address"
        }
      ],
      "name": "depositFrom",
      "outputs": [],
      "payable": true,
      "stateMutability": "payable",
      "type": "function"
    },
    {
      "constant": true,
      "inputs": [],
      "name": "depositFunds",
      "outputs": [
        {
          "internalType": "address payable",
          "name": "",
          "type": "address"
        }
      ],
      "payable": false,
      "stateMutability": "view",
      "type": "function"
    },
    {
      "constant": true,
      "inputs": [],
      "name": "erc20Contract",
      "outputs": [
        {
          "internalType": "address",
          "name": "",
          "type": "address"
        }
      ],
      "payable": false,
      "stateMutability": "view",
      "type": "function"
    },
    {
      "constant": true,
      "inputs": [],
      "name": "limit",
      "outputs": [
        {
          "internalType": "uint256",
          "name": "",
          "type": "uint256"
        }
      ],
      "payable": false,
      "stateMutability": "view",
      "type": "function"
    },
    {
      "constant": true,
      "inputs": [],
      "name": "owner",
      "outputs": [
        {
          "internalType": "address",
          "name": "",
          "type": "address"
        }
      ],
      "payable": false,
      "stateMutability": "view",
      "type": "function"
    },
    {
      "constant": false,
      "inputs": [
        {
          "internalType": "address",
          "name": "newContract",
          "type": "address"
        }
      ],
      "name": "setNewContract",
      "outputs": [],
      "payable": false,
      "stateMutability": "nonpayable",
      "type": "function"
    },
    {
      "constant": false,
      "inputs": [
        {
          "internalType": "uint256",
          "name": "newLimit",
          "type": "uint256"
        }
      ],
      "name": "setNewLimit",
      "outputs": [],
      "payable": false,
      "stateMutability": "nonpayable",
      "type": "function"
    },
    {
      "constant": true,
      "inputs": [],
      "name": "tokensOwner",
      "outputs": [
        {
          "internalType": "address",
          "name": "",
          "type": "address"
        }
      ],
      "payable": false,
      "stateMutability": "view",
      "type": "function"
    },
    {
      "constant": false,
      "inputs": [
        {
          "internalType": "address",
          "name": "to",
          "type": "address"
        },
        {
          "internalType": "uint256",
          "name": "amount",
          "type": "uint256"
        }
      ],
      "name": "withdraw",
      "outputs": [
        {
          "internalType": "bool",
          "name": "",
          "type": "bool"
        }
      ],
      "payable": false,
      "stateMutability": "nonpayable",
      "type": "function"
    }
  ],
  "bytecode": "0x608060405234801561001057600080fd5b506040516115913803806115918339818101604052602081101561003357600080fd5b810190808051906020019092919050505080600360006101000a81548173ffffffffffffffffffffffffffffffffffffffff021916908373ffffffffffffffffffffffffffffffffffffffff160217905550336000806101000a81548173ffffffffffffffffffffffffffffffffffffffff021916908373ffffffffffffffffffffffffffffffffffffffff16021790555033600460006101000a81548173ffffffffffffffffffffffffffffffffffffffff021916908373ffffffffffffffffffffffffffffffffffffffff1602179055506103e8600281905550506114728061011f6000396000f3fe6080604052600436106100c25760003560e01c8063d0e30db01161007f578063d7e612d111610059578063d7e612d114610326578063e131243e14610361578063e2c41dbc14610454578063f3fef3a3146104ab576100c2565b8063d0e30db014610287578063d35a904d14610291578063d5d72e97146102d5576100c2565b806334309e97146100c757806370a082311461011e5780638da5cb5b14610183578063a4d66daf146101da578063a8f6c91314610205578063b69ef8a81461025c575b600080fd5b3480156100d357600080fd5b506100dc61051e565b604051808273ffffffffffffffffffffffffffffffffffffffff1673ffffffffffffffffffffffffffffffffffffffff16815260200191505060405180910390f35b34801561012a57600080fd5b5061016d6004803603602081101561014157600080fd5b81019080803573ffffffffffffffffffffffffffffffffffffffff169060200190929190505050610544565b6040518082815260200191505060405180910390f35b34801561018f57600080fd5b50610198610627565b604051808273ffffffffffffffffffffffffffffffffffffffff1673ffffffffffffffffffffffffffffffffffffffff16815260200191505060405180910390f35b3480156101e657600080fd5b506101ef61064c565b6040518082815260200191505060405180910390f35b34801561021157600080fd5b5061021a610652565b604051808273ffffffffffffffffffffffffffffffffffffffff1673ffffffffffffffffffffffffffffffffffffffff16815260200191505060405180910390f35b34801561026857600080fd5b50610271610678565b6040518082815260200191505060405180910390f35b61028f6107af565b005b6102d3600480360360208110156102a757600080fd5b81019080803573ffffffffffffffffffffffffffffffffffffffff169060200190929190505050610a48565b005b3480156102e157600080fd5b50610324600480360360208110156102f857600080fd5b81019080803573ffffffffffffffffffffffffffffffffffffffff169060200190929190505050610c3a565b005b34801561033257600080fd5b5061035f6004803603602081101561034957600080fd5b8101908080359060200190929190505050610d40565b005b34801561036d57600080fd5b5061043a6004803603604081101561038457600080fd5b81019080803590602001906401000000008111156103a157600080fd5b8201836020820111156103b357600080fd5b803590602001918460208302840111640100000000831117156103d557600080fd5b9091929391929390803590602001906401000000008111156103f657600080fd5b82018360208201111561040857600080fd5b8035906020019184602083028401116401000000008311171561042a57600080fd5b9091929391929390505050610e0c565b604051808215151515815260200191505060405180910390f35b34801561046057600080fd5b5061046961119c565b604051808273ffffffffffffffffffffffffffffffffffffffff1673ffffffffffffffffffffffffffffffffffffffff16815260200191505060405180910390f35b3480156104b757600080fd5b50610504600480360360408110156104ce57600080fd5b81019080803573ffffffffffffffffffffffffffffffffffffffff169060200190929190803590602001909291905050506111c2565b604051808215151515815260200191505060405180910390f35b600460009054906101000a900473ffffffffffffffffffffffffffffffffffffffff1681565b6000600360009054906101000a900473ffffffffffffffffffffffffffffffffffffffff1673ffffffffffffffffffffffffffffffffffffffff166370a08231836040518263ffffffff1660e01b8152600401808273ffffffffffffffffffffffffffffffffffffffff1673ffffffffffffffffffffffffffffffffffffffff16815260200191505060206040518083038186803b1580156105e557600080fd5b505afa1580156105f9573d6000803e3d6000fd5b505050506040513d602081101561060f57600080fd5b81019080805190602001909291905050509050919050565b6000809054906101000a900473ffffffffffffffffffffffffffffffffffffffff1681565b60025481565b600360009054906101000a900473ffffffffffffffffffffffffffffffffffffffff1681565b6000600360009054906101000a900473ffffffffffffffffffffffffffffffffffffffff1673ffffffffffffffffffffffffffffffffffffffff1663dd62ed3e600460009054906101000a900473ffffffffffffffffffffffffffffffffffffffff16306040518363ffffffff1660e01b8152600401808373ffffffffffffffffffffffffffffffffffffffff1673ffffffffffffffffffffffffffffffffffffffff1681526020018273ffffffffffffffffffffffffffffffffffffffff1673ffffffffffffffffffffffffffffffffffffffff1681526020019250505060206040518083038186803b15801561076f57600080fd5b505afa158015610783573d6000803e3d6000fd5b505050506040513d602081101561079957600080fd5b8101908080519060200190929190505050905090565b60003490506000339050600082116107c657600080fd5b600073ffffffffffffffffffffffffffffffffffffffff168173ffffffffffffffffffffffffffffffffffffffff16141561080057600080fd5b60006509184e72a0009050600081848161081657fe5b0490506000600360009054906101000a900473ffffffffffffffffffffffffffffffffffffffff1673ffffffffffffffffffffffffffffffffffffffff16638da5cb5b6040518163ffffffff1660e01b815260040160206040518083038186803b15801561088357600080fd5b505afa158015610897573d6000803e3d6000fd5b505050506040513d60208110156108ad57600080fd5b81019080805190602001909291905050509050600360009054906101000a900473ffffffffffffffffffffffffffffffffffffffff1673ffffffffffffffffffffffffffffffffffffffff166323b872dd8286856040518463ffffffff1660e01b8152600401808473ffffffffffffffffffffffffffffffffffffffff1673ffffffffffffffffffffffffffffffffffffffff1681526020018373ffffffffffffffffffffffffffffffffffffffff1673ffffffffffffffffffffffffffffffffffffffff1681526020018281526020019350505050602060405180830381600087803b15801561099d57600080fd5b505af11580156109b1573d6000803e3d6000fd5b505050506040513d60208110156109c757600080fd5b8101908080519060200190929190505050506000809054906101000a900473ffffffffffffffffffffffffffffffffffffffff1673ffffffffffffffffffffffffffffffffffffffff166108fc349081150290604051600060405180830381858888f19350505050158015610a40573d6000803e3d6000fd5b505050505050565b6000349050600033905060008211610a5f57600080fd5b600073ffffffffffffffffffffffffffffffffffffffff168173ffffffffffffffffffffffffffffffffffffffff161415610a9957600080fd5b60006509184e72a00090506000818481610aaf57fe5b049050600360009054906101000a900473ffffffffffffffffffffffffffffffffffffffff1673ffffffffffffffffffffffffffffffffffffffff166323b872dd8685846040518463ffffffff1660e01b8152600401808473ffffffffffffffffffffffffffffffffffffffff1673ffffffffffffffffffffffffffffffffffffffff1681526020018373ffffffffffffffffffffffffffffffffffffffff1673ffffffffffffffffffffffffffffffffffffffff1681526020018281526020019350505050602060405180830381600087803b158015610b8f57600080fd5b505af1158015610ba3573d6000803e3d6000fd5b505050506040513d6020811015610bb957600080fd5b8101908080519060200190929190505050506000809054906101000a900473ffffffffffffffffffffffffffffffffffffffff1673ffffffffffffffffffffffffffffffffffffffff166108fc349081150290604051600060405180830381858888f19350505050158015610c32573d6000803e3d6000fd5b505050505050565b6000809054906101000a900473ffffffffffffffffffffffffffffffffffffffff1673ffffffffffffffffffffffffffffffffffffffff163373ffffffffffffffffffffffffffffffffffffffff1614610cfc576040517f08c379a000000000000000000000000000000000000000000000000000000000815260040180806020018281038252601c8152602001807f4f776e61626c653a2073656e646572206973206e6f74206f776e65720000000081525060200191505060405180910390fd5b80600360006101000a81548173ffffffffffffffffffffffffffffffffffffffff021916908373ffffffffffffffffffffffffffffffffffffffff16021790555050565b6000809054906101000a900473ffffffffffffffffffffffffffffffffffffffff1673ffffffffffffffffffffffffffffffffffffffff163373ffffffffffffffffffffffffffffffffffffffff1614610e02576040517f08c379a000000000000000000000000000000000000000000000000000000000815260040180806020018281038252601c8152602001807f4f776e61626c653a2073656e646572206973206e6f74206f776e65720000000081525060200191505060405180910390fd5b8060028190555050565b6000808585905011610e1d57600080fd5b828290508585905014610e98576040517f08c379a000000000000000000000000000000000000000000000000000000000815260040180806020018281038252600c8152602001807f696e76616c69642064617461000000000000000000000000000000000000000081525060200191505060405180910390fd5b600080905060008090505b848490508163ffffffff161015610ede5784848263ffffffff16818110610ec657fe5b90506020020135820191508080600101915050610ea3565b50600254811115610f3a576040517f08c379a000000000000000000000000000000000000000000000000000000000815260040180806020018281038252602b815260200180611413602b913960400191505060405180910390fd5b60008090505b868690508163ffffffff1610156110df57600360009054906101000a900473ffffffffffffffffffffffffffffffffffffffff1673ffffffffffffffffffffffffffffffffffffffff166323b872dd600460009054906101000a900473ffffffffffffffffffffffffffffffffffffffff1689898563ffffffff16818110610fc457fe5b9050602002013573ffffffffffffffffffffffffffffffffffffffff1688888663ffffffff16818110610ff357fe5b905060200201356040518463ffffffff1660e01b8152600401808473ffffffffffffffffffffffffffffffffffffffff1673ffffffffffffffffffffffffffffffffffffffff1681526020018373ffffffffffffffffffffffffffffffffffffffff1673ffffffffffffffffffffffffffffffffffffffff1681526020018281526020019350505050602060405180830381600087803b15801561109657600080fd5b505af11580156110aa573d6000803e3d6000fd5b505050506040513d60208110156110c057600080fd5b8101908080519060200190929190505050508080600101915050610f40565b507fc1cf04a6f52b952d85e4a3c64383e878839b74ef190ba6515626704d33060e00338787846001604051808673ffffffffffffffffffffffffffffffffffffffff1673ffffffffffffffffffffffffffffffffffffffff16815260200180602001848152602001831515151581526020018281038252868682818152602001925060200280828437600081840152601f19601f820116905080830192505050965050505050505060405180910390a16001915050949350505050565b600160009054906101000a900473ffffffffffffffffffffffffffffffffffffffff1681565b600060025482111561121f576040517f08c379a000000000000000000000000000000000000000000000000000000000815260040180806020018281038252602b815260200180611413602b913960400191505060405180910390fd5b6000600360009054906101000a900473ffffffffffffffffffffffffffffffffffffffff1673ffffffffffffffffffffffffffffffffffffffff166323b872dd600460009054906101000a900473ffffffffffffffffffffffffffffffffffffffff1686866040518463ffffffff1660e01b8152600401808473ffffffffffffffffffffffffffffffffffffffff1673ffffffffffffffffffffffffffffffffffffffff1681526020018373ffffffffffffffffffffffffffffffffffffffff1673ffffffffffffffffffffffffffffffffffffffff1681526020018281526020019350505050602060405180830381600087803b15801561132057600080fd5b505af1158015611334573d6000803e3d6000fd5b505050506040513d602081101561134a57600080fd5b810190808051906020019092919050505090507f2b664ab52fe561d3ace376046aea39744dd736ec1f67d89d504ffd2192825f6133858584604051808573ffffffffffffffffffffffffffffffffffffffff1673ffffffffffffffffffffffffffffffffffffffff1681526020018473ffffffffffffffffffffffffffffffffffffffff1673ffffffffffffffffffffffffffffffffffffffff1681526020018381526020018215151515815260200194505050505060405180910390a1809150509291505056fe796f752063616e6e6f7420776974686472617720736f206d756368206d6f6e657920617420612074696d65a265627a7a723158201d9df8c68f20915cf0b2c065636f87a25ba014e26b4ff114c8820546d85a3d4664736f6c63430005110032",
  "compiler": {
    "name": "solc",
    "version": "0.5.17+commit.d19bba13.Emscripten.clang",
    "optimizer": {
      "enabled": false,
      "runs": 200
    },
    "evmVersion": "petersburg"
  }
}