{
  "fileName": "FundsManagementContract.sol",
  "contractName": "FundsManagementContract",
  "source": "pragma solidity ^0.5.0;\n\nimport \"./WithdrawInterface.sol\";\nimport \"./DepositInterface.sol\";\nimport \"../libs/SafeMath.sol\";\nimport \"../libs/Ownable.sol\";\n\n\n/// @title Withdraw contract\ncontract FundsManagementContract is WithdrawInterface, DepositInterface, Ownable {\n    \n    using SafeMath for uint256;\n\n    /// @dev ERC20 base contract\n    address public erc20Contract;\n\n    uint256 public limit; // ???\n    address payable public depositFunds; \n\n    constructor(address _contract) public {\n        erc20Contract = _contract;\n        owner = msg.sender;\n        limit = 1000; // limit of 1000 token per withdrawal\n    }\n\n    /// Getters and Setters\n\n    /// @dev Update contract\n    function setNewContract(address newContract) public onlyOwner {\n        erc20Contract = newContract;\n    }\n\n    function setNewLimit(uint256 newLimit) public onlyOwner {\n        limit = newLimit;\n    }\n\n    /// Events\n\n    event Withdraw(address from, address to, uint256 amount, bool success);\n    event BatchWithdraw(address from, address [] to, uint256 amounts, bool success);\n    event ValueReceived(address user, uint amount);\n\n    /// Functions \n\n    function withdraw(address to, uint256 amount) external returns (bool) {\n        require(amount <= limit, 'you cannot withdraw so much money at a time');\n\n        (bool success, bytes memory result) = erc20Contract.delegatecall(\n            abi.encodeWithSignature(\"transferFrom(address,address,uint256)\", msg.sender, to, amount)\n        );\n\n        emit Withdraw(msg.sender, to, amount, success);\n        return abi.decode(result, (bool));\n    }\n\n    /// @dev Check balance on contract for token address\n    function balance(address tokenAddress) external returns (uint256) {\n        (bool success, bytes memory result) = tokenAddress.delegatecall(\n            abi.encodeWithSignature(\"balanceOf(address)\", msg.sender)\n        );\n\n        return abi.decode(result, (uint256));\n    }\n\n    /// @dev Batch withdraw to addresses\n    function batchWithdraw(address [] calldata to, uint256 amounts) external returns (bool) {\n        require(to.length > 0);\n        require(amounts <= limit, 'you cannot withdraw so much money at a time');\n\n        uint256 amount = amounts/to.length;\n\n        for(uint32 i = 0; i < to.length; i++) {\n            (bool success, bytes memory res) = erc20Contract.delegatecall(\n                abi.encodeWithSignature(\"transferFrom(address,address,uint256)\", msg.sender, to[i], amount)\n            );\n        }\n\n        emit BatchWithdraw(msg.sender, to, amounts, true);\n        return true;\n    }\n\n    function() external payable {\n        emit ValueReceived(msg.sender, msg.value);\n    }\n\n    /// @dev Deposit funds to contract balance\n    function deposit() external payable {\n        uint256 value = msg.value;\n        address receiver = msg.sender;\n\n        require(value > 0); \n        require(receiver != address(0)); \n        depositFunds.transfer(msg.value);\n\n        uint256 currencyEsilliumPrice = 1 * (10 * 16); // 0.01 bnb \n        uint256 tokensCount = value.mul(1 ether) / currencyEsilliumPrice;\n\n        erc20Contract.delegatecall(\n            abi.encodeWithSignature(\"transfer(address,uint256)\", receiver, tokensCount)\n        );\n    }\n\n    /// @dev Deposit funds from address to system\n    function depositFrom(address _from) external payable {\n        uint256 value = msg.value;\n        address receiver = msg.sender;\n\n        require(value > 0);\n        require(receiver != address(0));\n        depositFunds.transfer(msg.value);\n\n        uint256 currencyEsilliumPrice = 1 * (10 * 16); // 0.01 bnb \n        uint256 tokensCount = value.mul(1 ether) / currencyEsilliumPrice;\n\n        erc20Contract.delegatecall(\n            abi.encodeWithSignature(\"transferFrom(address,address,uint256)\", _from, receiver, tokensCount)\n        );\n    }\n\n}",
  "sourcePath": "contracts/Withdraw/FundsManagementContract.sol",
  "abi": [
    {
      "inputs": [
        {
          "internalType": "address",
          "name": "_contract",
          "type": "address"
        }
      ],
      "payable": false,
      "stateMutability": "nonpayable",
      "type": "constructor"
    },
    {
      "anonymous": false,
      "inputs": [
        {
          "indexed": false,
          "internalType": "address",
          "name": "from",
          "type": "address"
        },
        {
          "indexed": false,
          "internalType": "address[]",
          "name": "to",
          "type": "address[]"
        },
        {
          "indexed": false,
          "internalType": "uint256",
          "name": "amounts",
          "type": "uint256"
        },
        {
          "indexed": false,
          "internalType": "bool",
          "name": "success",
          "type": "bool"
        }
      ],
      "name": "BatchWithdraw",
      "type": "event"
    },
    {
      "anonymous": false,
      "inputs": [
        {
          "indexed": true,
          "internalType": "address",
          "name": "previousOwner",
          "type": "address"
        },
        {
          "indexed": true,
          "internalType": "address",
          "name": "newOwner",
          "type": "address"
        }
      ],
      "name": "OwnershipTransferred",
      "type": "event"
    },
    {
      "anonymous": false,
      "inputs": [
        {
          "indexed": false,
          "internalType": "address",
          "name": "user",
          "type": "address"
        },
        {
          "indexed": false,
          "internalType": "uint256",
          "name": "amount",
          "type": "uint256"
        }
      ],
      "name": "ValueReceived",
      "type": "event"
    },
    {
      "anonymous": false,
      "inputs": [
        {
          "indexed": false,
          "internalType": "address",
          "name": "from",
          "type": "address"
        },
        {
          "indexed": false,
          "internalType": "address",
          "name": "to",
          "type": "address"
        },
        {
          "indexed": false,
          "internalType": "uint256",
          "name": "amount",
          "type": "uint256"
        },
        {
          "indexed": false,
          "internalType": "bool",
          "name": "success",
          "type": "bool"
        }
      ],
      "name": "Withdraw",
      "type": "event"
    },
    {
      "payable": true,
      "stateMutability": "payable",
      "type": "fallback"
    },
    {
      "constant": false,
      "inputs": [
        {
          "internalType": "address",
          "name": "tokenAddress",
          "type": "address"
        }
      ],
      "name": "balance",
      "outputs": [
        {
          "internalType": "uint256",
          "name": "",
          "type": "uint256"
        }
      ],
      "payable": false,
      "stateMutability": "nonpayable",
      "type": "function"
    },
    {
      "constant": false,
      "inputs": [
        {
          "internalType": "address[]",
          "name": "to",
          "type": "address[]"
        },
        {
          "internalType": "uint256",
          "name": "amounts",
          "type": "uint256"
        }
      ],
      "name": "batchWithdraw",
      "outputs": [
        {
          "internalType": "bool",
          "name": "",
          "type": "bool"
        }
      ],
      "payable": false,
      "stateMutability": "nonpayable",
      "type": "function"
    },
    {
      "constant": false,
      "inputs": [],
      "name": "deposit",
      "outputs": [],
      "payable": true,
      "stateMutability": "payable",
      "type": "function"
    },
    {
      "constant": false,
      "inputs": [
        {
          "internalType": "address",
          "name": "_from",
          "type": "address"
        }
      ],
      "name": "depositFrom",
      "outputs": [],
      "payable": true,
      "stateMutability": "payable",
      "type": "function"
    },
    {
      "constant": true,
      "inputs": [],
      "name": "depositFunds",
      "outputs": [
        {
          "internalType": "address payable",
          "name": "",
          "type": "address"
        }
      ],
      "payable": false,
      "stateMutability": "view",
      "type": "function"
    },
    {
      "constant": true,
      "inputs": [],
      "name": "erc20Contract",
      "outputs": [
        {
          "internalType": "address",
          "name": "",
          "type": "address"
        }
      ],
      "payable": false,
      "stateMutability": "view",
      "type": "function"
    },
    {
      "constant": true,
      "inputs": [],
      "name": "limit",
      "outputs": [
        {
          "internalType": "uint256",
          "name": "",
          "type": "uint256"
        }
      ],
      "payable": false,
      "stateMutability": "view",
      "type": "function"
    },
    {
      "constant": true,
      "inputs": [],
      "name": "owner",
      "outputs": [
        {
          "internalType": "address",
          "name": "",
          "type": "address"
        }
      ],
      "payable": false,
      "stateMutability": "view",
      "type": "function"
    },
    {
      "constant": false,
      "inputs": [
        {
          "internalType": "address",
          "name": "newContract",
          "type": "address"
        }
      ],
      "name": "setNewContract",
      "outputs": [],
      "payable": false,
      "stateMutability": "nonpayable",
      "type": "function"
    },
    {
      "constant": false,
      "inputs": [
        {
          "internalType": "uint256",
          "name": "newLimit",
          "type": "uint256"
        }
      ],
      "name": "setNewLimit",
      "outputs": [],
      "payable": false,
      "stateMutability": "nonpayable",
      "type": "function"
    },
    {
      "constant": false,
      "inputs": [
        {
          "internalType": "address",
          "name": "to",
          "type": "address"
        },
        {
          "internalType": "uint256",
          "name": "amount",
          "type": "uint256"
        }
      ],
      "name": "withdraw",
      "outputs": [
        {
          "internalType": "bool",
          "name": "",
          "type": "bool"
        }
      ],
      "payable": false,
      "stateMutability": "nonpayable",
      "type": "function"
    }
  ],
  "bytecode": "0x608060405234801561001057600080fd5b506040516115983803806115988339818101604052602081101561003357600080fd5b810190808051906020019092919050505080600160006101000a81548173ffffffffffffffffffffffffffffffffffffffff021916908373ffffffffffffffffffffffffffffffffffffffff160217905550336000806101000a81548173ffffffffffffffffffffffffffffffffffffffff021916908373ffffffffffffffffffffffffffffffffffffffff1602179055506103e8600281905550506114ba806100de6000396000f3fe60806040526004361061009c5760003560e01c8063d35a904d11610064578063d35a904d14610294578063d5d72e97146102d8578063d7e612d114610329578063e2c41dbc14610364578063e3d670d7146103bb578063f3fef3a3146104205761009c565b806314175a42146101095780638da5cb5b146101b1578063a4d66daf14610208578063a8f6c91314610233578063d0e30db01461028a575b7f7e71433ddf847725166244795048ecf3e3f9f35628254ecbf7360566642334933334604051808373ffffffffffffffffffffffffffffffffffffffff1673ffffffffffffffffffffffffffffffffffffffff1681526020018281526020019250505060405180910390a1005b34801561011557600080fd5b506101976004803603604081101561012c57600080fd5b810190808035906020019064010000000081111561014957600080fd5b82018360208201111561015b57600080fd5b8035906020019184602083028401116401000000008311171561017d57600080fd5b909192939192939080359060200190929190505050610493565b604051808215151515815260200191505060405180910390f35b3480156101bd57600080fd5b506101c66107f0565b604051808273ffffffffffffffffffffffffffffffffffffffff1673ffffffffffffffffffffffffffffffffffffffff16815260200191505060405180910390f35b34801561021457600080fd5b5061021d610815565b6040518082815260200191505060405180910390f35b34801561023f57600080fd5b5061024861081b565b604051808273ffffffffffffffffffffffffffffffffffffffff1673ffffffffffffffffffffffffffffffffffffffff16815260200191505060405180910390f35b610292610841565b005b6102d6600480360360208110156102aa57600080fd5b81019080803573ffffffffffffffffffffffffffffffffffffffff169060200190929190505050610ac5565b005b3480156102e457600080fd5b50610327600480360360208110156102fb57600080fd5b81019080803573ffffffffffffffffffffffffffffffffffffffff169060200190929190505050610d7e565b005b34801561033557600080fd5b506103626004803603602081101561034c57600080fd5b8101908080359060200190929190505050610e84565b005b34801561037057600080fd5b50610379610f50565b604051808273ffffffffffffffffffffffffffffffffffffffff1673ffffffffffffffffffffffffffffffffffffffff16815260200191505060405180910390f35b3480156103c757600080fd5b5061040a600480360360208110156103de57600080fd5b81019080803573ffffffffffffffffffffffffffffffffffffffff169060200190929190505050610f76565b6040518082815260200191505060405180910390f35b34801561042c57600080fd5b506104796004803603604081101561044357600080fd5b81019080803573ffffffffffffffffffffffffffffffffffffffff16906020019092919080359060200190929190505050611118565b604051808215151515815260200191505060405180910390f35b60008084849050116104a457600080fd5b6002548211156104ff576040517f08c379a000000000000000000000000000000000000000000000000000000000815260040180806020018281038252602b81526020018061145b602b913960400191505060405180910390fd5b600084849050838161050d57fe5b04905060008090505b858590508163ffffffff1610156107345760006060600160009054906101000a900473ffffffffffffffffffffffffffffffffffffffff1673ffffffffffffffffffffffffffffffffffffffff163389898663ffffffff1681811061057757fe5b9050602002013573ffffffffffffffffffffffffffffffffffffffff1686604051602401808473ffffffffffffffffffffffffffffffffffffffff1673ffffffffffffffffffffffffffffffffffffffff1681526020018373ffffffffffffffffffffffffffffffffffffffff1673ffffffffffffffffffffffffffffffffffffffff16815260200182815260200193505050506040516020818303038152906040527f23b872dd000000000000000000000000000000000000000000000000000000007bffffffffffffffffffffffffffffffffffffffffffffffffffffffff19166020820180517bffffffffffffffffffffffffffffffffffffffffffffffffffffffff83818316178352505050506040518082805190602001908083835b602083106106bb5780518252602082019150602081019050602083039250610698565b6001836020036101000a038019825116818451168082178552505050505050905001915050600060405180830381855af49150503d806000811461071b576040519150601f19603f3d011682016040523d82523d6000602084013e610720565b606091505b509150915050508080600101915050610516565b507fc1cf04a6f52b952d85e4a3c64383e878839b74ef190ba6515626704d33060e00338686866001604051808673ffffffffffffffffffffffffffffffffffffffff1673ffffffffffffffffffffffffffffffffffffffff16815260200180602001848152602001831515151581526020018281038252868682818152602001925060200280828437600081840152601f19601f820116905080830192505050965050505050505060405180910390a160019150509392505050565b6000809054906101000a900473ffffffffffffffffffffffffffffffffffffffff1681565b60025481565b600160009054906101000a900473ffffffffffffffffffffffffffffffffffffffff1681565b600034905060003390506000821161085857600080fd5b600073ffffffffffffffffffffffffffffffffffffffff168173ffffffffffffffffffffffffffffffffffffffff16141561089257600080fd5b600360009054906101000a900473ffffffffffffffffffffffffffffffffffffffff1673ffffffffffffffffffffffffffffffffffffffff166108fc349081150290604051600060405180830381858888f193505050501580156108fa573d6000803e3d6000fd5b50600060a0905060008161091f670de0b6b3a76400008661142090919063ffffffff16565b8161092657fe5b049050600160009054906101000a900473ffffffffffffffffffffffffffffffffffffffff1673ffffffffffffffffffffffffffffffffffffffff168382604051602401808373ffffffffffffffffffffffffffffffffffffffff1673ffffffffffffffffffffffffffffffffffffffff168152602001828152602001925050506040516020818303038152906040527fa9059cbb000000000000000000000000000000000000000000000000000000007bffffffffffffffffffffffffffffffffffffffffffffffffffffffff19166020820180517bffffffffffffffffffffffffffffffffffffffffffffffffffffffff83818316178352505050506040518082805190602001908083835b60208310610a575780518252602082019150602081019050602083039250610a34565b6001836020036101000a038019825116818451168082178552505050505050905001915050600060405180830381855af49150503d8060008114610ab7576040519150601f19603f3d011682016040523d82523d6000602084013e610abc565b606091505b50505050505050565b6000349050600033905060008211610adc57600080fd5b600073ffffffffffffffffffffffffffffffffffffffff168173ffffffffffffffffffffffffffffffffffffffff161415610b1657600080fd5b600360009054906101000a900473ffffffffffffffffffffffffffffffffffffffff1673ffffffffffffffffffffffffffffffffffffffff166108fc349081150290604051600060405180830381858888f19350505050158015610b7e573d6000803e3d6000fd5b50600060a09050600081610ba3670de0b6b3a76400008661142090919063ffffffff16565b81610baa57fe5b049050600160009054906101000a900473ffffffffffffffffffffffffffffffffffffffff1673ffffffffffffffffffffffffffffffffffffffff16858483604051602401808473ffffffffffffffffffffffffffffffffffffffff1673ffffffffffffffffffffffffffffffffffffffff1681526020018373ffffffffffffffffffffffffffffffffffffffff1673ffffffffffffffffffffffffffffffffffffffff16815260200182815260200193505050506040516020818303038152906040527f23b872dd000000000000000000000000000000000000000000000000000000007bffffffffffffffffffffffffffffffffffffffffffffffffffffffff19166020820180517bffffffffffffffffffffffffffffffffffffffffffffffffffffffff83818316178352505050506040518082805190602001908083835b60208310610d0f5780518252602082019150602081019050602083039250610cec565b6001836020036101000a038019825116818451168082178552505050505050905001915050600060405180830381855af49150503d8060008114610d6f576040519150601f19603f3d011682016040523d82523d6000602084013e610d74565b606091505b5050505050505050565b6000809054906101000a900473ffffffffffffffffffffffffffffffffffffffff1673ffffffffffffffffffffffffffffffffffffffff163373ffffffffffffffffffffffffffffffffffffffff1614610e40576040517f08c379a000000000000000000000000000000000000000000000000000000000815260040180806020018281038252601c8152602001807f4f776e61626c653a2073656e646572206973206e6f74206f776e65720000000081525060200191505060405180910390fd5b80600160006101000a81548173ffffffffffffffffffffffffffffffffffffffff021916908373ffffffffffffffffffffffffffffffffffffffff16021790555050565b6000809054906101000a900473ffffffffffffffffffffffffffffffffffffffff1673ffffffffffffffffffffffffffffffffffffffff163373ffffffffffffffffffffffffffffffffffffffff1614610f46576040517f08c379a000000000000000000000000000000000000000000000000000000000815260040180806020018281038252601c8152602001807f4f776e61626c653a2073656e646572206973206e6f74206f776e65720000000081525060200191505060405180910390fd5b8060028190555050565b600360009054906101000a900473ffffffffffffffffffffffffffffffffffffffff1681565b60008060608373ffffffffffffffffffffffffffffffffffffffff1633604051602401808273ffffffffffffffffffffffffffffffffffffffff1673ffffffffffffffffffffffffffffffffffffffff1681526020019150506040516020818303038152906040527f70a08231000000000000000000000000000000000000000000000000000000007bffffffffffffffffffffffffffffffffffffffffffffffffffffffff19166020820180517bffffffffffffffffffffffffffffffffffffffffffffffffffffffff83818316178352505050506040518082805190602001908083835b6020831061107f578051825260208201915060208101905060208303925061105c565b6001836020036101000a038019825116818451168082178552505050505050905001915050600060405180830381855af49150503d80600081146110df576040519150601f19603f3d011682016040523d82523d6000602084013e6110e4565b606091505b50915091508080602001905160208110156110fe57600080fd5b810190808051906020019092919050505092505050919050565b6000600254821115611175576040517f08c379a000000000000000000000000000000000000000000000000000000000815260040180806020018281038252602b81526020018061145b602b913960400191505060405180910390fd5b60006060600160009054906101000a900473ffffffffffffffffffffffffffffffffffffffff1673ffffffffffffffffffffffffffffffffffffffff16338686604051602401808473ffffffffffffffffffffffffffffffffffffffff1673ffffffffffffffffffffffffffffffffffffffff1681526020018373ffffffffffffffffffffffffffffffffffffffff1673ffffffffffffffffffffffffffffffffffffffff16815260200182815260200193505050506040516020818303038152906040527f23b872dd000000000000000000000000000000000000000000000000000000007bffffffffffffffffffffffffffffffffffffffffffffffffffffffff19166020820180517bffffffffffffffffffffffffffffffffffffffffffffffffffffffff83818316178352505050506040518082805190602001908083835b602083106112db57805182526020820191506020810190506020830392506112b8565b6001836020036101000a038019825116818451168082178552505050505050905001915050600060405180830381855af49150503d806000811461133b576040519150601f19603f3d011682016040523d82523d6000602084013e611340565b606091505b50915091507f2b664ab52fe561d3ace376046aea39744dd736ec1f67d89d504ffd2192825f6133868685604051808573ffffffffffffffffffffffffffffffffffffffff1673ffffffffffffffffffffffffffffffffffffffff1681526020018473ffffffffffffffffffffffffffffffffffffffff1673ffffffffffffffffffffffffffffffffffffffff1681526020018381526020018215151515815260200194505050505060405180910390a180806020019051602081101561140557600080fd5b81019080805190602001909291905050509250505092915050565b6000808314156114335760009050611454565b600082840290508284828161144457fe5b041461144f57600080fd5b809150505b9291505056fe796f752063616e6e6f7420776974686472617720736f206d756368206d6f6e657920617420612074696d65a265627a7a7231582067b521a98f41754e0c500223b3fe3222d34acc651daa553c0dd971e02fede69564736f6c63430005110032",
  "compiler": {
    "name": "solc",
    "version": "0.5.17+commit.d19bba13.Emscripten.clang",
    "optimizer": {
      "enabled": false,
      "runs": 200
    },
    "evmVersion": "petersburg"
  }
}