{
  "fileName": "FundsManagementContract.sol",
  "contractName": "FundsManagementContract",
  "source": "pragma solidity ^0.5.0;\n\nimport \"./WithdrawInterface.sol\";\nimport \"./DepositInterface.sol\";\nimport \"../libs/Ownable.sol\";\nimport \"../ERC/IERC20.sol\";\n\n\n/// @title Withdraw contract\ncontract FundsManagementContract is WithdrawInterface, DepositInterface, Ownable {\n\n    address payable public depositFunds;\n    uint256 public limit;\n\n    /// @dev ERC20 base contract\n    address public erc20Contract;\n\n    constructor(address _contract) public {\n        erc20Contract = _contract;\n        // 0x184fc447d59a3904c88935615af5A6e550EabfDb\n        owner = msg.sender;\n        limit = 1000;\n        // limit of 1000 token per withdrawal\n    }\n\n    /// Getters and Setters\n\n    /// @dev Update contract\n    function setNewContract(address newContract) public onlyOwner {\n        erc20Contract = newContract;\n    }\n\n    function setNewLimit(uint256 newLimit) public onlyOwner {\n        limit = newLimit;\n    }\n\n    /// Events\n\n    event Withdraw(address from, address to, uint256 amount, bool success);\n    event BatchWithdraw(address from, address [] to, uint256 amounts, bool success);\n    event ValueReceived(address user, uint amount);\n\n    /// Functions\n\n    function withdraw(address to, uint256 amount) external returns (bool) {\n        require(amount <= limit, 'you cannot withdraw so much money at a time');\n\n        (bool success, bytes memory result) = erc20Contract.delegatecall(\n            abi.encodeWithSignature(\"transferFrom(address,address,uint256)\", msg.sender, to, amount)\n        );\n\n        emit Withdraw(msg.sender, to, amount, success);\n        return abi.decode(result, (bool));\n    }\n\n    /// @dev Check balance on contract for token address\n    function balance() view external returns (uint256) {\n        address tokensOwner = Ownable(erc20Contract).owner();\n        return IERC20(erc20Contract).allowance(tokensOwner, address(this));\n    }\n\n    function balanceOf(address user) view external returns (uint256) {\n        return IERC20(erc20Contract).balanceOf(user);\n    }\n\n    /// @dev Batch withdraw to addresses\n    function batchWithdraw(address [] calldata to, uint256 amounts) external returns (bool) {\n        require(to.length > 0);\n        require(amounts <= limit, 'you cannot withdraw so much money at a time');\n\n        uint256 amount = amounts / to.length;\n\n        for (uint32 i = 0; i < to.length; i++) {\n            (bool success, bytes memory res) = erc20Contract.delegatecall(\n                abi.encodeWithSignature(\"transferFrom(address,address,uint256)\", msg.sender, to[i], amount)\n            );\n        }\n\n        emit BatchWithdraw(msg.sender, to, amounts, true);\n        return true;\n    }\n\n    /// @dev Disable receiving funds to contract address\n    function() external payable {\n        revert();\n    }\n\n    /// @dev Deposit funds to contract balance\n    function deposit() external payable {\n        uint256 value = msg.value;\n        address receiver = msg.sender;\n\n        require(value > 0);\n        require(receiver != address(0));\n        uint256 currencyEsilliumPrice = 10000000000000;\n        // 0.00001 bnb\n        uint256 tokensCount = value / currencyEsilliumPrice;\n\n        IERC20(erc20Contract).transferFrom(Ownable(erc20Contract).owner(), receiver, tokensCount);\n        address(uint160(owner)).transfer(msg.value);\n    }\n\n    /// @dev Deposit funds from address to system\n    function depositFrom(address _from) external payable {\n        uint256 value = msg.value;\n        address receiver = msg.sender;\n\n        require(value > 0);\n        require(receiver != address(0));\n        address(uint160(owner)).transfer(msg.value);\n\n        uint256 currencyEsilliumPrice = 10000000000000;\n        // 0.00001 bnb\n        uint256 tokensCount = value / currencyEsilliumPrice;\n\n        erc20Contract.delegatecall(\n            abi.encodeWithSignature(\"transferFrom(address,address,uint256)\", _from, receiver, tokensCount)\n        );\n    }\n\n}",
  "sourcePath": "contracts/Withdraw/FundsManagementContract.sol",
  "abi": [
    {
      "inputs": [
        {
          "internalType": "address",
          "name": "_contract",
          "type": "address"
        }
      ],
      "payable": false,
      "stateMutability": "nonpayable",
      "type": "constructor"
    },
    {
      "anonymous": false,
      "inputs": [
        {
          "indexed": false,
          "internalType": "address",
          "name": "from",
          "type": "address"
        },
        {
          "indexed": false,
          "internalType": "address[]",
          "name": "to",
          "type": "address[]"
        },
        {
          "indexed": false,
          "internalType": "uint256",
          "name": "amounts",
          "type": "uint256"
        },
        {
          "indexed": false,
          "internalType": "bool",
          "name": "success",
          "type": "bool"
        }
      ],
      "name": "BatchWithdraw",
      "type": "event"
    },
    {
      "anonymous": false,
      "inputs": [
        {
          "indexed": true,
          "internalType": "address",
          "name": "previousOwner",
          "type": "address"
        },
        {
          "indexed": true,
          "internalType": "address",
          "name": "newOwner",
          "type": "address"
        }
      ],
      "name": "OwnershipTransferred",
      "type": "event"
    },
    {
      "anonymous": false,
      "inputs": [
        {
          "indexed": false,
          "internalType": "address",
          "name": "user",
          "type": "address"
        },
        {
          "indexed": false,
          "internalType": "uint256",
          "name": "amount",
          "type": "uint256"
        }
      ],
      "name": "ValueReceived",
      "type": "event"
    },
    {
      "anonymous": false,
      "inputs": [
        {
          "indexed": false,
          "internalType": "address",
          "name": "from",
          "type": "address"
        },
        {
          "indexed": false,
          "internalType": "address",
          "name": "to",
          "type": "address"
        },
        {
          "indexed": false,
          "internalType": "uint256",
          "name": "amount",
          "type": "uint256"
        },
        {
          "indexed": false,
          "internalType": "bool",
          "name": "success",
          "type": "bool"
        }
      ],
      "name": "Withdraw",
      "type": "event"
    },
    {
      "payable": true,
      "stateMutability": "payable",
      "type": "fallback"
    },
    {
      "constant": true,
      "inputs": [],
      "name": "balance",
      "outputs": [
        {
          "internalType": "uint256",
          "name": "",
          "type": "uint256"
        }
      ],
      "payable": false,
      "stateMutability": "view",
      "type": "function"
    },
    {
      "constant": true,
      "inputs": [
        {
          "internalType": "address",
          "name": "user",
          "type": "address"
        }
      ],
      "name": "balanceOf",
      "outputs": [
        {
          "internalType": "uint256",
          "name": "",
          "type": "uint256"
        }
      ],
      "payable": false,
      "stateMutability": "view",
      "type": "function"
    },
    {
      "constant": false,
      "inputs": [
        {
          "internalType": "address[]",
          "name": "to",
          "type": "address[]"
        },
        {
          "internalType": "uint256",
          "name": "amounts",
          "type": "uint256"
        }
      ],
      "name": "batchWithdraw",
      "outputs": [
        {
          "internalType": "bool",
          "name": "",
          "type": "bool"
        }
      ],
      "payable": false,
      "stateMutability": "nonpayable",
      "type": "function"
    },
    {
      "constant": false,
      "inputs": [],
      "name": "deposit",
      "outputs": [],
      "payable": true,
      "stateMutability": "payable",
      "type": "function"
    },
    {
      "constant": false,
      "inputs": [
        {
          "internalType": "address",
          "name": "_from",
          "type": "address"
        }
      ],
      "name": "depositFrom",
      "outputs": [],
      "payable": true,
      "stateMutability": "payable",
      "type": "function"
    },
    {
      "constant": true,
      "inputs": [],
      "name": "depositFunds",
      "outputs": [
        {
          "internalType": "address payable",
          "name": "",
          "type": "address"
        }
      ],
      "payable": false,
      "stateMutability": "view",
      "type": "function"
    },
    {
      "constant": true,
      "inputs": [],
      "name": "erc20Contract",
      "outputs": [
        {
          "internalType": "address",
          "name": "",
          "type": "address"
        }
      ],
      "payable": false,
      "stateMutability": "view",
      "type": "function"
    },
    {
      "constant": true,
      "inputs": [],
      "name": "limit",
      "outputs": [
        {
          "internalType": "uint256",
          "name": "",
          "type": "uint256"
        }
      ],
      "payable": false,
      "stateMutability": "view",
      "type": "function"
    },
    {
      "constant": true,
      "inputs": [],
      "name": "owner",
      "outputs": [
        {
          "internalType": "address",
          "name": "",
          "type": "address"
        }
      ],
      "payable": false,
      "stateMutability": "view",
      "type": "function"
    },
    {
      "constant": false,
      "inputs": [
        {
          "internalType": "address",
          "name": "newContract",
          "type": "address"
        }
      ],
      "name": "setNewContract",
      "outputs": [],
      "payable": false,
      "stateMutability": "nonpayable",
      "type": "function"
    },
    {
      "constant": false,
      "inputs": [
        {
          "internalType": "uint256",
          "name": "newLimit",
          "type": "uint256"
        }
      ],
      "name": "setNewLimit",
      "outputs": [],
      "payable": false,
      "stateMutability": "nonpayable",
      "type": "function"
    },
    {
      "constant": false,
      "inputs": [
        {
          "internalType": "address",
          "name": "to",
          "type": "address"
        },
        {
          "internalType": "uint256",
          "name": "amount",
          "type": "uint256"
        }
      ],
      "name": "withdraw",
      "outputs": [
        {
          "internalType": "bool",
          "name": "",
          "type": "bool"
        }
      ],
      "payable": false,
      "stateMutability": "nonpayable",
      "type": "function"
    }
  ],
  "bytecode": "0x608060405234801561001057600080fd5b506040516116223803806116228339818101604052602081101561003357600080fd5b810190808051906020019092919050505080600360006101000a81548173ffffffffffffffffffffffffffffffffffffffff021916908373ffffffffffffffffffffffffffffffffffffffff160217905550336000806101000a81548173ffffffffffffffffffffffffffffffffffffffff021916908373ffffffffffffffffffffffffffffffffffffffff1602179055506103e860028190555050611544806100de6000396000f3fe6080604052600436106100a75760003560e01c8063d0e30db011610064578063d0e30db0146102bd578063d35a904d146102c7578063d5d72e971461030b578063d7e612d11461035c578063e2c41dbc14610397578063f3fef3a3146103ee576100a7565b806314175a42146100ac57806370a08231146101545780638da5cb5b146101b9578063a4d66daf14610210578063a8f6c9131461023b578063b69ef8a814610292575b600080fd5b3480156100b857600080fd5b5061013a600480360360408110156100cf57600080fd5b81019080803590602001906401000000008111156100ec57600080fd5b8201836020820111156100fe57600080fd5b8035906020019184602083028401116401000000008311171561012057600080fd5b909192939192939080359060200190929190505050610461565b604051808215151515815260200191505060405180910390f35b34801561016057600080fd5b506101a36004803603602081101561017757600080fd5b81019080803573ffffffffffffffffffffffffffffffffffffffff1690602001909291905050506107be565b6040518082815260200191505060405180910390f35b3480156101c557600080fd5b506101ce6108a1565b604051808273ffffffffffffffffffffffffffffffffffffffff1673ffffffffffffffffffffffffffffffffffffffff16815260200191505060405180910390f35b34801561021c57600080fd5b506102256108c6565b6040518082815260200191505060405180910390f35b34801561024757600080fd5b506102506108cc565b604051808273ffffffffffffffffffffffffffffffffffffffff1673ffffffffffffffffffffffffffffffffffffffff16815260200191505060405180910390f35b34801561029e57600080fd5b506102a76108f2565b6040518082815260200191505060405180910390f35b6102c5610aae565b005b610309600480360360208110156102dd57600080fd5b81019080803573ffffffffffffffffffffffffffffffffffffffff169060200190929190505050610d41565b005b34801561031757600080fd5b5061035a6004803603602081101561032e57600080fd5b81019080803573ffffffffffffffffffffffffffffffffffffffff169060200190929190505050610fe4565b005b34801561036857600080fd5b506103956004803603602081101561037f57600080fd5b81019080803590602001909291905050506110ea565b005b3480156103a357600080fd5b506103ac6111b6565b604051808273ffffffffffffffffffffffffffffffffffffffff1673ffffffffffffffffffffffffffffffffffffffff16815260200191505060405180910390f35b3480156103fa57600080fd5b506104476004803603604081101561041157600080fd5b81019080803573ffffffffffffffffffffffffffffffffffffffff169060200190929190803590602001909291905050506111dc565b604051808215151515815260200191505060405180910390f35b600080848490501161047257600080fd5b6002548211156104cd576040517f08c379a000000000000000000000000000000000000000000000000000000000815260040180806020018281038252602b8152602001806114e5602b913960400191505060405180910390fd5b60008484905083816104db57fe5b04905060008090505b858590508163ffffffff1610156107025760006060600360009054906101000a900473ffffffffffffffffffffffffffffffffffffffff1673ffffffffffffffffffffffffffffffffffffffff163389898663ffffffff1681811061054557fe5b9050602002013573ffffffffffffffffffffffffffffffffffffffff1686604051602401808473ffffffffffffffffffffffffffffffffffffffff1673ffffffffffffffffffffffffffffffffffffffff1681526020018373ffffffffffffffffffffffffffffffffffffffff1673ffffffffffffffffffffffffffffffffffffffff16815260200182815260200193505050506040516020818303038152906040527f23b872dd000000000000000000000000000000000000000000000000000000007bffffffffffffffffffffffffffffffffffffffffffffffffffffffff19166020820180517bffffffffffffffffffffffffffffffffffffffffffffffffffffffff83818316178352505050506040518082805190602001908083835b602083106106895780518252602082019150602081019050602083039250610666565b6001836020036101000a038019825116818451168082178552505050505050905001915050600060405180830381855af49150503d80600081146106e9576040519150601f19603f3d011682016040523d82523d6000602084013e6106ee565b606091505b5091509150505080806001019150506104e4565b507fc1cf04a6f52b952d85e4a3c64383e878839b74ef190ba6515626704d33060e00338686866001604051808673ffffffffffffffffffffffffffffffffffffffff1673ffffffffffffffffffffffffffffffffffffffff16815260200180602001848152602001831515151581526020018281038252868682818152602001925060200280828437600081840152601f19601f820116905080830192505050965050505050505060405180910390a160019150509392505050565b6000600360009054906101000a900473ffffffffffffffffffffffffffffffffffffffff1673ffffffffffffffffffffffffffffffffffffffff166370a08231836040518263ffffffff1660e01b8152600401808273ffffffffffffffffffffffffffffffffffffffff1673ffffffffffffffffffffffffffffffffffffffff16815260200191505060206040518083038186803b15801561085f57600080fd5b505afa158015610873573d6000803e3d6000fd5b505050506040513d602081101561088957600080fd5b81019080805190602001909291905050509050919050565b6000809054906101000a900473ffffffffffffffffffffffffffffffffffffffff1681565b60025481565b600360009054906101000a900473ffffffffffffffffffffffffffffffffffffffff1681565b600080600360009054906101000a900473ffffffffffffffffffffffffffffffffffffffff1673ffffffffffffffffffffffffffffffffffffffff16638da5cb5b6040518163ffffffff1660e01b815260040160206040518083038186803b15801561095d57600080fd5b505afa158015610971573d6000803e3d6000fd5b505050506040513d602081101561098757600080fd5b81019080805190602001909291905050509050600360009054906101000a900473ffffffffffffffffffffffffffffffffffffffff1673ffffffffffffffffffffffffffffffffffffffff1663dd62ed3e82306040518363ffffffff1660e01b8152600401808373ffffffffffffffffffffffffffffffffffffffff1673ffffffffffffffffffffffffffffffffffffffff1681526020018273ffffffffffffffffffffffffffffffffffffffff1673ffffffffffffffffffffffffffffffffffffffff1681526020019250505060206040518083038186803b158015610a6d57600080fd5b505afa158015610a81573d6000803e3d6000fd5b505050506040513d6020811015610a9757600080fd5b810190808051906020019092919050505091505090565b6000349050600033905060008211610ac557600080fd5b600073ffffffffffffffffffffffffffffffffffffffff168173ffffffffffffffffffffffffffffffffffffffff161415610aff57600080fd5b60006509184e72a00090506000818481610b1557fe5b049050600360009054906101000a900473ffffffffffffffffffffffffffffffffffffffff1673ffffffffffffffffffffffffffffffffffffffff166323b872dd600360009054906101000a900473ffffffffffffffffffffffffffffffffffffffff1673ffffffffffffffffffffffffffffffffffffffff16638da5cb5b6040518163ffffffff1660e01b815260040160206040518083038186803b158015610bbe57600080fd5b505afa158015610bd2573d6000803e3d6000fd5b505050506040513d6020811015610be857600080fd5b810190808051906020019092919050505085846040518463ffffffff1660e01b8152600401808473ffffffffffffffffffffffffffffffffffffffff1673ffffffffffffffffffffffffffffffffffffffff1681526020018373ffffffffffffffffffffffffffffffffffffffff1673ffffffffffffffffffffffffffffffffffffffff1681526020018281526020019350505050602060405180830381600087803b158015610c9757600080fd5b505af1158015610cab573d6000803e3d6000fd5b505050506040513d6020811015610cc157600080fd5b8101908080519060200190929190505050506000809054906101000a900473ffffffffffffffffffffffffffffffffffffffff1673ffffffffffffffffffffffffffffffffffffffff166108fc349081150290604051600060405180830381858888f19350505050158015610d3a573d6000803e3d6000fd5b5050505050565b6000349050600033905060008211610d5857600080fd5b600073ffffffffffffffffffffffffffffffffffffffff168173ffffffffffffffffffffffffffffffffffffffff161415610d9257600080fd5b6000809054906101000a900473ffffffffffffffffffffffffffffffffffffffff1673ffffffffffffffffffffffffffffffffffffffff166108fc349081150290604051600060405180830381858888f19350505050158015610df9573d6000803e3d6000fd5b5060006509184e72a00090506000818481610e1057fe5b049050600360009054906101000a900473ffffffffffffffffffffffffffffffffffffffff1673ffffffffffffffffffffffffffffffffffffffff16858483604051602401808473ffffffffffffffffffffffffffffffffffffffff1673ffffffffffffffffffffffffffffffffffffffff1681526020018373ffffffffffffffffffffffffffffffffffffffff1673ffffffffffffffffffffffffffffffffffffffff16815260200182815260200193505050506040516020818303038152906040527f23b872dd000000000000000000000000000000000000000000000000000000007bffffffffffffffffffffffffffffffffffffffffffffffffffffffff19166020820180517bffffffffffffffffffffffffffffffffffffffffffffffffffffffff83818316178352505050506040518082805190602001908083835b60208310610f755780518252602082019150602081019050602083039250610f52565b6001836020036101000a038019825116818451168082178552505050505050905001915050600060405180830381855af49150503d8060008114610fd5576040519150601f19603f3d011682016040523d82523d6000602084013e610fda565b606091505b5050505050505050565b6000809054906101000a900473ffffffffffffffffffffffffffffffffffffffff1673ffffffffffffffffffffffffffffffffffffffff163373ffffffffffffffffffffffffffffffffffffffff16146110a6576040517f08c379a000000000000000000000000000000000000000000000000000000000815260040180806020018281038252601c8152602001807f4f776e61626c653a2073656e646572206973206e6f74206f776e65720000000081525060200191505060405180910390fd5b80600360006101000a81548173ffffffffffffffffffffffffffffffffffffffff021916908373ffffffffffffffffffffffffffffffffffffffff16021790555050565b6000809054906101000a900473ffffffffffffffffffffffffffffffffffffffff1673ffffffffffffffffffffffffffffffffffffffff163373ffffffffffffffffffffffffffffffffffffffff16146111ac576040517f08c379a000000000000000000000000000000000000000000000000000000000815260040180806020018281038252601c8152602001807f4f776e61626c653a2073656e646572206973206e6f74206f776e65720000000081525060200191505060405180910390fd5b8060028190555050565b600160009054906101000a900473ffffffffffffffffffffffffffffffffffffffff1681565b6000600254821115611239576040517f08c379a000000000000000000000000000000000000000000000000000000000815260040180806020018281038252602b8152602001806114e5602b913960400191505060405180910390fd5b60006060600360009054906101000a900473ffffffffffffffffffffffffffffffffffffffff1673ffffffffffffffffffffffffffffffffffffffff16338686604051602401808473ffffffffffffffffffffffffffffffffffffffff1673ffffffffffffffffffffffffffffffffffffffff1681526020018373ffffffffffffffffffffffffffffffffffffffff1673ffffffffffffffffffffffffffffffffffffffff16815260200182815260200193505050506040516020818303038152906040527f23b872dd000000000000000000000000000000000000000000000000000000007bffffffffffffffffffffffffffffffffffffffffffffffffffffffff19166020820180517bffffffffffffffffffffffffffffffffffffffffffffffffffffffff83818316178352505050506040518082805190602001908083835b6020831061139f578051825260208201915060208101905060208303925061137c565b6001836020036101000a038019825116818451168082178552505050505050905001915050600060405180830381855af49150503d80600081146113ff576040519150601f19603f3d011682016040523d82523d6000602084013e611404565b606091505b50915091507f2b664ab52fe561d3ace376046aea39744dd736ec1f67d89d504ffd2192825f6133868685604051808573ffffffffffffffffffffffffffffffffffffffff1673ffffffffffffffffffffffffffffffffffffffff1681526020018473ffffffffffffffffffffffffffffffffffffffff1673ffffffffffffffffffffffffffffffffffffffff1681526020018381526020018215151515815260200194505050505060405180910390a18080602001905160208110156114c957600080fd5b8101908080519060200190929190505050925050509291505056fe796f752063616e6e6f7420776974686472617720736f206d756368206d6f6e657920617420612074696d65a265627a7a72315820834345258ee6fd88ab4d647c474731d17e34b510e3fff7880895a8c70b21947c64736f6c63430005110032",
  "compiler": {
    "name": "solc",
    "version": "0.5.17+commit.d19bba13.Emscripten.clang",
    "optimizer": {
      "enabled": false,
      "runs": 200
    },
    "evmVersion": "petersburg"
  }
}