{
  "fileName": "MainContract.sol",
  "contractName": "MainContract",
  "source": "pragma solidity ^0.5.0;\n\nimport \"@openzeppelin/upgrades/contracts/Initializable.sol\";\nimport \"./libs/FreezableToken.sol\";\nimport \"./libs/Pausable.sol\";\n\n/**\n * @title MainContract\n * @dev Base contract which using for initializing new contract\n */\ncontract MainContract is FreezableToken, Pausable, Initializable {\n\n    string private _name;\n\n    string private _symbol;\n\n    uint private _decimals;\n\n    uint private _decimalsMultiplier;\n\n    constructor (string memory name, string memory symbol, uint decimals, uint totalSupply, address owner) public {\n        init(name, symbol, decimals, totalSupply, owner);\n    }\n\n    /**\n     * @return get token name\n     */\n    function name() public view returns (string memory) {\n        return _name;\n    }\n\n    /**\n     * @return get token symbol\n     */\n    function symbol() public view returns (string memory) {\n        return _symbol;\n    }\n\n    /**\n     * @return get token decimals\n     */\n    function decimals() public view returns (uint) {\n        return _decimals;\n    }\n\n    /**\n     * @dev override base method transferFrom\n     */\n    function transferFrom(address _from, address _to, uint256 value) public whenNotPaused returns (bool _success) {\n        return super.transferFrom(_from, _to, value);\n    }\n\n    /**\n     * @dev Override base method transfer\n     */\n    function transfer(address _to, uint256 value) public whenNotPaused returns (bool _success) {\n        return super.transfer(_to, value);\n    }\n\n    /**\n     * @dev Override base method increaseAllowance\n     */\n    function increaseAllowance(address spender, uint256 addedValue) public whenNotPaused returns (bool) {\n        return super.increaseAllowance(spender, addedValue);\n    }\n\n    /**\n    * @dev Override base method decreaseAllowance\n    */\n    function decreaseAllowance(address spender, uint256 subtractedValue) public whenNotPaused returns (bool) {\n        return super.decreaseAllowance(spender, subtractedValue);\n    }\n\n    /**\n    * @dev Override base method approve\n    */\n    function approve(address spender, uint256 value) public whenNotPaused returns (bool) {\n        return super.approve(spender, value);\n    }\n\n    /**\n    * @dev Burn user tokens\n    */\n    function burn(uint256 _value) public whenNotPaused {\n        _burn(msg.sender, _value);\n    }\n\n    /**\n    * @dev Burn users tokens with allowance\n    */\n    function burnFrom(address account, uint256 _value) public whenNotPaused {\n        _burnFrom(account, _value);\n    }\n\n    /**\n    *  @dev Mint tokens by owner\n    */\n    function addTokens(uint256 _amount) public hasMintPermission canMint {\n        _mint(msg.sender, _amount);\n        emit Mint(msg.sender, _amount);\n    }\n\n    /**\n        * @dev Function whose calling on initialize contract\n        */\n        function init(string memory __name, string memory __symbol, uint __decimals, uint __totalSupply, address __owner) public initializer {\n            _name = __name;\n            _symbol = __symbol;\n            _decimals = __decimals;\n            _decimalsMultiplier = 10 ** _decimals;\n            if (paused) {\n                pause();\n            }\n            mint(__owner, __totalSupply * _decimalsMultiplier);\n            approve(__owner, balanceOf(__owner));\n            finishMinting();\n            transferOwnership(__owner);\n        }\n\n    function() external payable {revert();}\n}\n",
  "sourcePath": "contracts/MainContract.sol",
  "abi": [
    {
      "inputs": [
        {
          "internalType": "string",
          "name": "name",
          "type": "string"
        },
        {
          "internalType": "string",
          "name": "symbol",
          "type": "string"
        },
        {
          "internalType": "uint256",
          "name": "decimals",
          "type": "uint256"
        },
        {
          "internalType": "uint256",
          "name": "totalSupply",
          "type": "uint256"
        },
        {
          "internalType": "address",
          "name": "owner",
          "type": "address"
        }
      ],
      "payable": false,
      "stateMutability": "nonpayable",
      "type": "constructor"
    },
    {
      "anonymous": false,
      "inputs": [
        {
          "indexed": true,
          "internalType": "address",
          "name": "tokenOwner",
          "type": "address"
        },
        {
          "indexed": true,
          "internalType": "address",
          "name": "spender",
          "type": "address"
        },
        {
          "indexed": false,
          "internalType": "uint256",
          "name": "value",
          "type": "uint256"
        }
      ],
      "name": "Approval",
      "type": "event"
    },
    {
      "anonymous": false,
      "inputs": [
        {
          "indexed": true,
          "internalType": "address",
          "name": "burner",
          "type": "address"
        },
        {
          "indexed": false,
          "internalType": "uint256",
          "name": "value",
          "type": "uint256"
        }
      ],
      "name": "Burn",
      "type": "event"
    },
    {
      "anonymous": false,
      "inputs": [
        {
          "indexed": false,
          "internalType": "address",
          "name": "target",
          "type": "address"
        },
        {
          "indexed": false,
          "internalType": "bool",
          "name": "frozen",
          "type": "bool"
        }
      ],
      "name": "FrozenFunds",
      "type": "event"
    },
    {
      "anonymous": false,
      "inputs": [
        {
          "indexed": true,
          "internalType": "address",
          "name": "to",
          "type": "address"
        },
        {
          "indexed": false,
          "internalType": "uint256",
          "name": "amount",
          "type": "uint256"
        }
      ],
      "name": "Mint",
      "type": "event"
    },
    {
      "anonymous": false,
      "inputs": [],
      "name": "MintFinished",
      "type": "event"
    },
    {
      "anonymous": false,
      "inputs": [],
      "name": "MintStarted",
      "type": "event"
    },
    {
      "anonymous": false,
      "inputs": [
        {
          "indexed": true,
          "internalType": "address",
          "name": "previousOwner",
          "type": "address"
        }
      ],
      "name": "OwnershipRenounced",
      "type": "event"
    },
    {
      "anonymous": false,
      "inputs": [
        {
          "indexed": true,
          "internalType": "address",
          "name": "previousOwner",
          "type": "address"
        },
        {
          "indexed": true,
          "internalType": "address",
          "name": "newOwner",
          "type": "address"
        }
      ],
      "name": "OwnershipTransferred",
      "type": "event"
    },
    {
      "anonymous": false,
      "inputs": [],
      "name": "Pause",
      "type": "event"
    },
    {
      "anonymous": false,
      "inputs": [
        {
          "indexed": true,
          "internalType": "address",
          "name": "from",
          "type": "address"
        },
        {
          "indexed": true,
          "internalType": "address",
          "name": "to",
          "type": "address"
        },
        {
          "indexed": false,
          "internalType": "uint256",
          "name": "value",
          "type": "uint256"
        }
      ],
      "name": "Transfer",
      "type": "event"
    },
    {
      "anonymous": false,
      "inputs": [],
      "name": "Unpause",
      "type": "event"
    },
    {
      "payable": true,
      "stateMutability": "payable",
      "type": "fallback"
    },
    {
      "constant": false,
      "inputs": [
        {
          "internalType": "uint256",
          "name": "_amount",
          "type": "uint256"
        }
      ],
      "name": "addTokens",
      "outputs": [],
      "payable": false,
      "stateMutability": "nonpayable",
      "type": "function"
    },
    {
      "constant": true,
      "inputs": [
        {
          "internalType": "address",
          "name": "owner",
          "type": "address"
        },
        {
          "internalType": "address",
          "name": "spender",
          "type": "address"
        }
      ],
      "name": "allowance",
      "outputs": [
        {
          "internalType": "uint256",
          "name": "",
          "type": "uint256"
        }
      ],
      "payable": false,
      "stateMutability": "view",
      "type": "function"
    },
    {
      "constant": false,
      "inputs": [
        {
          "internalType": "address",
          "name": "spender",
          "type": "address"
        },
        {
          "internalType": "uint256",
          "name": "value",
          "type": "uint256"
        }
      ],
      "name": "approve",
      "outputs": [
        {
          "internalType": "bool",
          "name": "",
          "type": "bool"
        }
      ],
      "payable": false,
      "stateMutability": "nonpayable",
      "type": "function"
    },
    {
      "constant": true,
      "inputs": [
        {
          "internalType": "address",
          "name": "owner",
          "type": "address"
        }
      ],
      "name": "balanceOf",
      "outputs": [
        {
          "internalType": "uint256",
          "name": "",
          "type": "uint256"
        }
      ],
      "payable": false,
      "stateMutability": "view",
      "type": "function"
    },
    {
      "constant": false,
      "inputs": [
        {
          "internalType": "uint256",
          "name": "_value",
          "type": "uint256"
        }
      ],
      "name": "burn",
      "outputs": [],
      "payable": false,
      "stateMutability": "nonpayable",
      "type": "function"
    },
    {
      "constant": false,
      "inputs": [
        {
          "internalType": "address",
          "name": "account",
          "type": "address"
        },
        {
          "internalType": "uint256",
          "name": "_value",
          "type": "uint256"
        }
      ],
      "name": "burnFrom",
      "outputs": [],
      "payable": false,
      "stateMutability": "nonpayable",
      "type": "function"
    },
    {
      "constant": true,
      "inputs": [],
      "name": "decimals",
      "outputs": [
        {
          "internalType": "uint256",
          "name": "",
          "type": "uint256"
        }
      ],
      "payable": false,
      "stateMutability": "view",
      "type": "function"
    },
    {
      "constant": false,
      "inputs": [
        {
          "internalType": "address",
          "name": "spender",
          "type": "address"
        },
        {
          "internalType": "uint256",
          "name": "subtractedValue",
          "type": "uint256"
        }
      ],
      "name": "decreaseAllowance",
      "outputs": [
        {
          "internalType": "bool",
          "name": "",
          "type": "bool"
        }
      ],
      "payable": false,
      "stateMutability": "nonpayable",
      "type": "function"
    },
    {
      "constant": false,
      "inputs": [],
      "name": "finishMinting",
      "outputs": [
        {
          "internalType": "bool",
          "name": "",
          "type": "bool"
        }
      ],
      "payable": false,
      "stateMutability": "nonpayable",
      "type": "function"
    },
    {
      "constant": false,
      "inputs": [
        {
          "internalType": "address",
          "name": "target",
          "type": "address"
        },
        {
          "internalType": "bool",
          "name": "freeze",
          "type": "bool"
        }
      ],
      "name": "freezeAccount",
      "outputs": [],
      "payable": false,
      "stateMutability": "nonpayable",
      "type": "function"
    },
    {
      "constant": true,
      "inputs": [
        {
          "internalType": "address",
          "name": "",
          "type": "address"
        }
      ],
      "name": "frozenAccounts",
      "outputs": [
        {
          "internalType": "bool",
          "name": "",
          "type": "bool"
        }
      ],
      "payable": false,
      "stateMutability": "view",
      "type": "function"
    },
    {
      "constant": false,
      "inputs": [
        {
          "internalType": "address",
          "name": "spender",
          "type": "address"
        },
        {
          "internalType": "uint256",
          "name": "addedValue",
          "type": "uint256"
        }
      ],
      "name": "increaseAllowance",
      "outputs": [
        {
          "internalType": "bool",
          "name": "",
          "type": "bool"
        }
      ],
      "payable": false,
      "stateMutability": "nonpayable",
      "type": "function"
    },
    {
      "constant": false,
      "inputs": [
        {
          "internalType": "string",
          "name": "__name",
          "type": "string"
        },
        {
          "internalType": "string",
          "name": "__symbol",
          "type": "string"
        },
        {
          "internalType": "uint256",
          "name": "__decimals",
          "type": "uint256"
        },
        {
          "internalType": "uint256",
          "name": "__totalSupply",
          "type": "uint256"
        },
        {
          "internalType": "address",
          "name": "__owner",
          "type": "address"
        }
      ],
      "name": "init",
      "outputs": [],
      "payable": false,
      "stateMutability": "nonpayable",
      "type": "function"
    },
    {
      "constant": false,
      "inputs": [
        {
          "internalType": "address",
          "name": "_to",
          "type": "address"
        },
        {
          "internalType": "uint256",
          "name": "_amount",
          "type": "uint256"
        }
      ],
      "name": "mint",
      "outputs": [
        {
          "internalType": "bool",
          "name": "",
          "type": "bool"
        }
      ],
      "payable": false,
      "stateMutability": "nonpayable",
      "type": "function"
    },
    {
      "constant": true,
      "inputs": [],
      "name": "mintingFinished",
      "outputs": [
        {
          "internalType": "bool",
          "name": "",
          "type": "bool"
        }
      ],
      "payable": false,
      "stateMutability": "view",
      "type": "function"
    },
    {
      "constant": true,
      "inputs": [],
      "name": "name",
      "outputs": [
        {
          "internalType": "string",
          "name": "",
          "type": "string"
        }
      ],
      "payable": false,
      "stateMutability": "view",
      "type": "function"
    },
    {
      "constant": true,
      "inputs": [],
      "name": "owner",
      "outputs": [
        {
          "internalType": "address",
          "name": "",
          "type": "address"
        }
      ],
      "payable": false,
      "stateMutability": "view",
      "type": "function"
    },
    {
      "constant": false,
      "inputs": [],
      "name": "pause",
      "outputs": [],
      "payable": false,
      "stateMutability": "nonpayable",
      "type": "function"
    },
    {
      "constant": true,
      "inputs": [],
      "name": "paused",
      "outputs": [
        {
          "internalType": "bool",
          "name": "",
          "type": "bool"
        }
      ],
      "payable": false,
      "stateMutability": "view",
      "type": "function"
    },
    {
      "constant": false,
      "inputs": [],
      "name": "renounceOwnership",
      "outputs": [],
      "payable": false,
      "stateMutability": "nonpayable",
      "type": "function"
    },
    {
      "constant": false,
      "inputs": [],
      "name": "startMinting",
      "outputs": [
        {
          "internalType": "bool",
          "name": "",
          "type": "bool"
        }
      ],
      "payable": false,
      "stateMutability": "nonpayable",
      "type": "function"
    },
    {
      "constant": true,
      "inputs": [],
      "name": "symbol",
      "outputs": [
        {
          "internalType": "string",
          "name": "",
          "type": "string"
        }
      ],
      "payable": false,
      "stateMutability": "view",
      "type": "function"
    },
    {
      "constant": true,
      "inputs": [],
      "name": "totalSupply",
      "outputs": [
        {
          "internalType": "uint256",
          "name": "",
          "type": "uint256"
        }
      ],
      "payable": false,
      "stateMutability": "view",
      "type": "function"
    },
    {
      "constant": false,
      "inputs": [
        {
          "internalType": "address",
          "name": "_to",
          "type": "address"
        },
        {
          "internalType": "uint256",
          "name": "value",
          "type": "uint256"
        }
      ],
      "name": "transfer",
      "outputs": [
        {
          "internalType": "bool",
          "name": "_success",
          "type": "bool"
        }
      ],
      "payable": false,
      "stateMutability": "nonpayable",
      "type": "function"
    },
    {
      "constant": false,
      "inputs": [
        {
          "internalType": "address",
          "name": "_from",
          "type": "address"
        },
        {
          "internalType": "address",
          "name": "_to",
          "type": "address"
        },
        {
          "internalType": "uint256",
          "name": "value",
          "type": "uint256"
        }
      ],
      "name": "transferFrom",
      "outputs": [
        {
          "internalType": "bool",
          "name": "_success",
          "type": "bool"
        }
      ],
      "payable": false,
      "stateMutability": "nonpayable",
      "type": "function"
    },
    {
      "constant": false,
      "inputs": [
        {
          "internalType": "address",
          "name": "_newOwner",
          "type": "address"
        }
      ],
      "name": "transferOwnership",
      "outputs": [],
      "payable": false,
      "stateMutability": "nonpayable",
      "type": "function"
    },
    {
      "constant": false,
      "inputs": [],
      "name": "unpause",
      "outputs": [],
      "payable": false,
      "stateMutability": "nonpayable",
      "type": "function"
    }
  ],
  "bytecode": "0x60806040526000600460006101000a81548160ff0219169083151502179055506000600660006101000a81548160ff0219169083151502179055503480156200004757600080fd5b50604051620048eb380380620048eb833981810160405260a08110156200006d57600080fd5b81019080805160405193929190846401000000008211156200008e57600080fd5b83820191506020820185811115620000a557600080fd5b8251866001820283011164010000000082111715620000c357600080fd5b8083526020830192505050908051906020019080838360005b83811015620000f9578082015181840152602081019050620000dc565b50505050905090810190601f168015620001275780820380516001836020036101000a031916815260200191505b50604052602001805160405193929190846401000000008211156200014b57600080fd5b838201915060208201858111156200016257600080fd5b82518660018202830111640100000000821117156200018057600080fd5b8083526020830192505050908051906020019080838360005b83811015620001b657808201518184015260208101905062000199565b50505050905090810190601f168015620001e45780820380516001836020036101000a031916815260200191505b50604052602001805190602001909291908051906020019092919080519060200190929190505050336000806101000a81548173ffffffffffffffffffffffffffffffffffffffff021916908373ffffffffffffffffffffffffffffffffffffffff1602179055506200026185858585856200026c60201b60201c565b505050505062001102565b600660029054906101000a900460ff1680620002945750620002936200044a60201b60201c565b5b80620002ad5750600660019054906101000a900460ff16155b62000304576040517f08c379a000000000000000000000000000000000000000000000000000000000815260040180806020018281038252602e81526020018062004899602e913960400191505060405180910390fd5b6000600660029054906101000a900460ff16159050801562000357576001600660026101000a81548160ff0219169083151502179055506001600660016101000a81548160ff0219169083151502179055505b85603990805190602001906200036f92919062001053565b5084603a90805190602001906200038892919062001053565b5083603b81905550603b54600a0a603c81905550600660009054906101000a900460ff1615620003c357620003c26200046160201b60201c565b5b620003d982603c548502620005f160201b60201c565b50620003fc82620003f0846200076c60201b60201c565b620007b560201b60201c565b506200040d6200085a60201b60201c565b506200041f82620009d560201b60201c565b801562000442576000600660026101000a81548160ff0219169083151502179055505b505050505050565b6000803090506000813b9050600081149250505090565b6000809054906101000a900473ffffffffffffffffffffffffffffffffffffffff1673ffffffffffffffffffffffffffffffffffffffff163373ffffffffffffffffffffffffffffffffffffffff161462000524576040517f08c379a000000000000000000000000000000000000000000000000000000000815260040180806020018281038252601c8152602001807f4f776e61626c653a2073656e646572206973206e6f74206f776e65720000000081525060200191505060405180910390fd5b600660009054906101000a900460ff1615620005a8576040517f08c379a00000000000000000000000000000000000000000000000000000000081526004018080602001828103825260198152602001807f5061757361626c653a20636f6e7472616374207061757365640000000000000081525060200191505060405180910390fd5b6001600660006101000a81548160ff0219169083151502179055507f6985a02210a168e66602d3235cb6db0e70f92b3ba4d376a33c0f3d9434bff62560405160405180910390a1565b60008060009054906101000a900473ffffffffffffffffffffffffffffffffffffffff1673ffffffffffffffffffffffffffffffffffffffff163373ffffffffffffffffffffffffffffffffffffffff16146200069a576040517f08c379a0000000000000000000000000000000000000000000000000000000008152600401808060200182810382526029815260200180620048296029913960400191505060405180910390fd5b600460009054906101000a900460ff161562000702576040517f08c379a0000000000000000000000000000000000000000000000000000000008152600401808060200182810382526022815260200180620048776022913960400191505060405180910390fd5b62000714838362000aac60201b60201c565b8273ffffffffffffffffffffffffffffffffffffffff167f0f6798a560793a54c3bcfe86a93cde1e73087d944c0ea20544137d4121396885836040518082815260200191505060405180910390a26001905092915050565b6000600160008373ffffffffffffffffffffffffffffffffffffffff1673ffffffffffffffffffffffffffffffffffffffff168152602001908152602001600020549050919050565b6000600660009054906101000a900460ff16156200083b576040517f08c379a00000000000000000000000000000000000000000000000000000000081526004018080602001828103825260198152602001807f5061757361626c653a20636f6e7472616374207061757365640000000000000081525060200191505060405180910390fd5b62000852838362000cd360201b620020271760201c565b905092915050565b60008060009054906101000a900473ffffffffffffffffffffffffffffffffffffffff1673ffffffffffffffffffffffffffffffffffffffff163373ffffffffffffffffffffffffffffffffffffffff16146200091f576040517f08c379a000000000000000000000000000000000000000000000000000000000815260040180806020018281038252601c8152602001807f4f776e61626c653a2073656e646572206973206e6f74206f776e65720000000081525060200191505060405180910390fd5b600460009054906101000a900460ff161562000987576040517f08c379a0000000000000000000000000000000000000000000000000000000008152600401808060200182810382526022815260200180620048776022913960400191505060405180910390fd5b6001600460006101000a81548160ff0219169083151502179055507fae5184fba832cb2b1f702aca6117b8d265eaf03ad33eb133f19dde0f5920fa0860405160405180910390a16001905090565b6000809054906101000a900473ffffffffffffffffffffffffffffffffffffffff1673ffffffffffffffffffffffffffffffffffffffff163373ffffffffffffffffffffffffffffffffffffffff161462000a98576040517f08c379a000000000000000000000000000000000000000000000000000000000815260040180806020018281038252601c8152602001807f4f776e61626c653a2073656e646572206973206e6f74206f776e65720000000081525060200191505060405180910390fd5b62000aa98162000cf260201b60201c565b50565b600073ffffffffffffffffffffffffffffffffffffffff168273ffffffffffffffffffffffffffffffffffffffff16141562000b50576040517f08c379a000000000000000000000000000000000000000000000000000000000815260040180806020018281038252601f8152602001807f45524332303a206d696e7420746f20746865207a65726f20616464726573730081525060200191505060405180910390fd5b6000811162000bab576040517f08c379a0000000000000000000000000000000000000000000000000000000008152600401808060200182810382526025815260200180620048526025913960400191505060405180910390fd5b62000bc78160035462000e3860201b620033681790919060201c565b60038190555062000c2681600160008573ffffffffffffffffffffffffffffffffffffffff1673ffffffffffffffffffffffffffffffffffffffff1681526020019081526020016000205462000e3860201b620033681790919060201c565b600160008473ffffffffffffffffffffffffffffffffffffffff1673ffffffffffffffffffffffffffffffffffffffff168152602001908152602001600020819055508173ffffffffffffffffffffffffffffffffffffffff16600073ffffffffffffffffffffffffffffffffffffffff167fddf252ad1be2c89b69c2b068fc378daa952ba7f163c4a11628f55a4df523b3ef836040518082815260200191505060405180910390a35050565b600062000ce833848462000e5860201b60201c565b6001905092915050565b600073ffffffffffffffffffffffffffffffffffffffff168173ffffffffffffffffffffffffffffffffffffffff16141562000d7a576040517f08c379a0000000000000000000000000000000000000000000000000000000008152600401808060200182810382526021815260200180620047e66021913960400191505060405180910390fd5b806000806101000a81548173ffffffffffffffffffffffffffffffffffffffff021916908373ffffffffffffffffffffffffffffffffffffffff1602179055508073ffffffffffffffffffffffffffffffffffffffff166000809054906101000a900473ffffffffffffffffffffffffffffffffffffffff1673ffffffffffffffffffffffffffffffffffffffff167f8be0079c531659141344cd1fd0a4f28419497f9722a3daafe3b4186f6b6457e060405160405180910390a350565b60008082840190508381101562000e4e57600080fd5b8091505092915050565b600073ffffffffffffffffffffffffffffffffffffffff168373ffffffffffffffffffffffffffffffffffffffff16141562000ee0576040517f08c379a0000000000000000000000000000000000000000000000000000000008152600401808060200182810382526024815260200180620048c76024913960400191505060405180910390fd5b600073ffffffffffffffffffffffffffffffffffffffff168273ffffffffffffffffffffffffffffffffffffffff16141562000f68576040517f08c379a0000000000000000000000000000000000000000000000000000000008152600401808060200182810382526022815260200180620048076022913960400191505060405180910390fd5b80600260008573ffffffffffffffffffffffffffffffffffffffff1673ffffffffffffffffffffffffffffffffffffffff16815260200190815260200160002060008473ffffffffffffffffffffffffffffffffffffffff1673ffffffffffffffffffffffffffffffffffffffff168152602001908152602001600020819055508173ffffffffffffffffffffffffffffffffffffffff168373ffffffffffffffffffffffffffffffffffffffff167f8c5be1e5ebec7d5bd14f71427d1e84f3dd0314c0f7b2291e5b200ac8c7c3b925836040518082815260200191505060405180910390a3505050565b828054600181600116156101000203166002900490600052602060002090601f016020900481019282601f106200109657805160ff1916838001178555620010c7565b82800160010185558215620010c7579182015b82811115620010c6578251825591602001919060010190620010a9565b5b509050620010d69190620010da565b5090565b620010ff91905b80821115620010fb576000816000905550600101620010e1565b5090565b90565b6136d480620011126000396000f3fe60806040526004361061019c5760003560e01c806379cc6790116100ec578063a457c2d71161008a578063dd62ed3e11610064578063dd62ed3e146108e0578063e724529c14610965578063eb7dd8c8146109c2578063f2fde38b14610b555761019c565b8063a457c2d7146107bf578063a9059cbb14610832578063c6ed8990146108a55761019c565b8063860838a5116100c6578063860838a5146106405780638da5cb5b146106a957806395d89b41146107005780639a65ea26146107905761019c565b806379cc67901461059f5780637d64bcb4146105fa5780638456cb59146106295761019c565b8063395093511161015957806342966c681161013357806342966c68146104b95780635c975abb146104f457806370a0823114610523578063715018a6146105885761019c565b806339509351146103bc5780633f4ba83a1461042f57806340c10f19146104465761019c565b806305d2035b146101a157806306fdde03146101d0578063095ea7b31461026057806318160ddd146102d357806323b872dd146102fe578063313ce56714610391575b600080fd5b3480156101ad57600080fd5b506101b6610ba6565b604051808215151515815260200191505060405180910390f35b3480156101dc57600080fd5b506101e5610bb9565b6040518080602001828103825283818151815260200191508051906020019080838360005b8381101561022557808201518184015260208101905061020a565b50505050905090810190601f1680156102525780820380516001836020036101000a031916815260200191505b509250505060405180910390f35b34801561026c57600080fd5b506102b96004803603604081101561028357600080fd5b81019080803573ffffffffffffffffffffffffffffffffffffffff16906020019092919080359060200190929190505050610c5b565b604051808215151515815260200191505060405180910390f35b3480156102df57600080fd5b506102e8610cf2565b6040518082815260200191505060405180910390f35b34801561030a57600080fd5b506103776004803603606081101561032157600080fd5b81019080803573ffffffffffffffffffffffffffffffffffffffff169060200190929190803573ffffffffffffffffffffffffffffffffffffffff16906020019092919080359060200190929190505050610cfc565b604051808215151515815260200191505060405180910390f35b34801561039d57600080fd5b506103a6610d95565b6040518082815260200191505060405180910390f35b3480156103c857600080fd5b50610415600480360360408110156103df57600080fd5b81019080803573ffffffffffffffffffffffffffffffffffffffff16906020019092919080359060200190929190505050610d9f565b604051808215151515815260200191505060405180910390f35b34801561043b57600080fd5b50610444610e36565b005b34801561045257600080fd5b5061049f6004803603604081101561046957600080fd5b81019080803573ffffffffffffffffffffffffffffffffffffffff16906020019092919080359060200190929190505050610fc3565b604051808215151515815260200191505060405180910390f35b3480156104c557600080fd5b506104f2600480360360208110156104dc57600080fd5b8101908080359060200190929190505050611132565b005b34801561050057600080fd5b506105096111c2565b604051808215151515815260200191505060405180910390f35b34801561052f57600080fd5b506105726004803603602081101561054657600080fd5b81019080803573ffffffffffffffffffffffffffffffffffffffff1690602001909291905050506111d5565b6040518082815260200191505060405180910390f35b34801561059457600080fd5b5061059d61121e565b005b3480156105ab57600080fd5b506105f8600480360360408110156105c257600080fd5b81019080803573ffffffffffffffffffffffffffffffffffffffff16906020019092919080359060200190929190505050611387565b005b34801561060657600080fd5b5061060f611418565b604051808215151515815260200191505060405180910390f35b34801561063557600080fd5b5061063e611590565b005b34801561064c57600080fd5b5061068f6004803603602081101561066357600080fd5b81019080803573ffffffffffffffffffffffffffffffffffffffff16906020019092919050505061171e565b604051808215151515815260200191505060405180910390f35b3480156106b557600080fd5b506106be61173e565b604051808273ffffffffffffffffffffffffffffffffffffffff1673ffffffffffffffffffffffffffffffffffffffff16815260200191505060405180910390f35b34801561070c57600080fd5b50610715611763565b6040518080602001828103825283818151815260200191508051906020019080838360005b8381101561075557808201518184015260208101905061073a565b50505050905090810190601f1680156107825780820380516001836020036101000a031916815260200191505b509250505060405180910390f35b34801561079c57600080fd5b506107a5611805565b604051808215151515815260200191505060405180910390f35b3480156107cb57600080fd5b50610818600480360360408110156107e257600080fd5b81019080803573ffffffffffffffffffffffffffffffffffffffff16906020019092919080359060200190929190505050611917565b604051808215151515815260200191505060405180910390f35b34801561083e57600080fd5b5061088b6004803603604081101561085557600080fd5b81019080803573ffffffffffffffffffffffffffffffffffffffff169060200190929190803590602001909291905050506119ae565b604051808215151515815260200191505060405180910390f35b3480156108b157600080fd5b506108de600480360360208110156108c857600080fd5b8101908080359060200190929190505050611a45565b005b3480156108ec57600080fd5b5061094f6004803603604081101561090357600080fd5b81019080803573ffffffffffffffffffffffffffffffffffffffff169060200190929190803573ffffffffffffffffffffffffffffffffffffffff169060200190929190505050611bab565b6040518082815260200191505060405180910390f35b34801561097157600080fd5b506109c06004803603604081101561098857600080fd5b81019080803573ffffffffffffffffffffffffffffffffffffffff169060200190929190803515159060200190929190505050611c32565b005b3480156109ce57600080fd5b50610b53600480360360a08110156109e557600080fd5b8101908080359060200190640100000000811115610a0257600080fd5b820183602082011115610a1457600080fd5b80359060200191846001830284011164010000000083111715610a3657600080fd5b91908080601f016020809104026020016040519081016040528093929190818152602001838380828437600081840152601f19601f82011690508083019250505050505050919291929080359060200190640100000000811115610a9957600080fd5b820183602082011115610aab57600080fd5b80359060200191846001830284011164010000000083111715610acd57600080fd5b91908080601f016020809104026020016040519081016040528093929190818152602001838380828437600081840152601f19601f8201169050808301925050505050505091929192908035906020019092919080359060200190929190803573ffffffffffffffffffffffffffffffffffffffff169060200190929190505050611dbe565b005b348015610b6157600080fd5b50610ba460048036036020811015610b7857600080fd5b81019080803573ffffffffffffffffffffffffffffffffffffffff169060200190929190505050611f59565b005b600460009054906101000a900460ff1681565b606060398054600181600116156101000203166002900480601f016020809104026020016040519081016040528092919081815260200182805460018160011615610100020316600290048015610c515780601f10610c2657610100808354040283529160200191610c51565b820191906000526020600020905b815481529060010190602001808311610c3457829003601f168201915b5050505050905090565b6000600660009054906101000a900460ff1615610ce0576040517f08c379a00000000000000000000000000000000000000000000000000000000081526004018080602001828103825260198152602001807f5061757361626c653a20636f6e7472616374207061757365640000000000000081525060200191505060405180910390fd5b610cea8383612027565b905092915050565b6000600354905090565b6000600660009054906101000a900460ff1615610d81576040517f08c379a00000000000000000000000000000000000000000000000000000000081526004018080602001828103825260198152602001807f5061757361626c653a20636f6e7472616374207061757365640000000000000081525060200191505060405180910390fd5b610d8c84848461203e565b90509392505050565b6000603b54905090565b6000600660009054906101000a900460ff1615610e24576040517f08c379a00000000000000000000000000000000000000000000000000000000081526004018080602001828103825260198152602001807f5061757361626c653a20636f6e7472616374207061757365640000000000000081525060200191505060405180910390fd5b610e2e83836121c4565b905092915050565b6000809054906101000a900473ffffffffffffffffffffffffffffffffffffffff1673ffffffffffffffffffffffffffffffffffffffff163373ffffffffffffffffffffffffffffffffffffffff1614610ef8576040517f08c379a000000000000000000000000000000000000000000000000000000000815260040180806020018281038252601c8152602001807f4f776e61626c653a2073656e646572206973206e6f74206f776e65720000000081525060200191505060405180910390fd5b600660009054906101000a900460ff16610f7a576040517f08c379a000000000000000000000000000000000000000000000000000000000815260040180806020018281038252601d8152602001807f5061757361626c653a20636f6e7472616374206e6f742070617573656400000081525060200191505060405180910390fd5b6000600660006101000a81548160ff0219169083151502179055507f7805862f689e2f13df9f062ff482ad3ad112aca9e0847911ed832e158c525b3360405160405180910390a1565b60008060009054906101000a900473ffffffffffffffffffffffffffffffffffffffff1673ffffffffffffffffffffffffffffffffffffffff163373ffffffffffffffffffffffffffffffffffffffff161461106a576040517f08c379a000000000000000000000000000000000000000000000000000000000815260040180806020018281038252602981526020018061351d6029913960400191505060405180910390fd5b600460009054906101000a900460ff16156110d0576040517f08c379a00000000000000000000000000000000000000000000000000000000081526004018080602001828103825260228152602001806135f56022913960400191505060405180910390fd5b6110da83836122c1565b8273ffffffffffffffffffffffffffffffffffffffff167f0f6798a560793a54c3bcfe86a93cde1e73087d944c0ea20544137d4121396885836040518082815260200191505060405180910390a26001905092915050565b600660009054906101000a900460ff16156111b5576040517f08c379a00000000000000000000000000000000000000000000000000000000081526004018080602001828103825260198152602001807f5061757361626c653a20636f6e7472616374207061757365640000000000000081525060200191505060405180910390fd5b6111bf33826124d7565b50565b600660009054906101000a900460ff1681565b6000600160008373ffffffffffffffffffffffffffffffffffffffff1673ffffffffffffffffffffffffffffffffffffffff168152602001908152602001600020549050919050565b6000809054906101000a900473ffffffffffffffffffffffffffffffffffffffff1673ffffffffffffffffffffffffffffffffffffffff163373ffffffffffffffffffffffffffffffffffffffff16146112e0576040517f08c379a000000000000000000000000000000000000000000000000000000000815260040180806020018281038252601c8152602001807f4f776e61626c653a2073656e646572206973206e6f74206f776e65720000000081525060200191505060405180910390fd5b60008060006101000a81548173ffffffffffffffffffffffffffffffffffffffff021916908373ffffffffffffffffffffffffffffffffffffffff1602179055506000809054906101000a900473ffffffffffffffffffffffffffffffffffffffff1673ffffffffffffffffffffffffffffffffffffffff167ff8df31144d9c2f0f6b59d69b8b98abd5459d07f2742c4df920b25aae33c6482060405160405180910390a2565b600660009054906101000a900460ff161561140a576040517f08c379a00000000000000000000000000000000000000000000000000000000081526004018080602001828103825260198152602001807f5061757361626c653a20636f6e7472616374207061757365640000000000000081525060200191505060405180910390fd5b61141482826127b6565b5050565b60008060009054906101000a900473ffffffffffffffffffffffffffffffffffffffff1673ffffffffffffffffffffffffffffffffffffffff163373ffffffffffffffffffffffffffffffffffffffff16146114dc576040517f08c379a000000000000000000000000000000000000000000000000000000000815260040180806020018281038252601c8152602001807f4f776e61626c653a2073656e646572206973206e6f74206f776e65720000000081525060200191505060405180910390fd5b600460009054906101000a900460ff1615611542576040517f08c379a00000000000000000000000000000000000000000000000000000000081526004018080602001828103825260228152602001806135f56022913960400191505060405180910390fd5b6001600460006101000a81548160ff0219169083151502179055507fae5184fba832cb2b1f702aca6117b8d265eaf03ad33eb133f19dde0f5920fa0860405160405180910390a16001905090565b6000809054906101000a900473ffffffffffffffffffffffffffffffffffffffff1673ffffffffffffffffffffffffffffffffffffffff163373ffffffffffffffffffffffffffffffffffffffff1614611652576040517f08c379a000000000000000000000000000000000000000000000000000000000815260040180806020018281038252601c8152602001807f4f776e61626c653a2073656e646572206973206e6f74206f776e65720000000081525060200191505060405180910390fd5b600660009054906101000a900460ff16156116d5576040517f08c379a00000000000000000000000000000000000000000000000000000000081526004018080602001828103825260198152602001807f5061757361626c653a20636f6e7472616374207061757365640000000000000081525060200191505060405180910390fd5b6001600660006101000a81548160ff0219169083151502179055507f6985a02210a168e66602d3235cb6db0e70f92b3ba4d376a33c0f3d9434bff62560405160405180910390a1565b60056020528060005260406000206000915054906101000a900460ff1681565b6000809054906101000a900473ffffffffffffffffffffffffffffffffffffffff1681565b6060603a8054600181600116156101000203166002900480601f0160208091040260200160405190810160405280929190818152602001828054600181600116156101000203166002900480156117fb5780601f106117d0576101008083540402835291602001916117fb565b820191906000526020600020905b8154815290600101906020018083116117de57829003601f168201915b5050505050905090565b60008060009054906101000a900473ffffffffffffffffffffffffffffffffffffffff1673ffffffffffffffffffffffffffffffffffffffff163373ffffffffffffffffffffffffffffffffffffffff16146118c9576040517f08c379a000000000000000000000000000000000000000000000000000000000815260040180806020018281038252601c8152602001807f4f776e61626c653a2073656e646572206973206e6f74206f776e65720000000081525060200191505060405180910390fd5b6000600460006101000a81548160ff0219169083151502179055507f452a344f03203071e1daf66e007976c85cb2380deabf1c91f3c4fb1fca41204960405160405180910390a16001905090565b6000600660009054906101000a900460ff161561199c576040517f08c379a00000000000000000000000000000000000000000000000000000000081526004018080602001828103825260198152602001807f5061757361626c653a20636f6e7472616374207061757365640000000000000081525060200191505060405180910390fd5b6119a68383612a11565b905092915050565b6000600660009054906101000a900460ff1615611a33576040517f08c379a00000000000000000000000000000000000000000000000000000000081526004018080602001828103825260198152602001807f5061757361626c653a20636f6e7472616374207061757365640000000000000081525060200191505060405180910390fd5b611a3d8383612b0e565b905092915050565b6000809054906101000a900473ffffffffffffffffffffffffffffffffffffffff1673ffffffffffffffffffffffffffffffffffffffff163373ffffffffffffffffffffffffffffffffffffffff1614611aea576040517f08c379a000000000000000000000000000000000000000000000000000000000815260040180806020018281038252602981526020018061351d6029913960400191505060405180910390fd5b600460009054906101000a900460ff1615611b50576040517f08c379a00000000000000000000000000000000000000000000000000000000081526004018080602001828103825260228152602001806135f56022913960400191505060405180910390fd5b611b5a33826122c1565b3373ffffffffffffffffffffffffffffffffffffffff167f0f6798a560793a54c3bcfe86a93cde1e73087d944c0ea20544137d4121396885826040518082815260200191505060405180910390a250565b6000600260008473ffffffffffffffffffffffffffffffffffffffff1673ffffffffffffffffffffffffffffffffffffffff16815260200190815260200160002060008373ffffffffffffffffffffffffffffffffffffffff1673ffffffffffffffffffffffffffffffffffffffff16815260200190815260200160002054905092915050565b6000809054906101000a900473ffffffffffffffffffffffffffffffffffffffff1673ffffffffffffffffffffffffffffffffffffffff163373ffffffffffffffffffffffffffffffffffffffff1614611cf4576040517f08c379a000000000000000000000000000000000000000000000000000000000815260040180806020018281038252601c8152602001807f4f776e61626c653a2073656e646572206973206e6f74206f776e65720000000081525060200191505060405180910390fd5b80600560008473ffffffffffffffffffffffffffffffffffffffff1673ffffffffffffffffffffffffffffffffffffffff16815260200190815260200160002060006101000a81548160ff0219169083151502179055507f48335238b4855f35377ed80f164e8c6f3c366e54ac00b96a6402d4a9814a03a58282604051808373ffffffffffffffffffffffffffffffffffffffff1673ffffffffffffffffffffffffffffffffffffffff168152602001821515151581526020019250505060405180910390a15050565b600660029054906101000a900460ff1680611ddd5750611ddc612b25565b5b80611df55750600660019054906101000a900460ff16155b611e4a576040517f08c379a000000000000000000000000000000000000000000000000000000000815260040180806020018281038252602e815260200180613617602e913960400191505060405180910390fd5b6000600660029054906101000a900460ff161590508015611e9c576001600660026101000a81548160ff0219169083151502179055506001600660016101000a81548160ff0219169083151502179055505b8560399080519060200190611eb2929190613387565b5084603a9080519060200190611ec9929190613387565b5083603b81905550603b54600a0a603c81905550600660009054906101000a900460ff1615611efb57611efa611590565b5b611f0982603c548502610fc3565b50611f1c82611f17846111d5565b610c5b565b50611f25611418565b50611f2f82611f59565b8015611f51576000600660026101000a81548160ff0219169083151502179055505b505050505050565b6000809054906101000a900473ffffffffffffffffffffffffffffffffffffffff1673ffffffffffffffffffffffffffffffffffffffff163373ffffffffffffffffffffffffffffffffffffffff161461201b576040517f08c379a000000000000000000000000000000000000000000000000000000000815260040180806020018281038252601c8152602001807f4f776e61626c653a2073656e646572206973206e6f74206f776e65720000000081525060200191505060405180910390fd5b61202481612b3c565b50565b6000612034338484612c80565b6001905092915050565b6000600260008573ffffffffffffffffffffffffffffffffffffffff1673ffffffffffffffffffffffffffffffffffffffff16815260200190815260200160002060003373ffffffffffffffffffffffffffffffffffffffff1673ffffffffffffffffffffffffffffffffffffffff16815260200190815260200160002054821115612115576040517f08c379a000000000000000000000000000000000000000000000000000000000815260040180806020018281038252602b8152602001806135ca602b913960400191505060405180910390fd5b612120848484612e77565b6121b984336121b485600260008a73ffffffffffffffffffffffffffffffffffffffff1673ffffffffffffffffffffffffffffffffffffffff16815260200190815260200160002060003373ffffffffffffffffffffffffffffffffffffffff1673ffffffffffffffffffffffffffffffffffffffff1681526020019081526020016000205461334890919063ffffffff16565b612c80565b600190509392505050565b600080821161221e576040517f08c379a00000000000000000000000000000000000000000000000000000000081526004018080602001828103825260258152602001806135a56025913960400191505060405180910390fd5b6122b733846122b285600260003373ffffffffffffffffffffffffffffffffffffffff1673ffffffffffffffffffffffffffffffffffffffff16815260200190815260200160002060008973ffffffffffffffffffffffffffffffffffffffff1673ffffffffffffffffffffffffffffffffffffffff1681526020019081526020016000205461336890919063ffffffff16565b612c80565b6001905092915050565b600073ffffffffffffffffffffffffffffffffffffffff168273ffffffffffffffffffffffffffffffffffffffff161415612364576040517f08c379a000000000000000000000000000000000000000000000000000000000815260040180806020018281038252601f8152602001807f45524332303a206d696e7420746f20746865207a65726f20616464726573730081525060200191505060405180910390fd5b600081116123bd576040517f08c379a00000000000000000000000000000000000000000000000000000000081526004018080602001828103825260258152602001806135a56025913960400191505060405180910390fd5b6123d28160035461336890919063ffffffff16565b60038190555061242a81600160008573ffffffffffffffffffffffffffffffffffffffff1673ffffffffffffffffffffffffffffffffffffffff1681526020019081526020016000205461336890919063ffffffff16565b600160008473ffffffffffffffffffffffffffffffffffffffff1673ffffffffffffffffffffffffffffffffffffffff168152602001908152602001600020819055508173ffffffffffffffffffffffffffffffffffffffff16600073ffffffffffffffffffffffffffffffffffffffff167fddf252ad1be2c89b69c2b068fc378daa952ba7f163c4a11628f55a4df523b3ef836040518082815260200191505060405180910390a35050565b600073ffffffffffffffffffffffffffffffffffffffff168273ffffffffffffffffffffffffffffffffffffffff16141561255d576040517f08c379a00000000000000000000000000000000000000000000000000000000081526004018080602001828103825260238152602001806134546023913960400191505060405180910390fd5b600081116125b6576040517f08c379a00000000000000000000000000000000000000000000000000000000081526004018080602001828103825260258152602001806135a56025913960400191505060405180910390fd5b600160008373ffffffffffffffffffffffffffffffffffffffff1673ffffffffffffffffffffffffffffffffffffffff1681526020019081526020016000205481111561264e576040517f08c379a000000000000000000000000000000000000000000000000000000000815260040180806020018281038252602b8152602001806135ca602b913960400191505060405180910390fd5b6126638160035461334890919063ffffffff16565b6003819055506126bb81600160008573ffffffffffffffffffffffffffffffffffffffff1673ffffffffffffffffffffffffffffffffffffffff1681526020019081526020016000205461334890919063ffffffff16565b600160008473ffffffffffffffffffffffffffffffffffffffff1673ffffffffffffffffffffffffffffffffffffffff16815260200190815260200160002081905550600073ffffffffffffffffffffffffffffffffffffffff168273ffffffffffffffffffffffffffffffffffffffff167fddf252ad1be2c89b69c2b068fc378daa952ba7f163c4a11628f55a4df523b3ef836040518082815260200191505060405180910390a38173ffffffffffffffffffffffffffffffffffffffff167fcc16f5dbb4873280815c1ee09dbd06736cffcc184412cf7a71a0fdb75d397ca5826040518082815260200191505060405180910390a25050565b600073ffffffffffffffffffffffffffffffffffffffff168273ffffffffffffffffffffffffffffffffffffffff16141561283c576040517f08c379a00000000000000000000000000000000000000000000000000000000081526004018080602001828103825260238152602001806134546023913960400191505060405180910390fd5b60008111612895576040517f08c379a00000000000000000000000000000000000000000000000000000000081526004018080602001828103825260258152602001806135a56025913960400191505060405180910390fd5b600260008373ffffffffffffffffffffffffffffffffffffffff1673ffffffffffffffffffffffffffffffffffffffff16815260200190815260200160002060003373ffffffffffffffffffffffffffffffffffffffff1673ffffffffffffffffffffffffffffffffffffffff1681526020019081526020016000205481111561296a576040517f08c379a00000000000000000000000000000000000000000000000000000000081526004018080602001828103825260338152602001806135466033913960400191505060405180910390fd5b61297482826124d7565b612a0d8233612a0884600260008873ffffffffffffffffffffffffffffffffffffffff1673ffffffffffffffffffffffffffffffffffffffff16815260200190815260200160002060003373ffffffffffffffffffffffffffffffffffffffff1673ffffffffffffffffffffffffffffffffffffffff1681526020019081526020016000205461334890919063ffffffff16565b612c80565b5050565b6000808211612a6b576040517f08c379a00000000000000000000000000000000000000000000000000000000081526004018080602001828103825260258152602001806135a56025913960400191505060405180910390fd5b612b043384612aff85600260003373ffffffffffffffffffffffffffffffffffffffff1673ffffffffffffffffffffffffffffffffffffffff16815260200190815260200160002060008973ffffffffffffffffffffffffffffffffffffffff1673ffffffffffffffffffffffffffffffffffffffff1681526020019081526020016000205461334890919063ffffffff16565b612c80565b6001905092915050565b6000612b1b338484612e77565b6001905092915050565b6000803090506000813b9050600081149250505090565b600073ffffffffffffffffffffffffffffffffffffffff168173ffffffffffffffffffffffffffffffffffffffff161415612bc2576040517f08c379a000000000000000000000000000000000000000000000000000000000815260040180806020018281038252602181526020018061349c6021913960400191505060405180910390fd5b806000806101000a81548173ffffffffffffffffffffffffffffffffffffffff021916908373ffffffffffffffffffffffffffffffffffffffff1602179055508073ffffffffffffffffffffffffffffffffffffffff166000809054906101000a900473ffffffffffffffffffffffffffffffffffffffff1673ffffffffffffffffffffffffffffffffffffffff167f8be0079c531659141344cd1fd0a4f28419497f9722a3daafe3b4186f6b6457e060405160405180910390a350565b600073ffffffffffffffffffffffffffffffffffffffff168373ffffffffffffffffffffffffffffffffffffffff161415612d06576040517f08c379a000000000000000000000000000000000000000000000000000000000815260040180806020018281038252602481526020018061367c6024913960400191505060405180910390fd5b600073ffffffffffffffffffffffffffffffffffffffff168273ffffffffffffffffffffffffffffffffffffffff161415612d8c576040517f08c379a00000000000000000000000000000000000000000000000000000000081526004018080602001828103825260228152602001806134bd6022913960400191505060405180910390fd5b80600260008573ffffffffffffffffffffffffffffffffffffffff1673ffffffffffffffffffffffffffffffffffffffff16815260200190815260200160002060008473ffffffffffffffffffffffffffffffffffffffff1673ffffffffffffffffffffffffffffffffffffffff168152602001908152602001600020819055508173ffffffffffffffffffffffffffffffffffffffff168373ffffffffffffffffffffffffffffffffffffffff167f8c5be1e5ebec7d5bd14f71427d1e84f3dd0314c0f7b2291e5b200ac8c7c3b925836040518082815260200191505060405180910390a3505050565b600073ffffffffffffffffffffffffffffffffffffffff168273ffffffffffffffffffffffffffffffffffffffff161415612efd576040517f08c379a000000000000000000000000000000000000000000000000000000000815260040180806020018281038252602c815260200180613579602c913960400191505060405180910390fd5b80600160008573ffffffffffffffffffffffffffffffffffffffff1673ffffffffffffffffffffffffffffffffffffffff168152602001908152602001600020541015612f95576040517f08c379a00000000000000000000000000000000000000000000000000000000081526004018080602001828103825260378152602001806136456037913960400191505060405180910390fd5b600160008373ffffffffffffffffffffffffffffffffffffffff1673ffffffffffffffffffffffffffffffffffffffff1681526020019081526020016000205481600160008573ffffffffffffffffffffffffffffffffffffffff1673ffffffffffffffffffffffffffffffffffffffff1681526020019081526020016000205401101561306e576040517f08c379a000000000000000000000000000000000000000000000000000000000815260040180806020018281038252603e8152602001806134df603e913960400191505060405180910390fd5b600560008473ffffffffffffffffffffffffffffffffffffffff1673ffffffffffffffffffffffffffffffffffffffff16815260200190815260200160002060009054906101000a900460ff1615613111576040517f08c379a000000000000000000000000000000000000000000000000000000000815260040180806020018281038252602781526020018061342d6027913960400191505060405180910390fd5b600560008373ffffffffffffffffffffffffffffffffffffffff1673ffffffffffffffffffffffffffffffffffffffff16815260200190815260200160002060009054906101000a900460ff16156131b4576040517f08c379a00000000000000000000000000000000000000000000000000000000081526004018080602001828103825260258152602001806134776025913960400191505060405180910390fd5b61320681600160008673ffffffffffffffffffffffffffffffffffffffff1673ffffffffffffffffffffffffffffffffffffffff1681526020019081526020016000205461334890919063ffffffff16565b600160008573ffffffffffffffffffffffffffffffffffffffff1673ffffffffffffffffffffffffffffffffffffffff1681526020019081526020016000208190555061329b81600160008573ffffffffffffffffffffffffffffffffffffffff1673ffffffffffffffffffffffffffffffffffffffff1681526020019081526020016000205461336890919063ffffffff16565b600160008473ffffffffffffffffffffffffffffffffffffffff1673ffffffffffffffffffffffffffffffffffffffff168152602001908152602001600020819055508173ffffffffffffffffffffffffffffffffffffffff168373ffffffffffffffffffffffffffffffffffffffff167fddf252ad1be2c89b69c2b068fc378daa952ba7f163c4a11628f55a4df523b3ef836040518082815260200191505060405180910390a3505050565b60008282111561335757600080fd5b600082840390508091505092915050565b60008082840190508381101561337d57600080fd5b8091505092915050565b828054600181600116156101000203166002900490600052602060002090601f016020900481019282601f106133c857805160ff19168380011785556133f6565b828001600101855582156133f6579182015b828111156133f55782518255916020019190600101906133da565b5b5090506134039190613407565b5090565b61342991905b8082111561342557600081600090555060010161340d565b5090565b9056fe467265657a61626c65546f6b656e3a206163636f756e74205f66726f6d2069732066726f7a656e45524332303a207472616e7366657220746f20746865207a65726f2061646472657373467265657a61626c65546f6b656e3a206163636f756e74205f746f2069732066726f7a656e4f776e61626c653a207472616e7366657220746f207a65726f206164647265737345524332303a20617070726f766520746f20746865207a65726f2061646472657373467265657a61626c65546f6b656e3a2062616c616e636520746f206d75737420627220626967676572207468616e2063757272656e742062616c616e63654d696e7461626c65546f6b656e3a2073656e64657220686173206e6f74207065726d697373696f6e7345524332303a206163636f756e7420616c6c6f7765642062616c616e6365206973206c6f776572207468616e20616d6f756e74467265657a61626c65546f6b656e3a207472616e7366657220746f20746865207a65726f206164647265737345524332303a2076616c7565206d75737420626520626967676572207468616e207a65726f45524332303a206163636f756e742062616c616e6365206973206c6f776572207468616e20616d6f756e744d696e7461626c65546f6b656e3a206d696e74696e672069732066696e6973686564436f6e747261637420696e7374616e63652068617320616c7265616479206265656e20696e697469616c697a6564467265657a61626c65546f6b656e3a2062616c616e6365205f66726f6d206d75737420627220626967676572207468616e2076616c756545524332303a20617070726f76652066726f6d20746865207a65726f2061646472657373a265627a7a7231582003a0e31d5be0e72130b879e31655a0c2543f96b924fbd2920ffb43fb4b81831264736f6c634300051100324f776e61626c653a207472616e7366657220746f207a65726f206164647265737345524332303a20617070726f766520746f20746865207a65726f20616464726573734d696e7461626c65546f6b656e3a2073656e64657220686173206e6f74207065726d697373696f6e7345524332303a2076616c7565206d75737420626520626967676572207468616e207a65726f4d696e7461626c65546f6b656e3a206d696e74696e672069732066696e6973686564436f6e747261637420696e7374616e63652068617320616c7265616479206265656e20696e697469616c697a656445524332303a20617070726f76652066726f6d20746865207a65726f2061646472657373",
  "compiler": {
    "name": "solc",
    "version": "0.5.17+commit.d19bba13.Emscripten.clang",
    "optimizer": {
      "enabled": false,
      "runs": 200
    },
    "evmVersion": "petersburg"
  }
}