{
  "fileName": "Ownable.sol",
  "contractName": "Ownable",
  "source": "pragma solidity ^0.5.0;\n\n/**\n* @title Ownable\n* @dev The Ownable contract has an owner address, and provides basic      authorization control\n* functions, this simplifies the implementation of \"user permissions\".\n*/\ncontract Ownable {\n\n    address public owner;\n\n    event OwnershipTransferred(address indexed previousOwner, address indexed newOwner);\n\n    /**\n     * @dev Throws if called by any account other than the owner.\n     */\n    modifier onlyOwner() {\n        require(msg.sender == owner, \"Ownable: sender is not owner\");\n        _;\n    }\n\n    /**\n     * @dev Transfers control of the contract to a newOwner.\n     * @param _newOwner The address to transfer ownership to.\n     */\n    function _transferOwnership(address _newOwner) internal {\n        require(_newOwner != address(0), \"Ownable: transfer to zero address\");\n        owner = _newOwner;\n        emit OwnershipTransferred(owner, _newOwner);\n    }\n}\n",
  "sourcePath": "contracts/libs/Ownable.sol",
  "abi": [
    {
      "anonymous": false,
      "inputs": [
        {
          "indexed": true,
          "internalType": "address",
          "name": "previousOwner",
          "type": "address"
        },
        {
          "indexed": true,
          "internalType": "address",
          "name": "newOwner",
          "type": "address"
        }
      ],
      "name": "OwnershipTransferred",
      "type": "event"
    },
    {
      "constant": true,
      "inputs": [],
      "name": "owner",
      "outputs": [
        {
          "internalType": "address",
          "name": "",
          "type": "address"
        }
      ],
      "payable": false,
      "stateMutability": "view",
      "type": "function"
    }
  ],
  "bytecode": "0x608060405234801561001057600080fd5b5060cf8061001f6000396000f3fe6080604052348015600f57600080fd5b506004361060285760003560e01c80638da5cb5b14602d575b600080fd5b60336075565b604051808273ffffffffffffffffffffffffffffffffffffffff1673ffffffffffffffffffffffffffffffffffffffff16815260200191505060405180910390f35b6000809054906101000a900473ffffffffffffffffffffffffffffffffffffffff168156fea265627a7a7231582033d78c14a4095b8277bcb178fee8d558ce8b2ccb153927cfa43b5e8a2458063064736f6c63430005110032",
  "compiler": {
    "name": "solc",
    "version": "0.5.17+commit.d19bba13.Emscripten.clang",
    "optimizer": {
      "enabled": false,
      "runs": 200
    },
    "evmVersion": "petersburg"
  }
}